:020000040800F2
:10000000988C0020450100085B2400085324000858
:100010005724000809200008ED2A0008000000000D
:100020000000000000000000000000003126000871
:10003000E322000800000000E12400087127000806
:100040005F0100085F0100085F0100085F01000810
:100050005F0100085F010008E52200085F01000859
:100060005F0100085F0100085F010008952000089B
:100070005F0100085F0100085F0100085F010008E0
:100080005F0100085F010008211E00085F010008F1
:100090005F0100085F0100085F0100085F010008C0
:1000A0005F0100085F0100085F0100085F010008B0
:1000B0005F0100085F010008092800085F010008CF
:1000C0005F0100085F0100085F0100085F01000890
:1000D0005F0100085F0100085F0100085F01000880
:1000E0005F0100085F0100085F0100085F01000870
:1000F0005F0100085F0100085F0100085F01000860
:100100005F0100085F0100085F0100085F0100084F
:100110005F0100085F0100085F0100085F0100083F
:100120005F0100085F0100085F010008C5200008AA
:10013000DFF80CD000F0E0FA004800473931000841
:10014000988C00200648804706480047FEE7FEE7F7
:10015000FEE7FEE7FEE7FEE7FEE7FEE7FEE7FEE777
:10016000A927000831010008F0B480EA0102D40F89
:100170004200B2EB410F02D20246084611464A0045
:1001800042D0C30DDDB2C1F3C752AD1A202D35DA0E
:10019000C1F3160141F4000204B15242C5F1200638
:1001A00002FA06F12A411044B3EBD05F23D0C4B168
:1001B000012DA0EBC35009DCF0BC4FF0004202EA75
:1001C000C352DBB200F5000000F0DCB9400000F1E2
:1001D000807000EBC350A0F1807040EAD1704900FC
:1001E00009E0490841EAC071A0EBC35000F50000E6
:1001F000400800EBC350F0BC00F0BBB961420122E3
:1002000002EB4101001BF6E7F0BC704781F00041B2
:10021000AAE780F00040A7E780EA010210B502F0EB
:100220000043400022D04A001FD0010E01EB1261B2
:10023000C0F35600C2F3560240F4000042F400023C
:10024000A0FB022000047F39140400D0401C50EAB7
:10025000124001D44000491EC2B20C0604EBD0107B
:10026000401C4008802A02D003E0002010BD20F08E
:100270000100002900DA0020184310BD30B480EAE4
:10028000010202F0004530F0004221F0004013D09E
:1002900090B1C30DD40DC2F31601C0F31600E41AD9
:1002A00041F4000140F400027D34914201D3641C0A
:1002B00000E04900002C02DA30BC002070474FF407
:1002C00000000023914201D3891A034340084FEAFA
:1002D0004101F7D151B1914202D14FF0004105E007
:1002E00002D24FF0010101E06FF0010103EBC450B5
:1002F000284430BC00F03DB92DE9FE4F81EA0304EB
:1003000004F0004421F0004100944FF0000B23F072
:10031000004350EA01045ED052EA03045BD0C3F309
:100320000A54C1F30A552C44A4F2F3340194A0FBFF
:100330000254C1F3130141F48011C3F3130343F4D6
:10034000801301FB024400FB034E840A970A44EA2F
:10035000815447EA8357A4FB076802958D0A05FB81
:1003600007854FEA932C04FB0C542705029D4FEAA6
:10037000065847EA1637B5EB08056EEB070C870EF3
:10038000920E47EA811742EA8312A7FB0201B6EBFD
:100390000B0164EB00042B0D43EA0C335E1844EBB5
:1003A0001C50DA465146E7FB0201C5F313044FEA3D
:1003B0000B3343EA14534FEA0432019C43EA060329
:1003C000A4F10C040294009CCDE900B400F046F9BD
:1003D00003B0BDE8F08F00200146F9E7002801DBFB
:1003E000C0F10040002901DBC1F10041814201D28E
:1003F000012070470020704796230022114600F02C
:10040000C1B80EB540F2334102910021CDE900118F
:100410000A460B4600F022F903B000BD00F000428E
:1004200020F00040C10DC0F3160040F400007F2909
:1004300001DA00207047962903DCC1F19601C8401B
:1004400001E096398840002AF4D04042704700F01D
:10045000004230F000400AD0C10D01F56071C0F3D8
:10046000160042EA0151C2084007114370470020BC
:100470000146704730B5041E71F1000404DB4FF0F3
:100480000044404264EB0101141E73F1000405DBDB
:100490001C464FF00043524263EB04038B4208BFFB
:1004A000824230BD30B5041E71F1000404DB4FF010
:1004B0000044404264EB0101141E73F1000405DBAB
:1004C0001C464FF00043524263EB0403994208BFBD
:1004D000904230BD01F0004330B421F0004150EAB9
:1004E000010206D00A0DA2F56072C1F31301002AC1
:1004F00002DC30BC00207047440F44EAC104C10054
:10050000E01830BC00EBC25000F033B8002801DB2B
:10051000C0F10040002901DBC1F100418142704778
:10052000002801DBC0F10040002901DBC1F10041DE
:1005300088427047202A04DB203A00FA02F10020AA
:1005400070479140C2F1200320FA03F31943904011
:100550007047202A04DB203A21FA02F0002170477C
:1005600021FA02F3D040C2F120029140084319461B
:1005700070470029A8BF7047401C490008BF20F001
:100580000100704710B4B0FA80FC00FA0CF050EA99
:10059000010404BF10BC704749B1CCF1200421FA1A
:1005A00004F411FA0CF118BF012121430843A3EB15
:1005B0000C01CB1D4FEA00614FEA102042BF002022
:1005C00010BC704700EBC35010440029A4BF10BCFE
:1005D0007047401C490008BF20F0010010BC704764
:1005E000F0B4002802DCF0BC00207047C0F3C75113
:1005F000C0F3160040F40000CA0701D14000491EB4
:100600003F2202EB6105002211464FF4000626FA54
:1006100001F31344D418844201D8001B1A46400049
:10062000491C1729F3DD5100814202D24FF0FF31FE
:1006300000E0002102EBC550F0BCFFF79ABF10B5F7
:10064000141E73F1000408DA401C41F100019218F5
:100650005B411A4301D120F0010010BD2DE9F04D9E
:1006600092469B4611B1B1FA81F202E0B0FA80F2F3
:1006700020329046FFF75EFF04460F4640EA0A002C
:1006800041EA0B0153465A46084313D0114653EA38
:10069000010019D0C8F140025046FFF75AFF054645
:1006A0000E46504659464246FFF744FF084305D0E0
:1006B000012004E020463946BDE8F08D00200543C6
:1006C00046EAE0762C4337430A986305E40AA0EB38
:1006D00008000022FD0A44EA47540A3002D50020EF
:1006E0000146E9E7010510196941DDE908450019EE
:1006F0006941BDE8F04DA2E7064C074D06E0E06811
:1007000040F0010394E8070098471034AC42F6D358
:10071000FFF712FD9C8A0108BC8A010870B58D188C
:1007200010F8014B14F0030201D110F8012B231132
:1007300006D110F8013B03E010F8016B01F8016BE2
:10074000521EF9D1ABB110F8012B04F00C048A1A37
:100750000C2C03D0A2EB84129B1C08E010F8014B78
:10076000A2EB0422F8E712F8014B01F8014B5B1EE3
:10077000F9D5A942D4D3002070BD0000F0B5F1B185
:10078000002300BF02EB430C32F813E0BCF802C0B8
:100790002EF0030E2CF0030C50F80E5050F80C60A5
:1007A00000EB0E0400EB0C0740F80E6040F80C5014
:1007B0007E68656802338B4266607D60E2D3F0BD7F
:1007C0002DE9F0410488984616460746012A0D4651
:1007D00009D1CCB3281D21460268013982F00042BC
:1007E00040F8082BF8D1FF2C0CDDB4F5806F10DB3E
:1007F000B4F5805F22D0B4F5006F11D0B4F5806FEE
:1008000017D021E03F2C10DC102C12D0202C07D068
:100810001AE0B4F5807F03D0B4F5007F0ED013E06A
:100820003846294600F0FCF90EE0402C06D0802C1A
:100830000AD13846294600F08BF805E07A68284648
:100840002146012300F07EFEB8F1000F04D0B989E3
:10085000BA682846FFF792FF012E1DD12046FFF708
:10086000CBFD01464FF07E50FFF708FD002C08BF7E
:10087000BDE8F081064600BFD5E900173046FFF716
:10088000CBFC286087F000413046FFF7C5FC68606C
:10089000013C05F10805EFD1BDE8F081002242607E
:1008A000FF294FF0FF0201800EDDB1F5806F16DBEE
:1008B00029D0B1F5805F2BD0B1F5006F46D148F655
:1008C000BC23C0F6000336E03F2913DC102924D0F6
:1008D00020293BD148F6DC23C0F600032BE0B1F51C
:1008E000807F1FD0B1F5007F30D148F6FC23C0F6E1
:1008F000000320E040291AD0802927D148F69C2304
:10090000C0F6000317E048F68C23C0F6000312E09F
:1009100048F6EC23C0F600030DE048F6AC23C0F621
:10092000000308E048F6CC23C0F6000303E048F6D5
:100930000C33C0F60003191D03F108020C331B88A9
:10094000126809688381C0E90112002250B2704721
:100950002DE9F04F9BB00388039101EB83011591C2
:10096000426800210190B1EBD30F4FEA530002908F
:1009700000F0458115980299DB0800EB8100139087
:1009800003984FF0000A00EB81001290149200BF10
:100990001193159DDDF80C9005EB0A0112981A9140
:1009A00009EB0A08139B59F80AC0D8F8044000EB79
:1009B0000A07064603EB0A001890CDF82CC00494F1
:1009C000D8F8084055F80A501094D8F80C400F9405
:1009D0000C95D1E901B4C968059156F80A10179130
:1009E000796806970891B9680A91F9680E9153F8E9
:1009F0000A101691416807918168C06809910D90AD
:100A000002EB0A00199060462946FFF7ADFB049EF1
:100A100049F80A0030465946FFF7A6FB109DC8F872
:100A2000040028462146A146FFF79EFB0F9C059F28
:100A3000C8F8080020463946FFF796FBC8F80C00B6
:100A4000DDE90B01FFF7E2FB0C9030465946FFF75A
:100A5000DDFB0B9028464946FFF7D8FB1090204657
:100A60003946FFF7D3FB0F90DDE91610FFF77CFB4B
:100A70001299DDF82080DDF81C9041F80A0040460C
:100A80004946FFF771FB069CDDF828B0099F6060BE
:100A900058463946FFF768FB0E9D0D9EA06028461C
:100AA0003146FFF761FBE060DDE91601FFF7AEFBC1
:100AB000069048464146FFF7A9FB0890384659463C
:100AC000FFF7A4FB179030462946FFF79FFB1499C8
:100AD00051F80A70199916900C9E4D6830463946A7
:100AE000FFF79AFB0B9C834620462946FFF794FBB1
:100AF000814620463946FFF78FFB0446304629469B
:100B0000FFF78AFB804658464946FFF72DFB1599AB
:100B100041F80A0020464146FFF778FB1A99069CE7
:100B2000486020462946FFF777FB089E80463046FE
:100B30003946FFF771FB814630462946FFF76CFBCB
:100B4000054620463946FFF767FB074640464946BB
:100B5000FFF75CFB139941F80A0038462946FFF776
:100B600003FB1899109E48601998D0E90245304659
:100B70002146FFF751FB0F9F804638462946FFF775
:100B80004BFB834638462146FFF746FB81463046FD
:100B90002946FFF741FB064640465946FFF7E4FA6F
:100BA0001A9F3146B8604846FFF730FB179EF86041
:100BB00030462946FFF730FB169F804638462146CF
:100BC000FFF72AFB814638462946FFF725FB0546F5
:100BD00030462146FFF720FB044640464946FFF7D2
:100BE00015FB189E2946B0602046FFF7BDFA119B01
:100BF000149A013B0AF1100AF0607FF4C9AEDDE9F6
:100C000002400223214600F09DFC019821464268E3
:100C1000159802231BB0BDE8F04F00F093BC000014
:100C20002DE9F04FADB0028889464FEA520A01EB38
:100C30008A014FEA8A032C92229301EB8A0303EB89
:100C40008A08CDF814800290406851F82A40069036
:100C5000900803910190D9E900568B462846214619
:100C60001F46FFF781FA269028462146FFF7CEFA65
:100C70007C6804970546279030462146FFF774FAB2
:100C8000249030462146FFF7C1FADBF804100646EF
:100C9000239125902846FFF767FAD8F804402146AB
:100CA000FFF7B4FA59F82A802B9030464146FFF7F7
:100CB000ADFA57F82AB05946FFF756FA2A90269F00
:100CC00041463846FFF7A2FA5946FFF79FFA2990A6
:100CD000249D239E28463146FFF798FA2146FFF7C8
:100CE00095FA289027983146FFF790FA2146FFF7AA
:100CF0003BFA279025984146FFF736FA5946FFF709
:100D000085FA259038464146FFF72EFA5946FFF7F7
:100D10002BFAC9F8000028463146FFF725FA21468C
:100D2000FFF722FADDF888C0CDF88C90C9F80400EE
:100D30002B982A9949F82A0003984FEACA03416080
:100D40002999002540F82A10049828990024416028
:100D5000279940F82A100598259941602C996FF041
:100D6000010000EB9100400827900AEB4A006FF069
:100D70000701870001EB0A1601EB80002A962C90F0
:100D80006FF0030000EBCA0100EB8A0000262691F9
:100D9000259000BF069988191C90239816968219F1
:100DA0004E19214415951F9614942191C119179736
:100DB0002B911893C118CDF888C02492D2E902452E
:100DC0008E6800EB0C0B2091CF6820463146FFF770
:100DD000CBF9824620463146FFF718FA06461A90AC
:100DE00028463946FFF7C0F9289028463946FFF7CC
:100DF0000DFACDF8A4B0DBE90294804630462146D6
:100E0000FFF7B2F9DDF8ACB0DBE902573946FFF77E
:100E1000FDF91B9040464946FFF7F8F92946FFF7D0
:100E2000A3F9199050464946FFF7F0F92946FFF714
:100E3000EDF91E9028982146FFF7E8F93946FFF7AB
:100E4000E5F91D901A982146FFF7E0F93946FFF7BA
:100E50008BF91A9040464946FFF786F92946FFF775
:100E6000D5F9834650464946FFF77EF92946FFF7F4
:100E70007BF9249CA0602998C1682898FFF774F931
:100E80002B99C968FFF770F92799E060002900F0F5
:100E90007F81DDF88CA02A980AEB0009CDF84C90F0
:100EA0002C980AEB000611962C90014625985AF8CA
:100EB00001500AEB00070A9757F8044C2698294678
:100EC0000AEB00082046FFF74FF9249020462946F8
:100ED000FFF79CF93C687668CDF848B0074610905B
:100EE00020463146FFF740F9099020463146FFF78A
:100EF0008DF9D8F80020D9F80410CDF8A080079219
:100F0000089106460F9010464546FFF77FF90446C4
:100F100038462146FFF728F958F8049C0C903046D3
:100F20004946FFF773F9DDF8A8B055465AF80BA00B
:100F30005146FFF719F90B9024984946FFF766F9D7
:100F40005146FFF763F90E90DDF82480079E404676
:100F50003146FFF75BF9089F3946FFF757F90D90C7
:100F600010992046FFF752F9109050464946FFF776
:100F70004DF90F99FFF74AF90F9040463146FFF7B8
:100F8000F3F83946FFF7F0F80A9C2060289850F8EB
:100F9000041C2498FFF7E8F855F80B10AB46FFF750
:100FA000E3F844F8040C1C981B9ED0E90245304637
:100FB0002146FFF731F9199F804638462946FFF749
:100FC0002BF9824638462146FFF726F981463046FE
:100FD0002946FFF721F9064640465146FFF7C4F877
:100FE000299F3146B8604846FFF710F9F8600B9F1B
:100FF00029463846FFF710F90C9E804630462146B8
:10100000FFF70AF9814630462946FFF705F90546FC
:1010100038462146FFF700F9044640464946FFF7A7
:10102000F5F8289E294630602046FFF79DF846F8DF
:10103000040C1F981E9ED0E9045430462946FFF741
:10104000EBF81D9F804638462146FFF7E5F88246BB
:1010500038462946FFF7E0F8814630462146FFF73B
:10106000DBF8064640465146FFF77EF8209F3146A2
:10107000B8604846FFF7CAF8F8600D9F284687F029
:101080000041FFF7C9F80E9E804630462146FFF723
:10109000C3F8814630462946FFF7BEF80546384674
:1010A0002146FFF7B9F8044640464946FFF7AEF837
:1010B0001199486020462946FFF7A8F82C99DDF8D9
:1010C00068A04BF801002198D0E90645504621461A
:1010D000FFF7A2F8129E804630462946FFF79CF89B
:1010E000074630462146FFF797F881465046294685
:1010F000FFF792F8064640463946FFF735F82B9F32
:101100003146B8604846FFF781F8F8600F9F2946DE
:101110003846FFF781F8109E804630462146FFF79B
:101120007BF8814630462946FFF776F80546384673
:101130002146FFF771F8044640464946FFF766F836
:101140001399486020462946FFF70EF82A994BF874
:1011500001002798013827900846A1F10800DDF822
:1011600088C0189B179F149C159D169E2A902C983A
:101170000CF1080C08382C90269808330838269073
:10118000259808370838183410350836259001E6B8
:101190001C981B9FD0E9024538462146FFF73CF8D2
:1011A000199E814630462946FFF736F8824630467A
:1011B0002146FFF731F8044638462946FFF72CF858
:1011C000054648465146FEF7CFFF299E2946B060A6
:1011D0002046FFF71BF8F0601F981E9ED0E90445DB
:1011E00030462146FFF718F81D9F814638462946AC
:1011F000FFF712F8824638462146FFF70DF80446FD
:1012000030462946FFF708F8054648465146FEF79E
:10121000ABFF209E2946B0602046FEF7F7FFF06046
:1012200021981A9FD0E9064538462146FEF7F4FF7B
:10123000814658462946FEF7EFFF064658462146A6
:10124000FEF7EAFF044638462946FEF7E5FF054665
:1012500048463146FEF788FF2B9E2946B06020465F
:10126000FEF7D4FF019DF0602398069A29460423D7
:1012700000F068F9029C039862682946042300F094
:1012800061F9626804982946042300F05BF96268FA
:101290000598294604232DB0BDE8F04F00F052B95F
:1012A0002DE9F04381B00C4600219046B1EB920F3E
:1012B000054650D04FEA9809D5E900070146FEF7E8
:1012C000ABFF064638463946FEF7A6FF01463046D4
:1012D000FEF74AFF02F058F92060D5E90206014600
:1012E000FEF79AFF074630463146FEF795FF014666
:1012F0003846FEF739FF02F047F96060D5E9040689
:101300000146FEF789FF074630463146FEF784FF67
:1013100001463846FEF728FF02F036F9A060D5E90D
:10132000060605F120070146FEF776FF0546304622
:101330003146FEF771FF01462846FEF715FF04F11E
:10134000100602F021F9E060B9F101093D4634468A
:10135000B2D134463D4618F0030715D0D5E9000652
:101360000146FEF759FF804630463146FEF754FFEE
:1013700001464046FEF7F8FE02F006F944F8040B79
:10138000013F05F10805E9D101B0BDE8F083000097
:101390002DE9F04F89B082465AF8049B4E1E4FF05B
:1013A000000B8846BBEB960F1746059364D001905F
:1013B00001203346CDE90387B10860F301034FF004
:1013C000000B042702960093DAF808000891DAE986
:1013D00000860690DAF80C00414607904846FEF772
:1013E000FDFF00284C464846414618BF4446FEF7DC
:1013F000F5FF00282046314618BFA7F1030BFEF782
:10140000EDFF002825462046314618BF3546FEF739
:10141000E5FF002818BFA7F1020B069E28463146BB
:10142000FEF7DCFF00282C462846314618BF34461C
:10143000FEF7D4FF002818BFA7F1010B079D204637
:101440002946FEF7CBFF0028A1462046294618BFB3
:10145000A946FEF7C3FF0899002818BFBB4601390B
:1014600007F104070AF1100AAED1DDE90010049F6C
:10147000DDE9026800EB810A16F0030017D046424E
:101480004D4600BF5AF8044B48462146FEF7A6FFDA
:1014900000284846214618BF2546FEF79FFF002832
:1014A00018BF08EB060B0136A946EBD300E04D460A
:1014B00005983D60C0F800B009B0BDE8F08F0000AD
:1014C0002DE9F04F83B0002715468946B7EB910F01
:1014D000804620D002954FEA990529F003000027A5
:1014E0004646019096E81208D6F80CA03846FEF75A
:1014F0003BFE2146FEF738FE5946FEF735FE5146C3
:10150000FEF732FE0746013D06F11006EAD10198CA
:10151000029D08EB800819F0030407D058F8041B5B
:101520003846FEF721FE013C0746F7D14846FEF754
:1015300063FF01463846FEF7A1FE286003B0BDE810
:10154000F08F00002DE9F04FB5B0CDE902320090E8
:1015500004300B4601901891DC084FEAC409A9EB4E
:10156000D300C000349004EB44000201209204EB4D
:101570008402D2001F922201DDF80480DD006701A1
:101580001B924FEAC00B00220594CDE919531E9718
:10159000CDE91C9B08EB070B58F8044C5BF8046C76
:1015A000204631463392FEF7DFFD82462046314623
:1015B000FEF72CFE08EB0901319151F8046C1F99DC
:1015C0002E90414451F8047C329130463946FEF762
:1015D000CBFD814630463946FEF718FE1B992C900C
:1015E00008EB0102209952F8046C414451F8047C44
:1015F0002A91304639462992FEF7B6FD0546304617
:101600003946FEF703FE1D992D904144309151F863
:10161000046C34993046414451F8047C2F9139468A
:10162000FEF7A2FD044630463946FEF7EFFD27904F
:1016300050462946FEF7EAFD259050462946FEF71A
:1016400093FD054648462146FEF7E0FD26904846B4
:101650002146FEF789FD044628462146FEF784FD13
:1016600048F8040C28462146FEF7D0FD1E99D8F80C
:10167000005058F801604BF8040C28463146FEF73C
:1016800073FD044628463146FEF7C0FD1C992B9099
:1016900058F801501F99284658F801603146FEF766
:1016A00063FD834628463146FEF7B0FDDDF86C90B9
:1016B000209958F8095058F801602490284631467E
:1016C000FEF752FD824628463146FEF79FFD1D99E2
:1016D000289058F801503499284658F8016031464E
:1016E000FEF742FD074628463146FEF78FFD239060
:1016F00020465146FEF78AFD054620465146FEF734
:1017000033FD044658463946FEF780FD06465846E6
:101710003946FEF729FD074620463946FEF724FDE7
:10172000C8F8000020463946FEF770FD1E99259C3A
:1017300048F8010020463146FEF716FD299941F888
:10174000040C20463146FEF761FD2A99269C41F89B
:10175000040C28462146FEF759FD48F809002046AA
:101760002946FEF701FD20992C9C279D48F8010091
:1017700020462946FEF74AFD40F2F349C3F6357983
:101780004946FEF749FD824620462946FEF7ECFC15
:101790004946FEF741FD249C239F054620463946D5
:1017A000FEF734FD4946FEF737FD0646204639462A
:1017B000FEF7DAFC4946FEF72FFD2E9C0746204631
:1017C0005146FEF723FD834620465146FEF7CCFCEA
:1017D0002D9C824620462946FEF718FD2E90204675
:1017E0002946FEF7C1FC2B9C2C9020463146FEF783
:1017F0000DFD2D9020463146FEF7B6FC289D04468F
:1018000028463946FEF702FD064628463946FEF7C9
:10181000ABFC074650463946FEF7A6FC3199DDF889
:10182000709041F8040C50463946FEF7EFFC2F99B2
:1018300041F8040C58463146FEF796FC329941F8BF
:10184000040C5846DDF874B03146FEF7DFFC3099E1
:101850002C9D41F8040C20462946FEF7D7FC48F899
:10186000090028462146FEF77FFC34992D9D2E9CC9
:1018700048F8010028462146FEF7C8FC1F9948F8A1
:10188000010020462946FEF76FFC339A1A9BDDE9DA
:1018900018151E9F1A4448F80B008A42A844FFF40A
:1018A00079AE402BC0F0B9820298009E80B20490BD
:1018B00005980024C0EBC000C0000125099000BFBE
:1018C0000498039B044453F834004FEA041817901B
:1018D00053F8080004EB4402169053F832006101FB
:1018E000159058584FEAC20C149004EB84004FEA4C
:1018F000C00E53F830001201139098584FEAC409F3
:101900001290C4EBC4000894C40053F8300006964B
:10191000119009F1040018580795109008F104007F
:1019200018580F900CF1040018580E90081D185804
:101930000D900EF1040018580C90101D18580B90C3
:10194000201D185833460A90D8192E9534932F909D
:101950008468D3E90260214628903046FEF704FCF3
:10196000804630462146FEF751FC34991C9A1144BA
:1019700032918C6834991F9A01EB0209D9F808500A
:10198000CDE92B0920462946FEF7EEFB824620468C
:101990002946FEF73BFC34991B9A2990114430915B
:1019A0008C683499209A204611448D6831912946DB
:1019B000FEF7DAFB074620462946FEF727FC349956
:1019C000099A8B443499DBF8084011448D683391AF
:1019D0002A9020462946CDF8B4B0FEF7C5FB06464E
:1019E00020462946FEF712FC269040463946FEF76F
:1019F0000DFC219040463946FEF7B6FB05465046A1
:101A00003146FEF703FC239050463146FEF7ACFB0F
:101A1000064628463146FEF7A7FB349988602846DB
:101A20003146FEF7F3FB2F99289CCD682290204683
:101A30002946FEF799FB064620462946FEF7E6FBB7
:101A40003299D9F80C40CF68289038462146FEF7E5
:101A50008BFB054638462146FEF7D8FB309925908A
:101A6000CC6831992046CF683946FEF77DFB814628
:101A700020463946FEF7CAFB3399DBF80C40CF68A5
:101A8000279020463946FEF76FFB824620463946AE
:101A9000FEF7BCFB249030464946FEF7B7FB804674
:101AA00030464946FEF760FB064628465146FEF79B
:101AB000ADFB044628465146FEF756FB219F0546DE
:101AC00038462146FEF750FB814638462146FEF750
:101AD0009DFB219030462946FEF746FB3499C860AD
:101AE00030462946FEF792FB239C05464046214698
:101AF000FEF78CFB834620464146FEF735FB149EDD
:101B0000DDF88880239030464146FEF785FBDDF8FE
:101B100034A0044650462946FEF77EFB0746304671
:101B20002946FEF779FB054650464146FEF774FB11
:101B3000064620463946FEF717FB2F9C3146A0602B
:101B40002846FEF763FB169EE06030464946FEF7E6
:101B500063FB0F9F044638465946FEF75DFB05467A
:101B600030465946FEF758FB064638464946FEF7CA
:101B700053FB074628462146FEF7F6FA309C3946C5
:101B8000A0603046FEF742FBE060129E219C30468A
:101B90002146FEF741FB0B9F239D80463846294690
:101BA000FEF73AFB814630462946FEF735FB0646EE
:101BB00038462146FEF730FB074648464146FEF7C9
:101BC000D3FA319C3946A0603046FEF71FFBE06037
:101BD000299C269D20462946FEF718FB40F2F34635
:101BE000C3F635763146FEF717FB80462046294678
:101BF000FEF7BAFA3146FEF70FFB259C249D81467D
:101C000020462946FEF702FB3146FEF705FB074654
:101C100020462946FEF7A8FA3146FEF7FDFA2B9C2E
:101C2000064620464146FEF7F1FA824620464146E6
:101C3000FEF79AFA2A9D044628464946FEF7E6FA38
:101C4000299028464946FEF78FFA289D8146284666
:101C50003946FEF7DBFA2A9028463946FEF784FA21
:101C6000279D074628463146FEF7D0FA804628468B
:101C70003146FEF779FA064620463146FEF774FAF9
:101C8000834620463146FEF7C1FA2B905046414626
:101C9000FEF76AFA309050464146FEF7B7FA3190A7
:101CA00038464946FEF7B2FA824648463946FEF7BC
:101CB0005BFA2A9D299C804628462146FEF7A6FA13
:101CC0002F9020462946FEF74FFA179C8146204662
:101CD0005946FEF7A1FA109E054630465146FEF7DA
:101CE0009BFA074620465146FEF796FA04463046D0
:101CF0005946DDF874B0FEF78FFA06462846394695
:101D0000FEF732FA329D3146A8602046FEF77EFA91
:101D1000119E2B9CE86030462146FEF77DFA0A9F13
:101D2000824638464146FEF777FA05463046414638
:101D3000FEF772FA064638462146FEF76DFA074668
:101D400050462946FEF710FA339C3946A0603046CB
:101D5000FEF75CFAE060139E309C30462146FEF7A9
:101D60005BFA0C9FDDF8BCA0804638465146FEF772
:101D700053FA054630465146FEF74EFA06463846B7
:101D80002146FEF749FA074640462946FEF7ECF998
:101D90002C9C3946A0603046FEF738FAE060159E6C
:101DA000319C30462146FEF737FA0E9F8046384672
:101DB0004946FEF731FA054630464946FEF72CFA09
:101DC000064638462146FEF727FA0746404629468A
:101DD000FEF7CAF92D9C3946A0603046FEF716FA88
:101DE0002E9D1A9A349B1899E06019981E9F1544ED
:101DF0008D420344FFF4A8AD079D0598069E01356A
:101E0000089C854206F10806FFF45AAD0298059B2E
:101E1000C0003F2A02903FF69FAB35B0BDE8F08F7F
:101E200010B54FF40871074800F044F848B1054870
:101E300000F03CF8044908804FF40871014800F0B4
:101E400005F810BD002401402800002000220A12DD
:101E5000D3430360704721B1826842F0010282607F
:101E600003E0826822F001028260704721B182683B
:101E700042F48072826003E0826822F480728260A1
:101E8000704721B1826842F48012826003E0826868
:101E900022F4801282607047014600208A6802F0B6
:101EA00004020AB1012000E0002070470146C86C1E
:101EB00080B2704770B502460020002300240B1248
:101EC0005568CEB205EA060415681D4015B10CB17F
:101ED000012000E0002070BD014600208A6802F069
:101EE00008020AB1012000E00020704730B5024628
:101EF0000020002350680F4C20400D790C6844EA04
:101F000005242043506090680B4C2040D1E90254D6
:101F10002C434D7944EA450420439060D06A20F474
:101F200070000C7C641EE4B2234340EA0350D0628C
:101F300030BD0000FFFEF0FFFDF7F1FFF0B50446F5
:101F40000D4600200021092D11DDE068A5F10A06EB
:101F500006EB4607072606FA07F18843A5F10A06AD
:101F600006EB460603FA06F10843E0600CE0206940
:101F700005EB4507072606FA07F1884305EB4506FA
:101F800003FA06F108432061072A0FDA606B561E38
:101F900006EB86071F2606FA07F18843561E06EB56
:101FA000860605FA06F10843606322E00D2A0FDA7F
:101FB000206BD61F06EB86071F2606FA07F188431B
:101FC000D61F06EB860605FA06F10843206310E0EB
:101FD000E06AA2F10D0606EB86071F2606FA07F156
:101FE0008843A2F10D0606EB860605FA06F10843C2
:101FF000E062F0BD816841F008018160704781684E
:1020000041F004018160704700BFFEE739B1084A22
:102010001268012383401A43054B1A6006E0044A04
:102020001268012383409A43014B1A6070470000F5
:102030000074004041B1094A12684FF48053834054
:102040001A43064B1A6007E0044A12684FF48053A3
:1020500083409A43014B1A607047000000740040AF
:1020600030B5002200230A4C226840F6FE748440FA
:10207000A243D1E900452C438D682C43CD6844EA46
:10208000050303FA00F42243014C226030BD000036
:102090000074004010B5022000F0E6F868B100219D
:1020A000064800F0CAFB0021044800F0D2FB0220E1
:1020B00000F01AF801200249087010BD002C014000
:1020C0002A00002010B5064800F0CEF8012806D1FD
:1020D000034800F009F80021024800F0AEFB10BDF3
:1020E000002000100008004000F0805111B10349A9
:1020F000086001E0024948607047000004040240A3
:102100000000024021B1026842F00102026004E0D6
:1021100002684FF6FE731A400260704701684FF67E
:10212000FE72114001600021016041608160C16068
:102130004B49884208D14A490839496841F00F01A2
:10214000474A083A51608AE045491431884208D12B
:1021500043490839496841F0F001414A083A516061
:102160007DE03F492831884208D13D490839496816
:1021700041F470613A4A083A516070E038493C31A4
:10218000884208D136490839496841F47041344AD7
:10219000083A516063E032495031884208D13049F1
:1021A0000839496841F470212D4A083A516056E0D7
:1021B0002B496431884208D129490839496841F4DA
:1021C0007001274A083A516049E025497831884230
:1021D00008D123490839496841F07061204A083A1A
:1021E00051603CE01F49884206D1011F096841F057
:1021F0000F01021F116032E01A491431884208D1E0
:102200001849091F096841F0F001164A121F1160B0
:1022100025E014492831884208D11249091F09686C
:1022200041F470610F4A121F116018E00D493C31F2
:10223000884208D10B49091F096841F47041094AD5
:10224000121F11600BE007495031884207D1054940
:10225000091F096841F47021024A121F116070477A
:10226000080002400804024001460020002201F05C
:10227000805313B1054B1A6801E0054B1A6802EA56
:1022800001030BB1012000E0002070470004024070
:10229000000002401AB103680B43036002E00368C8
:1022A0008B430360704710B50022026847F6F07355
:1022B0009A430C6A8B6823430C6923434C6923437C
:1022C0008C692343CC6923434C6A23438C6A2343A0
:1022D0001A430260CB6843600B6883604B68C3603D
:1022E00010BD704710B5012000F014F840B105484A
:1022F000006880F0200003490860012000F004F825
:1023000010BD00000C0C014001490860704700003E
:1023100014040140014600200022074B1B6803EA19
:102320000102054B14331B680B4013B10AB10120A5
:1023300000E0002070470000000401402DE9F0415A
:10234000024600250026002000230024002791F8E3
:1023500003C00CF00F0591F803C00CF0100CBCF199
:10236000000F03D091F802C04CEA050591F800C0B7
:10237000BCF1000F31D0146800202BE04FF0010CAD
:102380000CFA00F3B1F800C00CEA03069E4220D11B
:1023900083004FF00F0C0CFA03F7BC4305FA03FC63
:1023A0004CEA040491F803C0BCF1280F06D14FF0A9
:1023B000010C0CFA00FCC2F814C00AE091F803C04A
:1023C000BCF1480F05D14FF0010C0CFA00FCC2F82B
:1023D00010C0401C0828D1D31460B1F800C0BCF173
:1023E000FF0F34DD546800202EE000F1080C4FF0A0
:1023F000010808FA0CF3B1F800C00CEA03069E428B
:1024000021D183004FF00F0C0CFA03F7BC4305FAFF
:1024100003FC4CEA040491F803C0BCF1280F05D179
:1024200000F1080C08FA0CF8C2F8148091F803C007
:10243000BCF1480F07D100F1080C4FF0010808FA71
:102440000CF8C2F81080401C0828CED35460BDE8B8
:10245000F08100BFFEE700BFFEE7704770B50021C6
:1024600000230F22C47804B3154C246804F4E064FC
:10247000C4F5E064210AC1F10403CA40447804FAB7
:1024800003F184781440214309010E4C0678A155CC
:10249000047804F01F050124AC4005786D11AD00EF
:1024A00005F1E025C5F8004109E0047804F01F05B6
:1024B0000124AC40044D0678761145F8264070BDE5
:1024C0000CED00E000E400E080E100E0024901439F
:1024D000024A1160704700000000FA050CED00E0B0
:1024E0007047000001460020034A506820F4404035
:1024F00008435060704700000010024029B1064AAE
:1025000052690243044B5A6104E0034A5269824310
:10251000014B5A61704700000010024029B1064A81
:10252000D2690243044BDA6104E0034AD269824370
:10253000014BDA61704700000010024029B1064AE1
:1025400092690243044B9A6104E0034A9269824310
:10255000014B9A61704700000010024030B5002125
:102560000022002400232D4D6D6805F00C0121B1DF
:10257000042905D0082923D105E0294D056022E072
:10258000274D05601FE0254D6D6805F47012234D41
:102590006D6805F48034022505EB92421CB9214D8B
:1025A000554305600BE01D4D6D6805F400351DB108
:1025B0001C4D5543056002E0194D5543056002E08E
:1025C000174D056000BF00BF144D6D6805F0F001A8
:1025D0000909154D6B5C0568DD4045600F4D6D6860
:1025E00005F4E061090A104D6B5C4568DD408560CB
:1025F0000A4D6D6805F46051C90A0B4D6B5C456866
:10260000DD40C560054D6D6805F44041890B074DFF
:102610006B5CC568B5FBF3F5056130BD0010024089
:1026200000127A0000093D00380800204808002008
:10263000704710B500F002F810BD00000CB5002086
:10264000019000903348006840F4803031490860C0
:1026500000BF3048006800F4003000900198401C32
:102660000190009818B90198B0F5A06FF1D12948F0
:10267000006800F4003010B10120009001E000205B
:1026800000900098012843D12348006840F01000D2
:10269000214908600846006820F0030008600846E9
:1026A000006840F0020008601A4840681949486014
:1026B0000846406848600846406840F480604860CA
:1026C0000846406820F47C1048600846406840F4A2
:1026D000E81048600846006840F08070086000BF5D
:1026E0000C48006800F000700028F9D009484068E4
:1026F00020F00300074948600846406840F00200A7
:10270000486000BF0348406800F00C000828F9D179
:102710000CBD0000001002400020024030B5014610
:10272000481EB0F1807F01D3012030BD481E4FF01C
:10273000E022506150170F22002804DB13071C0E03
:10274000094B1C5406E013071D0E084B00F00F0444
:10275000241F1D5500BF00204FF0E022906107208C
:1027600010610020E1E7000000E400E018ED00E067
:10277000704770B504464820FFF7D0FF002508E0F9
:1027800000BF4FF0E020006900F480300028F8D04E
:102790006D1CA542F4D34FF0E020006920F0010049
:1027A0004FF0E021086170BD10B51348006840F09B
:1027B00001001149086008464068104908400E4968
:1027C0004860084600680E4908400B490860084602
:1027D000006820F4802008600846406820F4FE006D
:1027E00048604FF41F008860FFF723FF4FF0006040
:1027F0000449086010BD0000001002400000FFF80E
:10280000FFFFF6FE08ED00E010B50121074800F0DB
:102810002FF8012808D10121044800F00BF80448E2
:102820000068401C0249086010BD0000000800401C
:1028300034080020CA430282704721B1028842F066
:102840000102028004E002884FF6FE731A40028003
:10285000704731B1B0F8442042F40042A0F844205F
:1028600005E0B0F84420C2F30E02A0F844207047FF
:1028700030B50246002000230024158A05EA010332
:10288000958905EA010413B10CB1012000E0002094
:1028900030BD000070B5002400220023058C4FF6E7
:1028A000FF6635400584028C8388848B4FF68F75D4
:1028B0002C404FF6FC752C400D882C434FF6FF55ED
:1028C0002A400D894FF6FF7606EA05252A434D88F2
:1028D00006EA05252A43154DA84202D0144DA84208
:1028E0001DD14FF2FF752A404D894FF6FF7606EA5B
:1028F00005252A434FF6FF352A408D8806EA05252F
:102900002A434EF6FF752B404DF6FF752B408D89FF
:1029100006EA05152B43CD8906EA05152B4383806E
:102920008483CD888587028470BD0000002C01401F
:10293000003401400A460021818B4FF6F77319409D
:1029400011438183704782884FF68F731A408280CB
:1029500082880A4382807047002202881D4B984279
:102960000ED01D4B98420BD0B0F1804F08D01B4BBE
:10297000984205D01A4B984202D01A4B984204D183
:102980004FF68F731A404B881A43174B984207D063
:10299000164B984204D04FF6FF431A40CB881A4397
:1029A00002808B8883850B8803850A4B98420BD065
:1029B000094B984208D00E4B984205D00D4B9842D7
:1029C00002D00D4B984201D10B7A038601238382FA
:1029D00070470000002C014000340140000400401A
:1029E00000080040000C00400010004000140040AF
:1029F00000400140004401400048014021B182896B
:102A000042F40052828104E082894DF6FF731A403D
:102A1000828170472DE9F04786B005460E460024B6
:102A2000A24600BFA1460027B08900B100BF2F46D3
:102A30002C8A4CF6FF700440F08804432C82AC8949
:102A40004EF6F3100440B088318908437189084379
:102A50000443AC81AC8A4FF6FF400440B089044384
:102A6000AC8201A8FFF77AFD1F48874202D1DDF84A
:102A700010A001E0DDF80CA0A88900F4004040B1EE
:102A80000AEBCA0000EB0A1031684900B0FBF1F80C
:102A900007E00AEBCA0000EB0A1031688900B0FBBE
:102AA000F1F86420B8FBF0F004012009642101FB77
:102AB0001089A88900F4004040B1322000EBC90021
:102AC000B0FBF1F000F00700044308E0322000EB17
:102AD00009106421B0FBF1F000F00F0004432C81D9
:102AE00006B0BDE8F08700000038014000BFFEE7F7
:102AF00002E008C8121F08C1002AFAD170477047C7
:102B0000002001E001C1121F002AFBD17047000024
:102B100001490860704700008408002008B50121C1
:102B20000820FFF70BFD14208DF8030003208DF81B
:102B300002004FF40060ADF8000069460948FFF755
:102B4000FDFB4FF40050ADF8000069460548FFF763
:102B5000F5FB4FF40040ADF8000069460148FFF76F
:102B6000EDFB08BD000C014070B500201E49086057
:102B70001E49C1F8BC011C4908310860002425E049
:102B80001B48055D1B48455D032C01D105F07F0501
:102B9000002617E005F0800018B1012012490860F6
:102BA00002E000201049086001200F491031086040
:102BB000FFF7DFFD00200D49C1F8BC016806050ED6
:102BC000701CC6B2082EE5DB601CC4B2062CD7DB35
:102BD0000120054908310860FFF7CBFD00200349BB
:102BE000C1F8B40170BD0000AC81214200802142D7
:102BF0006A0800207008002000B585B00121480255
:102C0000FFF79CFC4FF4C020009000208DF80400DA
:102C10008DF805004FF480200290002003900120E1
:102C20008DF8100069463248FFF760F94FF4004014
:102C3000FFF758FC0723012202212D48FFF77EF9F8
:102C400001212B48FFF707F92948FFF7D3F900BF07
:102C50002748FFF741F90028FAD12548FFF7CFF9B7
:102C600000BF2348FFF718F90028FAD10121880294
:102C7000FFF764FC4FF4C020009001208DF80400A1
:102C80008DF805004FF46020029000200390012091
:102C90008DF8100069461748FFF728F94FF40040F7
:102CA000FFF720FC0723012204211248FFF746F911
:102CB00001211048FFF7CFF80E48FFF79BF900BF3E
:102CC0000C48FFF709F90028FAD10A48FFF797F9ED
:102CD00000BF0848FFF7E0F80028FAD101210448B6
:102CE000FFF7CFF801210348FFF7CBF805B000BD8F
:102CF000002401400028014010B58CB00446012199
:102D00000846FFF7FBFB1348FFF708FA0020039083
:102D10001148019002940015049000200590802035
:102D20000690800007908000089020200990C00144
:102D30000A9000200B9001A90648FFF7B4FA012180
:102D400005484C38FFF792F801210248FFF7DAF9FD
:102D50000CB010BD080002404C24014008B54FF4EF
:102D6000C060FFF7B3FB0B208DF8000001208DF849
:102D700001008DF802008DF803006846FFF76EFB36
:102D800008BD000008B501210420FFF7D7FB002093
:102D90008DF803000420ADF8000003208DF8020038
:102DA00069460748FFF7CAFA1020ADF80000032073
:102DB0008DF8020069460348FFF7C0FA08BD00001D
:102DC000000801400010014010B5FFF7DBFFFFF7DE
:102DD00013FF10BD1FB501214807FFF79FFB00201F
:102DE000029003902C200090002001906946102052
:102DF000FFF736F901211020FFF708F91FBD000089
:102E000010B58CB0044601210220FFF777FB10209B
:102E1000039011480190029440F201400490002078
:102E200005908020069040000790800008902020A8
:102E30000990C0010A9000200B9001A90748FFF7F4
:102E400032FA01210548FFF75DF901211020FFF753
:102E5000F1F80CB010BD00001474004044040240AE
:102E600008B54FF4C060FFF731FB3B208DF8000040
:102E700001208DF801008DF802008DF803006846EE
:102E8000FFF7ECFA08BD000008B501210420FFF7A8
:102E900055FB00208DF803002020ADF80000032032
:102EA0008DF8020069460248FFF748FA08BD0000A5
:102EB000000801400EB501210420FFF72FFB002080
:102EC000ADF80600ADF802000B480088ADF804002C
:102ED0000A480088ADF8000000208DF80800694617
:102EE0000748FFF739FD20210548FFF72CFD012198
:102EF0000348FFF7A2FC0EBD2E080020300800207A
:102F00000008004010B5FFF7BFFFFFF763FFFFF7B2
:102F1000D1FF10BD00B587B00121C802FFF70EFB3D
:102F20000020ADF81600ADF81200ADF8100040F624
:102F30000F60ADF8140000208DF8180004A91448A3
:102F4000FFF70AFD6020ADF800000120ADF8020097
:102F50000020ADF80400ADF80800ADF80A004FF409
:102F60008070ADF80C004000ADF80E0040F2077024
:102F7000ADF8060069460648FFF78CFC08210448B6
:102F8000FFF7D8FC01210248FFF757FC07B000BD4E
:102F9000002C014010B586B0044601210420FFF743
:102FA000CDFA01218803FFF7C9FA18208DF8170020
:102FB0004FF40070ADF8140003208DF8160005A939
:102FC0001348FFF7BBF904208DF817000002ADF895
:102FD000140003208DF8160005A90D48FFF7AEF97F
:102FE00001940020ADF810000C20ADF80E00002078
:102FF000ADF80C00ADF80A00ADF8080001A90548CD
:10300000FFF708FD01210348FFF7F8FC06B010BDEB
:10301000000801400038014070B5002041490860B7
:1030200000250AE0404850F825103E480068FDF7AA
:103030009BF83C490860681C85B2072DF2DB002430
:103040006BE0042C1BDA384850F82410354800682F
:10305000FDF7DCF806463549FDF710F9344941F82B
:1030600024000A4652F824102F4A52F82400FDF793
:103070004DFA50D200202F4941F824004BE0B4F51E
:103080007F7F1BDD284850F8241026480068FDF794
:10309000BDF806462549FDF7F1F8254941F8240019
:1030A0000A4652F82410204A52F82400FDF72EFA5E
:1030B00031D200201F4941F824002CE0201F1A4A79
:1030C00052F8201017480068FDF7A0F80646164A87
:1030D000E01C52F820103046FDF746F81149086010
:1030E000114850F824100F480068FDF78FF8064685
:1030F0000E49FDF7C3F80E4941F824000A4652F87C
:103100002410094A52F82400FDF700FA03D20020E7
:10311000084941F82400601C84B2B4F5806F90DB4C
:1031200070BD000024000020885800200000C0402E
:1031300098780020886800204FF4E130FFF72AFFDC
:10314000FFF742FEFFF7E6FEFFF708FEEA48FFF74B
:10315000D3FD01220221E948FFF79CF8FFF7DEFCCE
:10316000FFF702FDFFF7CEFEE548FFF749FEFFF748
:1031700077FE01220221E348FFF78CF80121E248A3
:10318000FFF767FBB6E1E14800780128FAD100219A
:10319000DD48FFF75EFB4FF0000A35E0D64931F815
:1031A0002A1088B2FDF728F98146D949FDF766F85B
:1031B0008046FDF74CF906464FF06632D54BFDF7D9
:1031C0009BF80446FDF786F9D34941F82A00CA491D
:1031D00051F82A10080CFDF70FF98146CC49FDF78C
:1031E0004DF88046FDF733F906464FF06632C94B7D
:1031F000FDF782F80446FDF76DF9C84941F82A0049
:103200000AF101001FFA80FABAF5806FC6DBC44AE2
:103210004FF48061C048FEF753F9C24A4FF4806111
:10322000BE48FEF74DF94FF0000A1CE0BA4951F8CC
:103230002A00BB490968FCF7E9FF4FEA4A01BA4A8C
:1032400042F82100B54951F82A00B6490968FCF74F
:10325000DDFF4FEA4A01491CB34A42F821000AF156
:1032600001001FFA80FABAF5806FDFDB4FF480614E
:10327000AE48FDF713FB01230022AB49AB48FDF735
:103280009FFA4FF48062AA49A748FEF709F84FF069
:10329000000A09E0A64850F82A00A64941F82A0089
:1032A0000AF101001FFA80FABAF5806FF2DBFFF72E
:1032B000B3FE4FF0000A19E09E4951F82A009E49DA
:1032C000FDF724F903D200209A4941F82A009849D1
:1032D00051F82A009849FDF719F903D200209449C2
:1032E00041F82A000AF101001FFA80FABAF5806F4E
:1032F000E2DB924B924A4FF480618E48FEF748F829
:103300008E480068B0F5007F19D98C480068C0F578
:1033100080608A49086008460068FDF772F88046B8
:103320000022884BFCF7E8FF06460022864BFCF79C
:10333000E3FF0446FDF7CEF88449086012E07F48B9
:103340000068FDF75EF806460022814BFCF7D4FFCB
:10335000044600227C4BFCF7CFFF8046FDF7BAF80D
:103360007A490860794800687A497B4A126841F8CE
:10337000220079480068401C7749086008460068C8
:1033800002287CD1714A084601687248FEF798F815
:1033900072496E480068FDF7C3F805D370496B4861
:1033A0000068FDF7B3F802D200206849086067485A
:1033B0000068FDF74CF804466A4A6B4BFDF75AF873
:1033C0000CD262480068FDF742F80446654A674B34
:1033D000FDF768F802D200205C4908605B4800688D
:1033E000FDF735F80446624A624BFCF785FF064656
:1033F000FDF770F8554908605F4954480068FCF7CC
:103400000BFF0446FDF70AF85C49086000205249AA
:1034100008605A480068002803DA112058490870EB
:1034200002E00A20564908700A2055494870887001
:10343000C8700871487151490868002801DB0146CD
:1034400000E041424D4A11601046006842F210719E
:1034500088420ADD1046006890FBF1F00A2190FBDB
:10346000F1F201FB12004649487044480068B0F58B
:103470007A7F0EDD414800684FF47A7100E02AE05F
:1034800090FBF1F00A2190FBF1F201FB12003C49A4
:1034900088703A480068642190FBF1F00A2190FBA3
:1034A000F1F201FB12003649C870344800680A2165
:1034B00090FBF1F090FBF1F201FB12003049087132
:1034C0002E4800680A2190FBF1F201FB12002C4902
:1034D0004871FFF749FB00200C49087001210A4898
:1034E000FFF7ABF901212748FFF7A7F901210648AB
:1034F000FFF7AFF947E60000880800200800024007
:103500002C00002044040240002C01402A0000202E
:1035100000F07F4566660A40881800208828002051
:103520000000002004000020883800208878002057
:1035300088580020886800200000A0420C0000206D
:10354000080000200000F0BF0040BF3F1000002036
:103550000000F03F1800002014000020000020426E
:10356000000020C2B81E85EB51B8BE3F51B8BEBFA7
:10357000CDCCCCCCCCCC0C400000C84220000020EC
:103580006A0800200008004070B50546FDF728F8DD
:10359000044620F00040C0F1FF40C00F08D025F0E5
:1035A0000040C0F1FF40C00F04BF0120FFF7B0FA98
:1035B000204670BD08000010100000021800001224
:1035C0002000000428000014300000063800001617
:1035D00040000008480000185000000A5800001A77
:1035E0006000000C6800001C7000000E7800001ED7
:1035F00080000008880040109000400298004012AF
:10360000A0004004A8004014B0004006B8004016D6
:10361000C0004008C8004018D000400AD800401A36
:10362000E000400CE800401CF000400EF800401E96
:1036300000010008080180101001800218018012AA
:103640002001800428018014300180063801801692
:1036500040018008480180185001800A5801801AF2
:103660006001800C6801801C7001800E7801801E52
:10367000800140088801C0109001C0029801C0126A
:10368000A001C004A801C014B001C006B801C01652
:10369000C001C008C801C018D001C00AD801C01AB2
:1036A000E001C00CE801C01CF001C00EF801C01E12
:1036B00000020008080200111002000318020013A3
:1036C000200200052802001530020007380200170A
:1036D00040020009480200195002000B5802001B6A
:1036E0006002000D6802001D7002000F7802001FCA
:1036F0008002800888024011900240039802401323
:10370000A0024005A8024015B0024007B8024017C9
:10371000C0024009C8024019D002400BD802401B29
:10372000E002400DE802401DF002400FF802401F89
:10373000000340080803801110038003180380135E
:103740002003800528038015300380073803801785
:1037500040038009480380195003800B5803801BE5
:103760006003800D6803801D7003800F7803801F45
:103770008003C0088803C0119003C0039803C013DE
:10378000A003C005A803C015B003C007B803C01745
:10379000C003C009C803C019D003C00BD803C01BA5
:1037A000E003C00DE803C01DF003C00FF803C01F05
:1037B0000004001008040810100400111804081276
:1037C00020040810280408143004080638040816D9
:1037D00040040808480408185004080A5804081A45
:1037E0006004080C6804081C7004080E7804081EA5
:1037F00080040018880448109004001998044812A6
:10380000A0040818A8044814B0044806B8044816D0
:10381000C0044808C8044818D004480AD804481A04
:10382000E004480CE804481CF004480EF804481E64
:103830000005401008058810100540111805881271
:103840002005481028058814300588063805881694
:1038500040058808480588185005880A5805881AC0
:103860006005880C6805881C7005880E7805881E20
:10387000800540188805C810900540199805C812A1
:10388000A0054818A805C814B005C806B805C8168C
:10389000C005C808C805C818D005C80AD805C81A80
:1038A000E005C80CE805C81CF005C80EF805C81EE0
:1038B000000680100806081110068011180608136B
:1038C000200688102806081530060807380608174D
:1038D00040060809480608195006080B5806081B38
:1038E0006006080D6806081D7006080F7806081F98
:1038F000800680188806481190068019980648139B
:10390000A0068818A8064815B0064807B806481744
:10391000C0064809C8064819D006480BD806481BF7
:10392000E006480DE806481DF006480FF806481F57
:103930000007C010080788111007C0111807881366
:103940002007C81028078815300788073807881708
:1039500040078809480788195007880B5807881BB3
:103960006007880D6807881D7007880F7807881F13
:103970008007C0188807C8119007C0199807C81396
:10398000A007C818A807C815B007C807B807C81700
:10399000C007C809C807C819D007C80BD807C81B73
:1039A000E007C80DE807C81DF007C80FF807C81FD3
:1039B00008081010100840081808101220080011FC
:1039C00028081014300880113808101648081018FC
:1039D0005008100A5808101A6008100C6808101CCB
:1039E0007008100E7808101E8008000A8808501011
:1039F0009008000B98085012A008080AA808501454
:103A0000B008080BB8085016C008100AC8085018AB
:103A1000D008500AD808501AE008500CE808501C8A
:103A2000F008500EF808501E08099010100980097F
:103A300018099012200900192809901430098019DA
:103A4000380990164009000B480990185009900A4F
:103A50005809901A6009900C6809901C7009900E22
:103A60007809901E8009400A8809D0109009400BFF
:103A70009809D012A009480AA809D014B009480B27
:103A8000B809D016C009500AC809D018D009D00A00
:103A9000D809D01AE009D00CE809D01CF009D00EE2
:103AA000F809D01E080A1011180A1013200A401134
:103AB000280A1015300AC011380A1017480A1019C0
:103AC000500A100B580A101B600A100D680A101DCE
:103AD000700A100F780A101F880A5011900A800B84
:103AE000980A5013A00A5011A80A5015B00A880B62
:103AF000B80A5017C00A800BC80A5019D00A500BD8
:103B0000D80A501BE00A500DE80A501DF00A500F69
:103B1000F80A501F080B9011180B9013200B401936
:103B2000280B9015300BC019380B9017480B9019C3
:103B3000500B900B580B901B600B900D680B901D59
:103B4000700B900F780B901F880BD011900BC00B4F
:103B5000980BD013A00B5019A80BD015B00BC80BA5
:103B6000B80BD017C80BD019D80BD01BE00BD00D59
:103B7000E80BD01DF00BD00FF80BD01F000C00127B
:103B8000080C1810100C0013180C1812200C081236
:103B9000280C1814300C0813380C1816400C10128E
:103BA000480C1818500C1013580C181A600C1812E6
:103BB000680C181C700C180E780C181E800C001A5B
:103BC000880C5810900C001B980C5812A00C081A66
:103BD000A80C5814B00C081BB80C5816C00C101ABE
:103BE000C80C5818D00C101BD80C581AE00C181A16
:103BF000E80C581CF00C580EF80C581E000D401222
:103C0000080D9810100D4013180D9812200D481231
:103C1000280D9814300D4813380D9816400D501289
:103C2000480D9818500D5013580D981A600D5812E1
:103C3000680D981C700D980E780D981E800D401A16
:103C4000880DD810900D401B980DD812A00D481A61
:103C5000A80DD814B00D481BB80DD816C00D501AB9
:103C6000C80DD818D00D501BD80DD81AE00D581A11
:103C7000E80DD81CF00DD80EF80DD81E000E8012DD
:103C8000080E1811100E8013180E1813200E88122B
:103C9000280E1815300E8813380E1817400E901283
:103CA000480E1819500E9013580E181B600E9812DB
:103CB000680E181D700E180F780E181F800E801ACF
:103CC000880E5811900E801B980E5813A00E881A5B
:103CD000A80E5815B00E881BB80E5817C00E901AB3
:103CE000C80E5819D00E901BD80E581BE00E981A0B
:103CF000E80E581DF00E580FF80E581F000FC01296
:103D0000080F9811100FC013180F9813200FC81226
:103D1000280F9815300FC813380F9817400FD0127E
:103D2000480F9819500FD013580F981B600FD812D6
:103D3000680F981D700F980F780F981F800FC01A8A
:103D4000880FD811900FC01B980FD813A00FC81A56
:103D5000A80FD815B00FC81BB80FD817C00FD01AAE
:103D6000C80FD819D00FD01BD80FD81BE00FD81A06
:103D7000E80FD81DF00FD81BF80FD81F081020101F
:103D80001010401018102012281020143010881025
:103D90003810201640100011481020185010401103
:103DA0005810201A601008126810201C7010881219
:103DB0007810201E801000128810081290104012F7
:103DC00098106012A0102012A8106014B010601299
:103DD000B8106016C0100013C8106018D01040133F
:103DE000D810601AE0101812E810601CF010981239
:103DF000F810601E08112012101140111811A012A5
:103E0000201108182811A014301188183811A01694
:103E10004811A0185811A01A6011081A6811A01CA6
:103E20007011881A7811A01E8011101288111812B2
:103E3000901150129811E012A0111818A811E01456
:103E4000B0119818B811E016C0111013C811E0187D
:103E5000D0115013D811E01AE011181AE811E01C23
:103E6000F011981AF811E01E001200180812081834
:103E70001012401818122013201220182812201592
:103E800030126018381220174012001948122019F9
:103E9000501240195812201B601220196812201D60
:103EA0007012C8127812201F8012001A8812081A85
:103EB0009012401A98126013A012201AA8126015CE
:103EC000B012601AB8126017C012001BC812601935
:103ED000D012401BD812601BE012201BE812601D9C
:103EE000F012601BF812601F001310180813181846
:103EF000101350181813A013201348182813A015D6
:103F00003013C8183813A017401310194813A019FC
:103F1000501350195813A01B6013481A6813A01DA2
:103F20007013C81A7813A01F8013101A8813181A58
:103F30009013501A9813E013A0135818A813E01503
:103F4000B013D818B813E017C013101BC813E0192A
:103F5000D013501BD813E01BE013581AE813E01DD0
:103F6000F013D81AF813E01F0814201410140015C9
:103F7000181420153014081538142816401400158C
:103F800048142818501410155814281A60142015B5
:103F90006814281C701418157814281E8014001C2E
:103FA0008814201C9014001D9814201DA014081CB7
:103FB000A814281CB014081DB8146816C014101CCE
:103FC000C8146818D014101DD814681AE014181CEE
:103FD000E814681CF014181DF814681E0815201544
:103FE0001015401518156015201528182815281CBF
:103FF000301548153815A8164815A8185815A81AC8
:104000006015281A6815A81C7015A81A7815A81E1E
:104010008015401C8815601C9015401D9815601D6A
:10402000A015481CA815681CB015481DB815E81641
:10403000C015501CC815E818D015501DD815E81A21
:10404000E015581CE815E81CF015581DF815E81E79
:104050000016001C0816081C1016401C1816481CD8
:104060002016201C2816281C3016601C381628170D
:104070004016001D481628195016401D5816281BBA
:104080006016201D6816281D7016601D7816281FE2
:104090008016801C8816A01C9016801D9816A01DE6
:1040A000A016881CA816A81CB016881DB81668177C
:1040B000C016901CC8166819D016901DD816681B1B
:1040C000E016981CE816681DF016981DF816681F73
:1040D0000017101C0817181C1017501C1817581C14
:1040E000201768182817681C3017E8183817A81701
:1040F0004017101D4817A8195017501D5817A81B16
:104100006017681A6817A81D7017E81A7817A81F93
:104110008017C01C8817E01C9017C01D9817E01D61
:10412000A017C81CA817E81CB017C81DB817E817B7
:10413000C017D01CC817E819D017D01DD817E81B16
:10414000E017D81CE817E81DF017D81DF817E81F6E
:1041500018186018301848183818601C5818301A89
:104160006818301C7018181A7818301E8018001A39
:104170008818081A9018001B98186019A018201A9F
:10418000A818281AB018201BB818601DC018101ADB
:10419000C818181AD018101BD818701AE018301A3E
:1041A000E818701CF018581AF818701E0819201911
:1041B0001819601A2819081D301988193819881D0E
:1041C0004819201B5819B01A6019081B6819B01C2F
:1041D0007019881B7819B01E8019401A8819481A5E
:1041E0009019401B9819601BA019601AA819181D76
:1041F000B019601BB819981DC019501AC819581A5F
:10420000D019501BD819F01AE019181BE819F01C26
:10421000F019981BF819F01E381A701C581A301B28
:10422000681A301D701A181B781A301F901AC01A9D
:10423000981AC81AB01AE01AB81AE81AC01A801BDD
:10424000C81A881BD01AC01BD81A701BE01AA01BF2
:10425000E81A701DF01AE01BF81A701F281B481D81
:10426000381BC81D481B601B581BB01B681BB01DAA
:10427000701BC81B781BB01F901BC01B981BC81B52
:10428000A81B581DB01BE01BB81BD81DD81BF01B6A
:10429000E81BF01DF81BF01F081C201C181C301C0C
:1042A000381C681C481C601C581C701C781C381E6C
:1042B000801C001E881C201E901C001F981C201FA4
:1042C000A01C081EA81C281EB01C081FB81C281FF4
:1042D000C01C101EC81C301ED01C101FD81C301F44
:1042E000E01C181EE81C381EF01C181FF81C781E55
:1042F000081D201D181D301D381DA81D481D601DDE
:10430000581D701D681D281F781DB81E801D401E79
:10431000881D601E901D401F981D601FA01D481E17
:10432000A81D681EB01D481FB81D681FC01D501E67
:10433000C81D701ED01D501FD81D701FE01D581EB7
:10434000E81D781EF01D581FF81DF81E081E201EBF
:10435000181E301E481E601E581E701E781E381F04
:10436000881EA01E901E801F981EA01FB01E881FB2
:10437000B81EA81FC01E801FC81E881FD01E901FF9
:10438000D81EB01FE01EA01FE81EA81FF01E981F19
:10439000F81E781F081F201F181F301F481F601F9E
:1043A000581F701F781FB81F881FA01F901FC01FA5
:1043B000981FE01FB01FC81FB81FE81FC81FE01FCD
:1043C000D81FF01F08000002100040001800400233
:1043D00020008000280080023000C0003800C002A9
:1043E0004000000148000003500040015800400315
:1043F00060008001680080037000C0017800C00385
:104400008000000288000802900000039800480223
:10441000A0000802A8008802B000C800B800C802C6
:10442000C0000801C8000803D0004801D8004803B4
:10443000E0008801E8008803F000C801F800C80324
:104440000801100210014001180150022001000370
:1044500028019002300148013801D00248011003C0
:104460005801500360019001680190037001D00170
:104470007801D003800140028801180290014003B6
:1044800098015802A0014802A8019802B00148030F
:10449000B801D802C0015002C8011803D00150036E
:1044A000D8015803E0015802E8019803F0015803CD
:1044B000F801D8030802200210024002180260022C
:1044C0002802A002300260023802E002400200032B
:1044D0004802200350024003580260036002200398
:1044E0006802A003700260037802E0038802A00261
:1044F000900280039802A003B0028803B802E80289
:10450000C0028003C8022803D0029003D8026803C7
:10451000E002A003E802A803F0029803F802E8030F
:1045200008032003100340031803600328038803D3
:104530003003600338039803480360035803700393
:104540006803B0037803F0038803A0039003C0035B
:104550009803E003B003C803B803E803C803E0030B
:10456000D803F00308004000180048001000400085
:10457000280050002000400038005800300048005B
:1045800058006800480060006800700008000010D3
:104590001000002018000030200000022800001247
:1045A00030000022380000324000000448000014AF
:1045B0005000002458000034600000066800001617
:1045C000700000267800003680000008880000187F
:1045D0009000002898000038A000000AA800001AE7
:1045E000B000002AB800003AC000000CC800001C4F
:1045F000D000002CD800003CE000000EE800001EB7
:10460000F000002EF800003E0001000408014010F8
:1046100010014020180140302001400228014012C2
:10462000300140223801403240014004480140142A
:104630005001402458014034600140066801401692
:1046400070014026780140368001400888014018FA
:104650009001402898014038A001400AA801401A62
:10466000B001402AB801403AC001400CC801401CCA
:10467000D001402CD801403CE001400EE801401E32
:10468000F001402EF801403E0002000808028010B0
:10469000100280201802803020028002280280123E
:1046A00030028022380280324002800448028014A6
:1046B000500280245802803460028006680280160E
:1046C0007002802678028036800280088802801876
:1046D0009002802898028038A002800AA802801ADE
:1046E000B002802AB802803AC002800CC802801C46
:1046F000D002802CD802803CE002800EE802801EAE
:10470000F002802EF802803E0003000C0803C01067
:104710001003C0201803C0302003800C2803C012EF
:104720003003C0223803C0324003C0044803C01421
:104730005003C0245803C0346003C0066803C01689
:104740007003C0267803C0368003C0088803C018F1
:104750009003C0289803C038A003C00AA803C01A59
:10476000B003C02AB803C03AC003C00CC803C01CC1
:10477000D003C02CD803C03CE003C00EE803C01E29
:10478000F003C02EF803C03E0804001110040021FD
:10479000180400312004000C280400133004002306
:1047A0003804003340040005480400155004002577
:1047B00058040035600400076804001770040027DF
:1047C0007804003780040009880400199004002947
:1047D00098040039A004000BA804001BB004002BAF
:1047E000B804003BC004000DC804001DD004002D17
:1047F000D804003DE004000FE804001FF004002F7F
:10480000F804003F0805401110054021180540310B
:104810002005000D2805401330054023380540339E
:1048200048054015500540255805403560054007AE
:104830006805401770054027780540378005400916
:10484000880540199005402998054039A005400B7E
:10485000A805401BB005402BB805403BC005400DE6
:10486000C805401DD005402DD805403DE005400F4E
:10487000E805401FF005402FF805403F00064008BE
:104880000806801110068021180680312006C00815
:1048900028068013300680233806803340064009FE
:1048A000480680155006802558068035600680072A
:1048B0006806801770068027780680378006800992
:1048C000880680199006802998068039A006800BFA
:1048D000A806801BB006802BB806803BC006800D62
:1048E000C806801DD006802DD806803DE006800FCA
:1048F000E806801FF006802FF806803F0007400C76
:104900000807C0111007C0211807C0312007C00CCC
:104910002807C0133007C0233807C0334007400DB5
:104920004807C0155007C0255807C0356007C007A5
:104930006807C0177007C0277807C0378007C0090D
:104940008807C0199007C0299807C039A007C00B75
:10495000A807C01BB007C02BB807C03BC007C00DDD
:10496000C807C01DD007C02DD807C03DE007C00F45
:10497000E807C01FF007C02FF807C03F000800106D
:1049800008080810100808201808083020088010AF
:104990002808081230080822380808324008001198
:1049A0004808081450080824580808346008801182
:1049B0006808081670080826780808368008081065
:1049C000880808189008082898080838A008080AD5
:1049D000A808081AB008082AB808083AC008080C3D
:1049E000C808081CD008082CD808083CE008080EA5
:1049F000E808081EF008082EF808083E0009001410
:104A00000809481010094820180948302009801466
:104A1000280948123009482238094832400900154F
:104A20004809481450094824580948346009801539
:104A3000680948167009482678094836800908141C
:104A4000880948189009482898094838A009480A50
:104A5000A809481AB009482AB809483AC009480CB8
:104A6000C809481CD009482CD809483CE009480E20
:104A7000E809481EF009482EF809483E000A0018C7
:104A8000080A8810100A8820180A8830200A80181E
:104A9000280A8812300A8822380A8832400A001907
:104AA000480A8814500A8824580A8834600A8019F1
:104AB000680A8816700A8826780A8836800A0818D4
:104AC000880A8818900A8828980A8838A00A8818BE
:104AD000A80A881AB00A882AB80A883AC00A880C34
:104AE000C80A881CD00A882CD80A883CE00A880E9C
:104AF000E80A881EF00A882EF80A883E000B001C7F
:104B0000080BC810100BC820180BC830200B801CD5
:104B1000280BC812300BC822380BC832400B001DBE
:104B2000480BC814500BC824580BC834600B801DA8
:104B3000680BC816700BC826780BC836800B081C8B
:104B4000880BC818900BC828980BC838A00B881C75
:104B5000A80BC81AB00BC82AB80BC83AC00BC80CAF
:104B6000C80BC81CD00BC82CD80BC83CE00BC80E17
:104B7000E80BC81EF00BC82EF80BC83E000C401006
:104B8000080C0811100C0821180C0831200CC0105A
:104B9000280C0813300C0823380C0833400C401143
:104BA000480C0815500C0825580C0835600CC0112D
:104BB000680C0817700C0827780C0837800C481010
:104BC000880C0819900C0829980C0839A00CC810FA
:104BD000A80C081BB00C082BB80C083BC00C080D27
:104BE000C80C081DD00C082DD80C083DE00C080F8F
:104BF000E80C081FF00C082FF80C083F000D4014BB
:104C0000080D4811100D4821180D4831200DC01411
:104C1000280D4813300D4823380D4833400D4015FA
:104C2000480D4815500D4825580D4835600DC015E4
:104C3000680D4817700D4827780D4837800D4814C7
:104C4000880D4819900D4829980D4839A00DC814B1
:104C5000A80D481BB00D482BB80D483BC00D48159A
:104C6000C80D481DD00D482DD80D483DE00D480F0A
:104C7000E80D481FF00D482FF80D483F000E401872
:104C8000080E8811100E8821180E8831200EC018C9
:104C9000280E8813300E8823380E8833400E4019B2
:104CA000480E8815500E8825580E8835600EC0199C
:104CB000680E8817700E8827780E8837800E48187F
:104CC000880E8819900E8829980E8839A00EC81869
:104CD000A80E881BB00E882BB80E883BC00E481952
:104CE000C80E881DD00E882DD80E883DE00E880F86
:104CF000E80E881FF00E882FF80E883F000F401C2A
:104D0000080FC811100FC821180FC831200FC01C80
:104D1000280FC813300FC823380FC833400F401D69
:104D2000480FC815500FC825580FC835600FC01D53
:104D3000680FC817700FC827780FC837800F481C36
:104D4000880FC819900FC829980FC839A00FC81C20
:104D5000A80FC81BB00FC82BB80FC83BC00F481D09
:104D6000C80FC81DD00FC82DD80FC83DE00FC81DF3
:104D7000E80FC81FF00FC82FF80FC83F0010002021
:104D80000810101010101020181010302010802063
:104D9000281010123010102238101032401000214C
:104DA0004810101450101024581010346010802136
:104DB0006810101670101026781010368010082019
:104DC000881010189010102898101038A010882003
:104DD000A810101AB010102AB810103AC0100821EC
:104DE000C810101CD010102CD810103CE0108821D6
:104DF000E810101EF010102EF810103E00110024C4
:104E00000811102410115020181150302011802446
:104E10002811501230115022381150324011002503
:104E200048115014501150245811503460118025ED
:104E300068115016701150267811503680110824D0
:104E4000881150189011502898115038A0118824BA
:104E5000A811501AB011502AB811503AC0110825A3
:104E6000C811501CD011502CD811503CE01188258D
:104E7000E811501EF011502EF811503E001200287B
:104E8000081210281012902018129030201280283A
:104E900028129012301290223812903240120029BB
:104EA00048129014501290245812903460128029A5
:104EB0006812901670129026781290368012082888
:104EC000881290189012902898129038A012882872
:104ED000A812901AB012902AB812903AC01208295B
:104EE000C812901CD012902CD812903CE012882945
:104EF000E812901EF012902EF812903E0013002C33
:104F00000813102C1013D0201813D0302013802C2D
:104F10002813902C3013D0223813D0324013002D98
:104F20004813D0145013D0245813D0346013802D5C
:104F30006813D0167013D0267813D0368013082C3F
:104F40008813D0189013D0289813D038A013882C29
:104F5000A813D01AB013D02AB813D03AC013082D12
:104F6000C813D01CD013D02CD813D03CE013882DFC
:104F7000E813D01EF013D02EF813D03E00144020BA
:104F80000814502010141021181410312014C020BF
:104F90002814D0203014102338141033401440212A
:104FA0004814101550141025581410356014C021E1
:104FB00068141017701410277814103780144820C4
:104FC000881410199014102998141039A014C820AE
:104FD000A814101BB014102BB814103BC014482197
:104FE000C814101DD014102DD814103DE014C82181
:104FF000E814101FF014102FF814103F001540246F
:105000000815502410155021181550312015C024B2
:105010002815D0243015502338155033401540251D
:105020004815501550155025581550356015C02598
:10503000681550177015502778155037801548247B
:10504000881550199015502998155039A015C82465
:10505000A815501BB015502BB815503BC01548254E
:10506000C815501DD015502DD815503DE015C82538
:10507000E815501FF015502FF815503F0016402826
:105080000816502810169021181690312016C028A6
:105090002816D02830169023381690334016402911
:1050A0004816502950169025581690356016C0297C
:1050B0006816901770169027781690378016482833
:1050C000881690199016902998169039A016C8281D
:1050D000A816901BB016902BB816903BC016482906
:1050E000C816901DD016902DD816903DE016C829F0
:1050F000E816901FF016902FF816903F0017402CDE
:105100000817502C1017D0211817D0312017C02C99
:105110002817D02C3017D0233817D0334017402D04
:105120004817502D5017D0255817D0356017C02D6F
:105130006817D0177017D0277817D0378017482CEA
:105140008817D0199017D0299817D039A017C82CD4
:10515000A817D01BB017D02BB817D03BC017482DBD
:10516000C817D01DD017D02DD817D03DE017C82DA7
:10517000E817D01FF017D02FF817D03F00180030D5
:1051800008181030101818201818183020188030FF
:10519000281890303018182238181832401800316A
:1051A00048181031501818245818183460188031D5
:1051B000681890317018182678181836801808303A
:1051C000881818309018182898181838A01888309F
:1051D000A818181AB018182AB818183AC0180831A0
:1051E000C818181CD018182CD818183CE01888318A
:1051F000E818181EF018182EF818183E0019003478
:1052000008191034101958201819583020198034F2
:10521000281990343019582238195832401900355D
:1052200048191035501958245819583460198035C8
:10523000681990357019582678195836801908342D
:10524000881918349019582898195838A019883492
:10525000A819581AB019582AB819583AC019083557
:10526000C819581CD019582CD819583CE019883541
:10527000E819581EF019582EF819583E001A00382F
:10528000081A1038101A9820181A9830201A8038E6
:10529000281A9038301A9822381A9832401A003951
:1052A000481A1039501A9824581A9834601A8039BC
:1052B000681A9039701A9826781A9836801A083821
:1052C000881A1838901A9828981A9838A01A883886
:1052D000A81A9838B01A982AB81A983AC01A0839F1
:1052E000C81A981CD01A982CD81A983CE01A8839F9
:1052F000E81A981EF01A982EF81A983E001B003CE7
:10530000081B103C101BD820181BD830201B803CD9
:10531000281B903C301BD822381BD832401B003D44
:10532000481B103D501BD824581BD834601B803DAF
:10533000681B903D701BD826781BD836801B083C14
:10534000881B183C901BD828981BD838A01B883C79
:10535000A81B983CB01BD82AB81BD83AC01B083DE4
:10536000C81BD81CD01BD82CD81BD83CE01B883DB0
:10537000E81BD81EF01BD82EF81BD83E001C40306E
:10538000081C5030101C1821181C1831201CC0306B
:10539000281CD030301C1823381C1833401C4031D6
:1053A000481C5031501C1825581C1835601CC03141
:1053B000681CD031701C1827781C1837801C4830A6
:1053C000881C5830901C1829981C1839A01CC8300B
:1053D000A81CD830B01C182BB81C183BC01C483176
:1053E000C81C181DD01C182DD81C183DE01CC83135
:1053F000E81C181FF01C182FF81C183F001D403423
:10540000081D5034101D5821181D5831201DC0345E
:10541000281DD034301D5823381D5833401D4035C9
:10542000481D5035501D5825581D5835601DC03534
:10543000681DD035701D5827781D5837801D483499
:10544000881D5834901D5829981D5839A01DC834FE
:10545000A81DD834B01D582BB81D583BC01D483569
:10546000C81D5835D01D582DD81D583DE01DC835D4
:10547000E81D581FF01D582FF81D583F001E4038DA
:10548000081E5038101E9821181E9831201EC03852
:10549000281ED038301E9823381E9833401E4039BD
:1054A000481E5039501E9825581E9835601EC03928
:1054B000681ED039701E9827781E9837801E48388D
:1054C000881E5838901E9829981E9839A01EC838F2
:1054D000A81ED838B01E982BB81E983BC01E48395D
:1054E000C81E5839D01E982DD81E983DE01EC839C8
:1054F000E81E981FF01E982FF81E983F001F403C92
:10550000081F503C101FD821181FD831201FC03C45
:10551000281FD03C301FD823381FD833401F403DB0
:10552000481F503D501FD825581FD835601FC03D1B
:10553000681FD03D701FD827781FD837801F483C80
:10554000881F583C901FD829981FD839A01FC83CE5
:10555000A81FD83CB01FD82BB81FD83BC01F483D50
:10556000C81F583DD01FD82DD81FD83DE01FC83DBB
:10557000E81FD83DF01FD82FF81FD83F0820802003
:1055800010202020182020302820802830202022A1
:1055900038202032402000214820C02050202024E4
:1055A00058202034602010246820C0287020202635
:1055B000782020368820803090202028982020389D
:1055C000A0200830A8208038B020202AB820203A17
:1055D000C0200821C820C030D020202CD820203C5A
:1055E000E0200831E820C038F020202EF820203EAE
:1055F000002100240821802110211024182160306E
:105600002021202428218029302160223821603265
:10561000402100254821C0215021602458216034B8
:10562000602150246821C0297021602678216036CD
:1056300080210824882180319021602898216038B9
:10564000A0210834A8218039B021602AB821603A0D
:10565000C0210825C821C031D021602CD821603C50
:10566000E0210835E821C039F021602EF821603EA4
:105670000022003008228030102208301822A0308A
:1056800020221030282288283022A0223822A0325E
:10569000402240304822C0305022A0245822A0345A
:1056A000602250306822C8287022A0267822A036B6
:1056B00080222030882288309022A0289822A0388A
:1056C000A0221830A8228838B022A02AB822A03AF6
:1056D000C0226030C822C830D022A02CD822A03CE2
:1056E000E0221831E822C838F022A02EF822A03E8D
:1056F0000023003108238031102308311823E030C3
:105700002023103128238829302318313823E03210
:10571000402340314823C0315023E0245823E03453
:10572000602350316823C8297023E0267823E036AF
:1057300080231824882388319023E0289823E03898
:10574000A0231834A8238839B023E02AB823E03AEC
:10575000C0231825C823C831D023E02CD823E03C2F
:10576000E0231835E823C839F023E02EF823E03E83
:105770000824802410242024182420312824802C5C
:105780003024103138242033402400254824C024FC
:105790005024202558242035602410256824C02C4E
:1057A00070242027782420378824803490242029CE
:1057B00098242039A0244830A824803CB024202BF1
:1057C000B824203BC0240825C824C034D024202D70
:1057D000D824203DE0244831E824C03CF024202F88
:1057E000F824203F08258025102520251825603124
:1057F0002825802D30255031382560334825C02597
:1058000050256025582560356825C02D70256027F6
:10581000782560378825803590256029982560395E
:10582000A0254834A825803DB025602BB825603BD5
:10583000C825C035D025602DD825603DE0254835E8
:10584000E825C03DF025602FF825603F0026003494
:1058500008268034102608341826A031202610345B
:105860002826882C302618343826A0334026403489
:105870004826C034502648345826A0356026503477
:105880006826C82C7026A0277826A03780262034CA
:10589000882688349026A0299826A039A02658303A
:1058A000A826883CB026A02BB826A03BC026603492
:1058B000C826C834D026A02DD826A03DE0265831D1
:1058C000E826C83CF026A02FF826A03F0027003588
:1058D00008278035102708351827E0312027103594
:1058E0002827882D302718353827E03340274035C2
:1058F0004827C035502748355827E03560275035B0
:105900006827C82D7027E0277827E03780272035C3
:10591000882788359027E0299827E039A027583430
:10592000A827883DB027E02BB827E03BC02760358B
:10593000C827C835D027E02DD827E03DE0275835C7
:10594000E827C83DF027E02FF827E03F0828202867
:1059500010288028182828302828902830288828BF
:10596000382828324028002C4828202C5028802C09
:10597000582828346028082C6828D0287028882CBB
:10598000782828368828903098282838A028283069
:10599000A8289038B028282AB828283AC028102CDF
:1059A000C828D030D028282CD828283CE028182C0B
:1059B000E828D038F028282EF828283E0029002C86
:1059C0000829082C1029102C182968302029202C8F
:1059D000282990293029D030382968324029402C94
:1059E0004829602C5029C02C582968346029482C3B
:1059F0006829D0297029C82C782968368029802CFC
:105A0000882990319029282C98296838A029283491
:105A1000A8299039B029682AB829683AC029502C99
:105A2000C829D031D029682CD829683CE029582CC5
:105A3000E829D039F029682EF829683E002A003874
:105A4000082A2038102A8038182AA830202A083836
:105A5000282A2838302A8838382AA832402A003C98
:105A6000482A203C502A803C582AA834602A083C06
:105A7000682A283C702A883C782AA836802A103860
:105A8000882A9830902A9038982AA838A02A18385E
:105A9000A82A9838B02A9838B82AA83AC02A103CC0
:105AA000C82AD830D02AA82CD82AA83CE02A183CEA
:105AB000E82AD838F02AA82EF82AA83E002B403829
:105AC000082B6038102BC038182BE830202B4838B2
:105AD000282B6838302BC838382BE832402B403C14
