:03000000020026D5
:0C002600787FE4F6D8FD75811702006DAC
:0C019900FD60DBF367B7BFE1FFF7EF008C
:100003000115000114000C08303132333435363712
:0400130038393A3B03
:1000B200E4F587758920758DFD758BFDD28E759857
:1000C200D0C291D29DD2AFD2ACC290E51460FC12E4
:1000D20001878F15EF64017014C29BD29075996FDE
:1000E2003099FDC29975996B3099FDC299C290C23F
:1000F2009DE4F516D3E51694097480948050CC30B3
:1001020098FDC29885991774D02517F51790019913
:0E01120093F5A07F647E00120120051680D6B2
:100187002092FD7F0A7E001201202092F37E007FDD
:02019700012243
:10012000D3EF9400EE940040347901E9D394007445
:1001300080948040217D8EEDD39400748094804023
:10014000127C02ECD394007480948040031C80F3F2
:0D0150001D80E41980D5EF1F70C61E80C30E
:01015D00227F
:0300230002015E79
:10015E00C0E0C0D075D000C007D291309814C298BC
:10016E00309A0FAF99EF64327005751401800375E4
:09017E001400D007D0D0D0E0320B
:100032000200B2E493A3F8E493A34003F68001F232
:1000420008DFF48029E493A3F85407240CC8C333CF
:10005200C4540F4420C8834004F456800146F6DF9E
:10006200E4800B0102040810204080900003E47E2B
:10007200019360BCA3FF543F30E509541FFEE49393
:10008200A360010ECF54C025E060A840B8E493A35A
:10009200FAE493A3F8E493A3C8C582C8CAC583CA85
:1000A200F0A3C8C582C8CAC583CADFE9DEE780BE3D
:0100170000E8
:00000001FF
