:03000000020100FA
:0C010000787FE4F6D8FD758120020147ED
:04030600021301F4E9
:1002DA0075A882758911758CFA758A24120352D20F
:1002EA008CE514451370FAF5137514017F0812038F
:0C02FA003BC28FE4F58DF58BD28E80E5C1
:03000B0002018C63
:10018C00C0E0C0F0C083C082C0D075D000C000C039
:10019C0001C002C003C004C005C006C007758CFABC
:1001AC00758A24E51445136008E5141514700215BE
:1001BC00137B007A007908120230D007D006D005E4
:1001CC00D004D003D002D001D000D0D0D082D083C4
:0501DC00D0F0D0E0327C
:040003007F1EDFFE7F
:0100070022D6
:10033B00AE07AF061EEF600E4390051200035390FD
:07034B00FA12000380EC220E
:0C036500C0F9A4B0999282F88090FFBF0C
:10030A00011101011001011200C181C18008080612
:07031A0006060606060606B2
:1003220053A01FEFC43354E0FFE5A0541F4FF5A0C4
:090332008D8000000053A01F2281
:10035200E4FD7F051203227DFF7F071203227F0443
:0303620002032271
:100230007D01AE80E51114FFF8ED088002C333D8CC
:10024000FCFD7F06120322E5117C0024FFF582EC01
:1002500034FFF5831202AD90036593FD7F0712030F
:0E026000220511E511640970037511018E80ED
:01026E00226D
:1001E10020A0107F0A7E0012026F20A03F30A0FDE8
:1001F1007F002220A1107F0A7E0012026F20A12C15
:1002010030A1FD7F012220B2107F0A7E0012026F11
:1002110020B21930B2FD7F022220B3107F0A7E0086
:0F02210012026F20B30630B3FD7F03227FFF224E
:10000E0075B00F20A0387F0A7E0012026F20A02E3E
:10001E00D2B730A003E4F519C2B7D2B630A003753B
:10002E001901C2B6D2B530A003751902C2B5D2B449
:10003E0030A003751903C2B430A0FDAF192220A160
:10004E00387F0A7E0012026F20A12ED2B730A10394
:10005E00751904C2B7D2B630A103751905C2B6D24E
:10006E00B530A103751906C2B5D2B430A103751906
:10007E0007C2B430A1FDAF192220B2387F0A7E002C
:10008E0012026F20B22ED2B730B203751908C2B762
:10009E00D2B630B203751909C2B6D2B530B20375F5
:1000AE00190AC2B5D2B430B20375190BC2B430B24C
:1000BE00FDAF192220B3387F0A7E0012026F20B3E3
:1000CE002ED2B730B30375190CC2B7D2B630B30304
:1000DE0075190DC2B6D2B530B30375190EC2B5D2AD
:1000EE00B430B30375190FC2B430B3FDAF19227F0C
:0100FE00FF02
:0100FF0022DE
:10026F00D3EF9400EE940040347901E9D3940074F5
:10027F0080948040217D8EEDD394007480948040D3
:10028F00127C02ECD394007480948040031C80F3A2
:0D029F001D80E41980D5EF1F70C61E80C3BE
:0102AC00222F
:10010C000202DAE493A3F8E493A34003F68001F22D
:10011C0008DFF48029E493A3F85407240CC8C333F4
:10012C00C4540F4420C8834004F456800146F6DFC3
:10013C00E4800B0102040810204080900306E47E4A
:10014C00019360BCA3FF543F30E509541FFEE493B8
:10015C00A360010ECF54C025E060A840B8E493A37F
:10016C00FAE493A3F8E493A3C8C582C8CAC583CAAA
:10017C00F0A3C8C582C8CAC583CADFE9DEE780BE62
:0103210000DB
:1002AD00BB010CE58229F582E5833AF583E0225006
:1002BD0006E92582F8E622BBFE06E92582F8E22250
:0D02CD00E58229F582E5833AF583E493226A
:00000001FF
