:020000040800F2
:100000003005002045010008A90500083F0500084B
:10001000A5050008E7020008CD0B0008000000005D
:10002000000000000000000000000000E1060008E1
:10003000C903000800000000AB0500082108000803
:100040005F0100085F0100085F0100085F01000810
:100050005F0100085F010008CD0300085F01000890
:100060005F0100085F0100085F0100085F010008F0
:100070005F0100085F0100085F0100085F010008E0
:100080005F0100085F010008850200085F010008A9
:100090005F0100085F0100085F0100085F010008C0
:1000A0005F0100085F0100085F010008DD0800082B
:1000B0005F0100085F010008210900085F010008D6
:1000C0005F0100085F0100085F0100085F01000890
:1000D0005F0100085F0100085F0100085F01000880
:1000E0005F0100085F0100085F0100085F01000870
:1000F0005F0100085F0100085F0100085F01000860
:100100005F0100085F0100085F0100085F0100084F
:100110005F0100085F0100089D0900085F010008F9
:100120005F0100085F0100085F0100085F0100082F
:10013000DFF80CD000F068F800480047850D000893
:10014000300500200648804706480047FEE7FEE7E6
:10015000FEE7FEE7FEE7FEE7FEE7FEE7FEE7FEE777
:100160007D0800083101000896230022114600F0A6
:100170001DB820F00040C10DC0F3160040F400008F
:100180007F2901DA00207047962903DCC1F196012E
:10019000C84070479639884070470029A8BF70470B
:1001A000401C490008BF20F00100704710B4B0FAAD
:1001B00080FC00FA0CF050EA010404BF10BC704748
:1001C00049B1CCF1200421FA04F411FA0CF118BF62
:1001D000012121430843A3EB0C01CB1D4FEA006131
:1001E0004FEA102042BF002010BC704700EBC35004
:1001F00010440029A4BF10BC7047401C490008BF30
:1002000020F0010010BC7047064C074D06E0E06886
:1002100040F0010394E8070098471034AC42F6D34D
:10022000FFF78AFFDC0D0008FC0D000870B58C1884
:1002300010F8015B15F0070301D110F8013B2A11FA
:1002400006D110F8012B03E010F8016B01F8016BE7
:100250005B1EF9D12B0705D40023521E0DD401F8E3
:10026000013BFAE710F8013BCB1A921C03E013F8AC
:10027000015B01F8015B521EF9D5A142D8D30020E1
:1002800070BD000010B54FF40871074800F019F870
:1002900048B1054800F011F8044908804FF408718E
:1002A000014800F005F810BD0024014004010020C1
:1002B00000220A12D343036070470146C86C80B223
:1002C000704770B502460020002300240B125568C9
:1002D000CEB205EA060415681D4015B10CB1012027
:1002E00000E0002070BD00BFFEE7000039B1084A01
:1002F0001268012383401A43054B1A6006E0044A42
:100300001268012383409A43014B1A607047000032
:100310000074004041B1094A12684FF48053834091
:100320001A43064B1A6007E0044A12684FF48053E0
:1003300083409A43014B1A607047000000740040EC
:1003400030B5002200230A4C226840F6FE74844037
:10035000A243D1E900452C438D682C43CD6844EA83
:10036000050303FA00F42243014C226030BD000073
:100370000074004021B1026842F00102026004E012
:1003800002684FF6FE731A400260704710B50022F3
:10039000026847F6F0739A430C6A8B6823430C6932
:1003A00023434C6923438C692343CC6923434C6A20
:1003B00023438C6A23431A430260CB6843600B6873
:1003C00083604B68C36010BD7047000010B501200A
:1003D00000F014F840B10548006880F0200003499F
:1003E0000860012000F004F810BD00000C0C014072
:1003F00001490860704700001404014001460020D4
:100400000022074B1B6803EA0102054B14331B68EB
:100410000B4013B10AB1012000E00020704700003A
:10042000000401402DE9F04102460025002600208D
:1004300000230024002791F803C00CF00F0591F869
:1004400003C00CF0100CBCF1000F03D091F802C0F7
:100450004CEA050591F800C0BCF1000F31D01468DA
:1004600000202BE04FF0010C0CFA00F3B1F800C0B3
:100470000CEA03069E4220D183004FF00F0C0CFAC9
:1004800003F7BC4305FA03FC4CEA040491F803C0EB
:10049000BCF1280F06D14FF0010C0CFA00FCC2F899
:1004A00014C00AE091F803C0BCF1480F05D14FF029
:1004B000010C0CFA00FCC2F810C0401C0828D1D373
:1004C0001460B1F800C0BCF1FF0F34DD54680020A7
:1004D0002EE000F1080C4FF0010808FA0CF3B1F817
:1004E00000C00CEA03069E4221D183004FF00F0C9E
:1004F0000CFA03F7BC4305FA03FC4CEA040491F838
:1005000003C0BCF1280F05D100F1080C08FA0CF863
:10051000C2F8148091F803C0BCF1480F07D100F174
:10052000080C4FF0010808FA0CF8C2F81080401CC3
:100530000828CED35460BDE8F0810161704700BF48
:10054000FEE7000008B50121082000F04FF8202048
:10055000ADF8000010208DF8030003208DF8020094
:1005600069460F48FFF75EFF0120ADF800006946BD
:100570000B48FFF757FF0220ADF800006946084816
:10058000FFF750FF20210648FFF7D7FF012104485D
:10059000FFF7D3FF02210248FFF7CFFF08BD00009D
:1005A000000C014000BFFEE77047704729B1064AC2
:1005B00052690243044B5A6104E0034A5269824380
:1005C000014B5A61704700000010024029B1064AF1
:1005D000D2690243044BDA6104E0034AD2698243E0
:1005E000014BDA61704700000010024029B1064A51
:1005F00092690243044B9A6104E0034A9269824380
:10060000014B9A61704700000010024030B5002194
:100610000022002400232D4D6D6805F00C0121B14E
:10062000042905D0082923D105E0294D056022E0E1
:10063000274D05601FE0254D6D6805F47012234DB0
:100640006D6805F48034022505EB92421CB9214DFA
:10065000554305600BE01D4D6D6805F400351DB177
:100660001C4D5543056002E0194D5543056002E0FD
:10067000174D056000BF00BF144D6D6805F0F00117
:100680000909154D6B5C0568DD4045600F4D6D68CF
:1006900005F4E061090A104D6B5C4568DD4085603A
:1006A0000A4D6D6805F46051C90A0B4D6B5C4568D5
:1006B000DD40C560054D6D6805F44041890B074D6F
:1006C0006B5CC568B5FBF3F5056130BD00100240F9
:1006D00000127A0000093D001C0100202C010020BE
:1006E000704710B500F002F810BD00000CB50020F6
:1006F000019000903348006840F480303149086030
:1007000000BF3048006800F4003000900198401CA1
:100710000190009818B90198B0F5A06FF1D129485F
:10072000006800F4003010B10120009001E00020CA
:1007300000900098012843D12348006840F0100041
:10074000214908600846006820F003000860084658
:10075000006840F0020008601A4840681949486083
:100760000846406848600846406840F48060486039
:100770000846406820F47C1048600846406840F411
:10078000E81048600846006840F08070086000BFCC
:100790000C48006800F000700028F9D00948406853
:1007A00020F00300074948600846406840F0020016
:1007B000486000BF0348406800F00C000828F9D1E9
:1007C0000CBD0000001002400020024030B5014680
:1007D000481EB0F1807F01D3012030BD481E4FF08C
:1007E000E022506150170F22002807DA13071D0E70
:1007F000094B00F00F04241F1D5503E013071C0EC6
:10080000064B1C5400BF00204FF0E02290610720EF
:1008100010610020E1E7000018ED00E000E400E0D6
:1008200010B500F01FF810BD70B504460C48FFF776
:10083000CDFF002508E000BF4FF0E020006900F484
:1008400080300028F8D06D1CA542F4D34FF0E02092
:10085000006920F001004FF0E021086170BD000048
:10086000401901000448006820B103480068401E98
:1008700001490860704700000001002010B51348CE
:10088000006840F0010011490860084640681049BE
:1008900008400E494860084600680E4908400B4968
:1008A00008600846006820F4802008600846406818
:1008B00020F4FE0048604FF41F008860FFF711FF2E
:1008C0004FF000600449086010BD000000100240B5
:1008D0000000FFF8FFFFF6FE08ED00E010B5022172
:1008E0000B4800F086F8012810D10221084800F0DA
:1008F0006BF8074800F077F806490880044800F0D4
:1009000075F80549088001200449087010BD0000F1
:10091000002C01400C0100200E01002010010020DD
:1009200010B501211B4800F064F8012808D101210D
:10093000184800F049F818484088401C164948807B
:100940000221144800F055F8012822D10221114853
:1009500000F03AF81048407848B901200E49487034
:100960000020488002210B4800F054F811E00A48AA
:10097000407801280DD1002007494870054800F053
:1009800032F805498880012008700021014800F0F4
:1009900041F810BD000800400601002010B50121FB
:1009A000074800F026F8012808D10121044800F08A
:1009B0000BF804480068401C0249086010BD0000A4
:1009C0000010004014010020CA430282704721B188
:1009D000028842F00102028004E002884FF6FE73B2
:1009E0001A40028070470146888E70470146088F82
:1009F000704730B50246002000230024158A05EA1E
:100A00000103958905EA010413B10CB1012000E04E
:100A1000002030BD0A460021018C4FF6FD731940BD
:100A200011430184704782884FF68F731A40828089
:100A300082880A4382807047002202881D4B9842B8
:100A40000ED01D4B98420BD0B0F1804F08D01B4BFD
:100A5000984205D01A4B984202D01A4B984204D1C2
:100A60004FF68F731A404B881A43174B984207D0A2
:100A7000164B984204D04FF6FF431A40CB881A43D6
:100A800002808B8883850B8803850A4B98420BD0A4
:100A9000094B984208D00E4B984205D00D4B984216
:100AA00002D00D4B984201D10B7A03860123838239
:100AB00070470000002C0140003401400004004059
:100AC00000080040000C00400010004000140040EE
:100AD00000400140004401400048014021B18289AA
:100AE00042F40052828104E082894DF6FF731A407D
:100AF000828170472DE9F04786B005460E460024F6
:100B0000A24600BFA1460027B08900B100BF2F4612
:100B10002C8A4CF6FF700440F08804432C82AC8988
:100B20004EF6F3100440B0883189084371890843B8
:100B30000443AC81AC8A4FF6FF400440B0890443C3
:100B4000AC8201A8FFF762FD1F48874202D1DDF8A1
:100B500010A001E0DDF80CA0A88900F4004040B12D
:100B60000AEBCA0000EB0A1031684900B0FBF1F84B
:100B700007E00AEBCA0000EB0A1031688900B0FBFD
:100B8000F1F86420B8FBF0F004012009642101FBB6
:100B90001089A88900F4004040B1322000EBC90060
:100BA000B0FBF1F000F00700044308E0322000EB56
:100BB00009106421B0FBF1F000F00F0004432C8118
:100BC00006B0BDE8F08700000038014000BFFEE736
:100BD00002E008C8121F08C1002AFAD17047704706
:100BE000002001E001C1121F002AFBD170471FB590
:100BF00001214807FFF7EAFC002002900220039041
:100C00002C200090002001906946FFF799FB0121FC
:100C10000020FFF76BFB1FBD10B58CB0044601210F
:100C20000220FFF7C3FC10200390104801900294AB
:100C300080200490002005908020069040000790BE
:100C40008000089020200990C0010A9000200B909D
:100C500001A90748FFF79AFB01210548FFF78AFB26
:100C600001210020FFF756FB0CB010BD08740040B6
:100C70003004024008B501210420FFF7B7FC002032
:100C80008DF803001020ADF8000003208DF802005D
:100C900069460248FFF7C6FB08BD00000008014096
:100CA0000EB501210420FFF791FC0020ADF80600ED
:100CB000ADF802000B480088ADF804000A4800882F
:100CC000ADF8000000208DF8080069460748FFF7DE
:100CD000B3FE20210548FFF7A6FE01210348FFF7D8
:100CE00076FE0EBD1A010020180100200008004009
:100CF00010B5FFF7BFFFFFF77AFFFFF7D1FF10BD79
:100D000010B586B0044601210420FFF76FFC0121D5
:100D10008803FFF76BFC18208DF817004FF4007064
:100D2000ADF8140003208DF8160005A91348FFF74D
:100D300079FB04208DF817000002ADF814000320A1
:100D40008DF8160005A90D48FFF76CFB01940020F3
:100D5000ADF810000C20ADF80E000020ADF80C002E
:100D6000ADF80A00ADF8080001A90548FFF7C2FE7A
:100D700001210348FFF7B2FE06B010BD0008014094
:100D800000380140FFF7DEFBFFF7B2FF1048FFF726
:100D900043FF4FF4E130FFF7B3FF18E00A2412E0FD
:100DA0000C48B0FBF4F73846FFF7DEF9064630464C
:100DB000FFF7DFF9054608490D80FFF771FF0120B5
:100DC000FFF732FD0A3448F6B8008442E8D9E5E777
:100DD00000000020449508001A010020FC0D0008C6
:100DE00000000020300100002C020008000F000865
:100DF0003001002000040000E00B00081842FF074B
:100E00006308C7082B098E09F009510AB00A0E0BB6
:100E10006A0BC30B1B0C700CC20C110D5D0DA60DE3
:100E2000EB0D2D0E6B0EA50EDA0E0C0F390F620FA7
:100E3000860FA50FC00FD60FE70FF40FFB0FFD04B1
:100E40001AF40C1AD6141AA51C1A62241C0C0FDAF8
:100E5000301E6B0E2D0EEB401E5D0D110DC2501C91
:100E60001B0CC35C18080E0BB00A510AF07010344A
:100E70002B09C7086308FF079A073607D2066F06D3
:100E80000D06AC054D05EF0493043A04E2038D030F
:100E90003B03EC02A00257021202D001920158015A
:100EA0002301F112C4129B12771258123D1227121D
:100EB00016120932021A02081A16101A3D181A7769
:100EC0002012C412F11A23301E9201D00112401ECA
:100ED000A002EC023B501CE2033A5C1808EF044D00
:100EE00005AC050D701CD206367C011A4A01062C91
:100EF00002030404000900060708090204060800AA
:0400000508000131BD
:00000001FF
