:020000040800F2
:10000000000400204501000871030008690300088E
:100010006D0300088D01000889060008000000003B
:10002000000000000000000000000000390500088A
:100030009101000800000000730300082506000875
:100040005F0100085F0100085F0100085F01000810
:100050005F0100085F0100085F0100085F01000800
:100060005F0100085F0100085F0100085F010008F0
:100070005F0100085F0100085F0100085F010008E0
:100080005F0100085F0100085F0100085F010008D0
:100090005F0100085F0100085F0100085F010008C0
:1000A0005F0100085F0100085F0100085F010008B0
:1000B0005F0100085F0100085F0100085F010008A0
:1000C0005F0100085F0100085F0100085F01000890
:1000D0005F0100085F0100085F0100085F01000880
:1000E0005F0100085F0100085F0100085F01000870
:1000F0005F0100085F0100085F0100085F01000860
:100100005F0100085F0100085F0100085F0100084F
:100110005F0100085F0100085F0100085F0100083F
:100120005F0100085F0100085F0100085F0100082F
:10013000DFF80CD000F018F8004800472507000849
:10014000000400200648804706480047FEE7FEE717
:10015000FEE7FEE7FEE7FEE7FEE7FEE7FEE7FEE777
:100160002906000831010008064C074D06E0E0684A
:1001700040F0010394E8070098471034AC42F6D3EE
:10018000FFF7DAFFF80700080808000800BFFEE7DD
:10019000704700E0401E0028FCD1704705490968FF
:1001A00021F01001034A11601146096801431160F2
:1001B000704700000020024001460020034A1068FA
:1001C00000F0380008431060704700000020024033
:1001D0002DE9F041024600250026002000230024DE
:1001E000002791F803C00CF00F0591F803C00CF044
:1001F000100CBCF1000F03D091F802C04CEA0505C9
:1002000091F800C0BCF1000F31D0146800202BE041
:100210004FF0010C0CFA00F3B1F800C00CEA030631
:100220009E4220D183004FF00F0C0CFA03F7BC4321
:1002300005FA03FC4CEA040491F803C0BCF1280F52
:1002400006D14FF0010C0CFA00FCC2F814C00AE011
:1002500091F803C0BCF1480F05D14FF0010C0CFA26
:1002600000FCC2F810C0401C0828D1D31460B1F8BB
:1002700000C0BCF1FF0F34DD546800202EE000F117
:10028000080C4FF0010808FA0CF3B1F800C00CEAB2
:1002900003069E4221D183004FF00F0C0CFA03F7A6
:1002A000BC4305FA03FC4CEA040491F803C0BCF11A
:1002B000280F05D100F1080C08FA0CF8C2F81480D8
:1002C00091F803C0BCF1480F07D100F1080C4FF0C2
:1002D000010808FA0CF8C2F81080401C0828CED398
:1002E0005460BDE8F0810246002093680B400BB1DA
:1002F000012000E00020704738B5044600F04AF8BD
:100300004FF4803000F09EF800F0FAF8009000986A
:10031000012826D11020FFF741FF0220FFF74CFFF4
:10032000002000F083F8002000F0BEF84FF4806059
:1003300000F0AEF821464FF4803000F0C7F80120FD
:1003400000F0BEF800BF392000F04AF80028FAD0CB
:10035000022000F0C9F800BF00F060F80828FBD1C7
:1003600001E000BFFEE738BD00BFFEE700BFFEE7CB
:100370007047704729B1064A92690243044B9A615B
:1003800004E0034A92698243014B9A61704700007E
:10039000001002400F48006840F001000D4908605D
:1003A000084640680C4908400A4948600846006809
:1003B0000A490840074908600846006820F4802080
:1003C00008600846406820F4FE0048604FF41F00B3
:1003D00088607047001002400000FFF8FFFFF6FE43
:1003E00010B501460022002300204A11012A02D143
:1003F000094C236806E0022A02D1074C236A01E077
:10040000054C636A01F01F02012494401C400CB1AA
:10041000012000E0002010BD0010024002484068AA
:1004200000F00C0070470000001002400146002060
:10043000034A506820F0F000084350607047000005
:10044000001002401149096821F480310F4A1160FF
:100450001146096821F480211160B0F5803F03D076
:10046000B0F5802F0ED106E00849096841F48031CB
:10047000064A116007E00549096841F4A021034AD2
:10048000116000E000BF00BF704700000010024094
:1004900001460020034A506820F4E06008435060A1
:1004A000704700000010024001460020034A5068D7
:1004B00020F4605040EAC1005060704700100240D4
:1004C00001490866704700000000424202460020D1
:1004D000044B586820F47C1042EA01031843014B96
:1004E000586070470010024001460020034A5068DF
:1004F00020F00300084350607047000000100240E5
:1005000038B5002000900024002500BF3120FFF7FF
:1005100067FF05460098401C00900098B0F5A06F5A
:1005200001D0002DF2D03120FFF75AFF08B101248D
:1005300000E00024204638BD704710B500F002F8F6
:1005400010BD00000CB500200190009033480068F9
:1005500040F480303149086000BF3048006800F442
:10056000003000900198401C0190009818B9019843
:10057000B0F5A06FF1D12948006800F4003010B147
:100580000120009001E0002000900098012843D154
:100590002348006840F010002149086008460068C0
:1005A00020F0030008600846006840F00200086080
:1005B0001A4840681949486008464068486008463B
:1005C000406840F4806048600846406820F47C1031
:1005D00048600846406840F4E810486008460068F3
:1005E00040F08070086000BF0C48006800F00070A8
:1005F0000028F9D00948406820F003000749486006
:100600000846406840F00200486000BF0348406868
:1006100000F00C000828F9D10CBD000000100240C9
:10062000002002407047000010B51348006840F0F9
:1006300001001149086008464068104908400E4909
:100640004860084600680E4908400B4908600846A3
:10065000006820F4802008600846406820F4FE000E
:1006600048604FF41F008860FFF767FF4FF000609D
:100670000449086010BD0000001002400000FFF8AF
:10068000FFFFF6FE08ED00E000BFFEE702E008C84D
:10069000121F08C1002AFAD170477047002001E0FC
:1006A00001C1121F002AFBD17047000010B54FF4A2
:1006B00000511948FFF717FE012813D11748FFF71B
:1006C00068FD4FF400511448FFF70DFE012807D1D3
:1006D00000BF4FF400511048FFF705FE0128F8D085
:1006E000012010BD01210E48FFF7FDFD012811D1A9
:1006F0000A48FFF74EFD01210948FFF7F4FD0128E4
:1007000006D100BF01210648FFF7EDFD0128F9D011
:100710000220E6E70020E4E700100140FFFF0F00A1
:100720000008014008B5002500262E4F4FF4E010C8
:10073000FFF7E2FD01211C20FFF71CFE2320ADF88E
:10074000000001208DF8020010208DF8030069469A
:100750002548FFF73DFD4FF40050ADF800000420A0
:100760008DF8030069462148FFF732FD0120ADF8FE
:10077000000069461E48FFF72BFD32E0FFF796FFA9
:100780000446022C05D10DB9012000E000200546E9
:100790000AE0012C08D10EB9012000E00020064635
:1007A0000EB1144F00E00F4F45B14FF6FF700E49E8
:1007B000103108600320091D086007E04FF6FF7044
:1007C0000949103108602120091D08603846FFF7EB
:1007D000E0FC4FF6FF700449103108603846FFF71F
:1007E000D8FCCBE7FFFF0F00000C014000100140D8
:1007F00000080140FFFF5F0008080008000000201B
:08080000000400009C06000842
:0400000508000131BD
:00000001FF
