:03000000020405F2
:0C040500787FE4F6D8FD75812202044CDB
:10093500011701011800080E000A0A0A0A00000042
:0F094500C100020A0D05021B0064C1010116006A
:10026300D2AFD2A9758901758CFA758A24120A5204
:10027300D28C7F011208BBEF75F00AA485F008F554
:1002830009AE08FF7C007D32120200ED4C600CE4E5
:10029300FD7F01120958E4F508F5097F031209B53A
:1002A300E51C451B7020F51B751C321209FCAC07BD
:1002B300E412011E7B487AE179FA783F12000E12AC
:1002C30001528E198F1A1208058F1DE51D24F36044
:1002D3001824FD601E146040240570730517E5178C
:1002E3006404706B7517018066E51764037060F52D
:1002F30018805CE51764027044C3E50994F4E508CB
:100303009401500D74322509F509E43508F5088088
:100313002CE4F508F5098025E5176402701FD3E581
:10032300099400E5089400400E74CE2509F509747C
:10033300FF3508F50880067508017509F4AE08AFA6
:10034300097C007D0A120200AD077F01120958AF34
:1003530017EF64016005EF64037032300027D3E5C3
:100363000D9509E50C9508400CE51A9509E51995D5
:10037300085002051885190C851A0DE51864647078
:100383000AF518800685190C851A0DD200C3E51AE3
:100393009509E51995085004D2018008C201750A30
:1003A3000D750B05AF1DEFF4604BE5176401701677
:1003B300EF640D600AEF64106005EF6411700405CB
:1003C300168003E4F516AF177E00EF6402700DE5A7
:1003D3001D640D700405168003E4F516EF64034EE7
:1003E3007013AF1DEF64106005EF64117004051600
:1003F3008003E4F516E516F47002151612091002CF
:0204030002A352
:100910007DFFE50B450A70011DE518540160035386
:1009200005FDC3E51694037480948040035305FBD2
:050930007F040209E54F
:10051C00E51724FE603114606124027074750E0BB3
:10052C00AE19AF1A7C007D641202008F13AE19AFA6
:10053C001A7C007D0A1202007C007D0A1202008DDA
:10054C0014AE19AF1A8028750E0CAE08AF097C00DA
:10055C007D641202008F13AE08AF097C007D0A1275
:10056C0002007C007D0A1202008D14AE08AF097CDB
:10057C00007D0A1202008D158017750E0D75130A79
:10058C00E51875F00A84F514E51875F00A8485F001
:0A059C00157B007A00790E0207B10A
:1009B5008F1E1207567F901205A6120692AF1E12C1
:0809C50005A612069202088B40
:1009FC001207567F911205A612069212061E8F1E22
:050A0C0012088BAF1E73
:010A110022C2
:10097A008F211207567F901205A61206927F401207
:10098A0005A6120692AF211205A612069202088B3C
:100958008F1E8D1F1207567FA01205A6120692AF92
:100968001E1205A6120692AF1F1205A612069202C3
:02097800088BEA
:0208BB008F1E8E
:1008BD001207567FA01205A6120692AF1E1205A6AC
:1008CD001206921207567FA11205A6120692120663
:0808DD001E8F1F12088BAF1FD4
:0108E50022F0
:03000B000206F6F4
:1006F600C0E0C0F0C083C082C0D075D000C000C0CA
:1007060001C002C003C004C005C006C007758CFA4C
:10071600758A2412051CE50B450A600B300108E5B5
:100726000B150B7002150AE51C451B6008E51C1528
:100736001C7002151BD007D006D005D004D003D0FC
:1007460002D001D000D0D0D082D083D0F0D0E03219
:0F0A7600C0F9A4B0999282F88090FFC18CADFDB9
:030954000122017C
:1009E500EFC43354E0FFC2AF8D80E5A0541F4FF52F
:0709F500A053A01FD2AF22A6
:100A5200E4FD7F051209E57DFF7F041209E57F07AA
:030A62000209E5A1
:1007B1007D01AE80E52214FFF8ED088002C333D835
:1007C100FCFD7F061209E5E5227C0024FFF582ECA1
:1007D10034FFF5831201D3900A7693FDE517FB648C
:1007E100016005EB64027009E5226406700353059C
:1007F1007F7F071209E50522E5226409700375224E
:03080100018E80E5
:0108040022D1
:1008050075B00F20B21F7F0A120A65D2B430B20844
:10081500C2B430B2FD7F1122D2B530B208C2B530B4
:10082500B2FD7F0D2220B3227F05120A6520B31A7F
:10083500D2B430B308C2B430B3FD7F1022D2B53084
:0D084500B308C2B530B3FD7F0C227FFF2247
:100A6500AE071FEE600A7E0C7DA9DDFEDEFC80F080
:010A7500225E
:10075600D2A1D2A0000000000000000000000000AE
:100766000000000000000000000000000000000083
:1007760000000000000000000000000000C2A10010
:100786000000000000000000000000000000000063
:100796000000000000000000000000000000000053
:0B07A6000000000000000000C2A022C4
:10088B00C2A1D2A000000000000000000000000088
:10089B00000000000000000000000000000000004D
:1008AB0000000000000000000000000000D2A122A8
:10049100EF6004C2A18002D2A100000000000000B0
:1004A100000000000000000000000000000000004B
:1004B100000000000000000000000000000000003B
:1004C1000000D2A0000000000000000000000000B9
:1004D100000000000000000000000000000000001B
:1004E10000000000000000000000000000C2A0D2D7
:1004F100A10000000000000000000000000000005A
:1005010000000000000000000000000000000000EA
:0B0511000000000000000000000022BD
:10069200D2A10000000000000000000000000000E5
:1006A2000000000000000000000000000000000048
:1006B2000000000000000000000000D2A0000000C6
:1006C2000000000000000000000000000000000028
:1006D2000000000000000000000000000000000018
:1006E20000000000000030A107C2A012088BC32244
:0406F200C2A0D322AD
:1005A600C2AFE4FEEEC39408748094805067EF30C7
:1005B600E704D2A18002C2A10000000000000000F2
:1005C6000000000000000000000000000000000025
:1005D6000000000000000000000000000000000015
:1005E60000D2A0EF25E0FF000000000000000000A0
:1005F60000000000000000000000000000000000F5
:1006060000000000000000000000000000000000E4
:07061600C2A00E808FD2AFDD
:01061D0022BA
:10061E00C2AFE4FEEEC39408748094805063D2A0FF
:10062E0000000000000000000000000000000000BC
:10063E0000000000000000000000000000000000AC
:10064E00000000000000000000EF25E0FF30A103D5
:10065E00430701C2A00000000000000000000000DF
:10066E00000000000000000000000000000000007C
:10067E0000000000000000000000000000000E80DE
:03068E0093D2AF55
:010691002246
:040A9400D2A07F0568
:080A980000AE071FEE70F92209
:0F0A8500D2A1120A94C2A17F05120A98C2A02220
:0C0AA000C2A1120A94D2A17F05020A989C
:02085200AD07F0
:10085400C2AFE4FCECC39408748094805024C2A01A
:100864007F05120A98ED30E704D2A18002C2A17F6D
:1008740005120A98D2A0ED25E0FD7F05120A980C16
:0608840080D2D2AFC2A039
:01088A00224B
:030A28001208525F
:100A2B00120A94A2A1E433FDC2A07F05120A98AF6B
:010A3B0005B5
:010A3C002297
:1008E600C2AFE4FCECC39408748094805017120ADB
:1008F60094ED25E0FD30A103430501C2A07F05125A
:090906000A980C80DFD2AFAF05A6
:01090F0022C5
:1009CD00C2A0EF24FF92A17F05120A98120A94C2C9
:0809DD00A0D2A17F05020A98D7
:100A1200AD071FED600FE4FEEEC394707480948006
:050A220050EE0E80F310
:010A270022AC
:100A3D00120A857F90120A287F01120A28120AA035
:050A4D007F0A020A12FD
:10099A00120A857F91120852120A2B1208E6AD0735
:0A09AA007F011209CD120AA0AF056B
:0109B4002220
:10000E00EC4D6011E8497017ED33EC3304600DE4EC
:10001E00FCFFFEFD22E933E8330470F80201BE1244
:10002E00018958046009E4CC248150062850090245
:10003E0001C82840030201C5C0E0EB4A7044B980F4
:10004E0006D0E0FB0201B4EF4E701CBD8008EBFF42
:10005E00EAFEE9FD80EBE98DF0A4FEE5F00200F783
:10006E00E9CDF9EAFEEBFFEF89F0A4FCE5F0CE89CD
:10007E00F0A42EFFE435F0CD89F0A42DFEE435F08A
:10008E008067EF4E7005BD80D780C3EF8BF0A4ACB8
:10009E00F0EE8BF0A42CFCE435F0F8EF8AF0A42CF3
:1000AE00E5F038FCE433CB8DF0A42CFCE5F03BF806
:1000BE00EE8AF0A42CFCE5F038F8E433CF89F0A4F6
:1000CE002CFCE5F038CF3400CE89F0A42FFFE5F0FC
:1000DE003EFEE433C98DF0A42EFEE5F039CD8AF054
:1000EE00A42FFFE5F03EFEE43DFD33D0E0FB5007CC
:1000FE000BBB000F0201C8EC2CFCEF33FFEE33FEFE
:06010E00ED33FD0201A02B
:1001140075F020800E75F010800575F0087D007E66
:10012400007F003392D530D503120255EC334010D2
:10013400EF33FFEE33FEED33FDEC33FCD5F0ED226F
:0E014400E5F0247EA2D513CC92E7CDCEFF22AB
:10015200EDD2E7CD33EC3392D524814006E4FFFEA5
:10016200FDFC22FCE4CFCECDCC24E0501174FF8004
:10017200EDC3CC13CCCD13CDCE13CECF13CF0470A1
:07018200F030D5DE0202554A
:10018900E9D2E7C933E833F892D5EDD2E7CD33ECBC
:0701990033FC5002B2D52235
:1001A000EC30E7100FBF000C0EBE00080DBD0004C0
:1001B0000BEB6014A2D5EB13FCED92E7FD2274FF6C
:1001C000FCFDFEFF22E480F8A2D574FF13FC7D80C5
:0301D000E480EFD9
:10041100020263E493A3F8E493A34003F68001F29C
:1004210008DFF48029E493A3F85407240CC8C333EC
:10043100C4540F4420C8834004F456800146F6DFBB
:10044100E4800B0102040810204080900935E47E0D
:10045100019360BCA3FF543F30E509541FFEE493B0
:10046100A360010ECF54C025E060A840B8E493A377
:10047100FAE493A3F8E493A3C8C582C8CAC583CAA2
:10048100F0A3C8C582C8CAC583CADFE9DEE780BE5A
:01095700009F
:1001D300BB010CE58229F582E5833AF583E02250E1
:1001E30006E92582F8E622BBFE06E92582F8E2222B
:0D01F300E58229F582E5833AF583E4932245
:10020000BC000BBE0029EF8DF084FFADF022E4CCE2
:10021000F875F008EF2FFFEE33FEEC33FCEE9DECAB
:10022000984005FCEE9DFE0FD5F0E9E4CEFD22EDF1
:10023000F8F5F0EE8420D21CFEADF075F008EF2F3B
:10024000FFED33FD4007985006D5F0F222C398FD2C
:050250000FD5F0EA22C9
:0E025500C3E49FFFE49EFEE49DFDE49CFC22BA
:00000001FF
