:08043A00021A01F4021C01F496
:10048500758901D2AFD2A9758CEC758A78D28C1298
:1004950004BF1202781203227F0A7E001203A58090
:0104A500F462
:03000B00020100EF
:10010000C0E0C0F0C083C082C0D075D000C000C0C5
:1001100001C002C003C004C005C006C007758CFA48
:10012000758A24E51B451A600AE51B151B700C1522
:100130001A8008B201751A27751B10E51D451C6051
:100140000AE51D151D700C151C8008D200751C01D8
:10015000751DF4300072300134E51775F00A84F52E
:1001600008E51775F00A8485F009750A0BE518751E
:10017000F00A84F50BE51875F00A8485F00C750D0E
:100180000BE51975F00A84F50EE5198032E5137553
:10019000F00A84F508E51375F00A8485F009750AFC
:1001A0000BE51575F00A84F50BE51575F00A8485E5
:1001B000F00C750D0BE51675F00A84F50EE5167555
:1001C000F00A8485F00FC2007B007A0079081203E0
:1001D00066D007D006D005D004D003D002D001D01D
:0C01E00000D0D0D082D083D0F0D0E0322C
:0C04D200C0F9A4B0999282F88090FFBF9E
:10044200011101011001011200C183C182080806D5
:070452000606060606060679
:1004A60053A01FEFC43354E0FFE5A0541F4FF5A03F
:0904B6008D8000000053A01F22FC
:1004BF00E4FD7F051204A67DFF7F071204A67F04CB
:0304CF000204A67E
:100366007D01AE80E51114FFF8ED088002C333D895
:10037600FCFD7F061204A6E5117C0024FFF582EC45
:1003860034FFF5831203E39004D293FD7F07120432
:0E039600A60511E511640970037511018E8032
:0103A4002236
:1002D30020A0107F0A7E001203A520A03F30A0FDBE
:1002E3007F002220A1107F0A7E001203A520A12CEB
:1002F30030A1FD7F012220B2107F0A7E001203A5E8
:1003030020B21930B2FD7F022220B3107F0A7E0093
:0F0313001203A520B30630B3FD7F03227FFF2224
:10000E0075B00F20A0387F0A7E001203A520A02E07
:10001E00D2B730A003E4F521C2B7D2B630A0037533
:10002E002101C2B6D2B530A003752102C2B5D2B439
:10003E0030A003752103C2B430A0FDAF212220A150
:10004E00387F0A7E001203A520A12ED2B730A1035D
:10005E00752104C2B7D2B630A103752105C2B6D23E
:10006E00B530A103752106C2B5D2B430A1037521F6
:10007E0007C2B430A1FDAF212220B2387F0A7E0024
:10008E001203A520B22ED2B730B203752108C2B723
:10009E00D2B630B203752109C2B6D2B530B20375ED
:1000AE00210AC2B5D2B430B20375210BC2B430B23C
:1000BE00FDAF212220B3387F0A7E001203A520B3A4
:1000CE002ED2B730B30375210CC2B7D2B630B303FC
:1000DE0075210DC2B6D2B530B30375210EC2B5D29D
:1000EE00B430B30375210FC2B430B3FDAF21227FFC
:0100FE00FF02
:0100FF0022DE
:1003A500D3EF9400EE940040347901E9D3940074BE
:1003B50080948040217D8EEDD3940074809480409C
:1003C500127C02ECD394007480948040031C80F36B
:0D03D5001D80E41980D5EF1F70C61E80C387
:0103E20022F8
:09045900071314070C14152F0AF7
:06041000C293C297D293D3
:100416007E01EED39408748094805015C297EF3015
:10042600E004D2A38002C2A3D297EFC313FF0E80CB
:03043600E1C29789
:0104390022A0
:10046300D2A37E01EED39408748094805011EFC31D
:1004730013FFC29730A303430780D2970E80E5C2D0
:0104830097E1
:010484002255
:0A04DE00120410120463C2A3C293BB
:0104E80022F1
:0B04E900120410AF05120416C293228B
:10027800751E8CE4FD7F8E1204E9E4FCECC3940740
:1002880074809480503B74132CF8E6F51F75F00ABF
:1002980084F674132CF8C000E6C454F0D000F67449
:1002A800132CF8E6FFE51F75F00A84EF45F0F674A5
:1002B800132CF8E6FDAF1E1204E9151E151E0C805E
:0A02C800BB7D807F8E1204E9C29313
:0102D2002209
:100322007C8DC293C297D293E4FD7F8E1204E9EDD5
:10033200C39407748094805024AF041204DEEFC487
:10034200540F75F00AA4FE74132DF8A606EF540F8D
:10035200FE74132DF8EE26F61C1C0D80D27D807FD4
:040362008E0204E91A
:030000000201EC0E
:0C01EC00787FE4F6D8FD75812102023313
:1003E300BB010CE58229F582E5833AF583E02250CF
:1003F30006E92582F8E622BBFE06E92582F8E22219
:0D040300E58229F582E5833AF583E4932232
:1001F800020485E493A3F8E493A34003F68001F294
:1002080008DFF48029E493A3F85407240CC8C33307
:10021800C4540F4420C8834004F456800146F6DFD6
:10022800E4800B010204081020408090043AE47E28
:10023800019360BCA3FF543F30E509541FFEE493CB
:10024800A360010ECF54C025E060A840B8E493A392
:10025800FAE493A3F8E493A3C8C582C8CAC583CABD
:10026800F0A3C8C582C8CAC583CADFE9DEE780BE75
:010462000099
:00000001FF
