:020000040800F2
:10000000800B00204501000849040008FD0200089B
:1000100045040008B9010008511C00080000000058
:10002000000000000000000000000000950700082C
:10003000DD01000800000000D104000819090008D3
:100040005F0100085F0100085F0100084907000820
:100050005F0100085F0100085F0100085F01000800
:100060005F0100085F0100085F0100085F010008F0
:100070005F0100085F0100085F0100085F010008E0
:100080005F0100085F0100085F0100085F010008D0
:100090005F0100085F0100085F0100085F010008C0
:1000A0005F0100085F0100085F010008C90B00083C
:1000B0005F010008150E0008990F00085F01000895
:1000C0005F0100085F0100085F0100085F01000890
:1000D0005F0100085D18000841190008D1190008E7
:1000E0005F0100085F0100085F0100085F01000870
:1000F0005F0100085F0100085F0100085F01000860
:100100005F0100085F0100085F0100085F0100084F
:10011000B1140008791600085F0100085F010008AB
:100120005F0100085F0100085F0100085F0100082F
:10013000DFF80CD000F02EF800480047A91E000898
:10014000800B00200648804706480047FEE7FEE790
:10015000FEE7FEE7FEE7FEE7FEE7FEE7FEE7FEE777
:10016000290900083101000830B50B46014600207E
:100170002022012409E021FA02F59D4205D303FA69
:1001800002F5491B04FA02F52844151EA2F10102EA
:10019000F1DC30BD064C074D06E0E06840F001039D
:1001A00094E8070098471034AC42F6D3FFF7C4FF39
:1001B000AC200008CC20000800BFFEE729B1064AA9
:1001C00052680243044B5A6004E0034A5268824377
:1001D000014B5A6070470000002004E070472DE991
:1001E000F0410246002500260020002300240027BD
:1001F00091F803C00CF00F0591F803C00CF0100C3F
:10020000BCF1000F03D091F802C04CEA050591F84B
:1002100000C0BCF1000F31D0146800202BE04FF07B
:10022000010C0CFA00F3B1F800C00CEA03069E4280
:1002300020D183004FF00F0C0CFA03F7BC4305FAF2
:1002400003FC4CEA040491F803C0BCF1280F06D16A
:100250004FF0010C0CFA00FCC2F814C00AE091F84F
:1002600003C0BCF1480F05D14FF0010C0CFA00FCA3
:10027000C2F810C0401C0828D1D31460B1F800C0E7
:10028000BCF1FF0F34DD546800202EE000F1080CB3
:100290004FF0010808FA0CF3B1F800C00CEA0306AD
:1002A0009E4221D183004FF00F0C0CFA03F7BC43A0
:1002B00005FA03FC4CEA040491F803C0BCF1280FD2
:1002C00005D100F1080C08FA0CF8C2F8148091F876
:1002D00003C0BCF1480F07D100F1080C4FF0010832
:1002E00008FA0CF8C2F81080401C0828CED35460DD
:1002F000BDE8F081416170470161704700BFFEE7D2
:100300004AF6AA200149086070470000003000400A
:100310000146CA1701EB92729210A1EB820292B9C8
:10032000642091FBF0F200FB121050B94FF4C8703A
:1003300091FBF0F200FB121008B901207047002079
:10034000FCE70120FAE70020F8E7000010B50246BC
:1003500000230B4C2370914202DD8B1A98B204E00B
:100360000123074C2370531A98B247F23053984236
:1003700004DB0023024C2370434298B210BD0000FE
:100380002A00002008B50121042000F0B3F8012163
:10039000102000F0AFF80121202000F0ABF84FF45E
:1003A000F870ADF8000010208DF8030003208DF8E0
:1003B000020069461248FFF712FF69461148FFF72D
:1003C0000EFF69461048FFF70AFF4FF480710C4892
:1003D000FFF792FF10210B48FFF78EFF10210A480C
:1003E000FFF78AFF20210848FFF786FF40210648D3
:1003F000FFF782FF80210448FFF77CFF08BD000063
:1004000000080140001001400014014008B501211E
:10041000042000F06FF84FF40060ADF800001020E9
:100420008DF8030003208DF8020069460448FFF7A9
:10043000D6FE4FF400610248FFF75EFF08BD0000E2
:100440000008014000BFFEE77047000070B50021C2
:1004500000230F22C47804B3154C246804F4E0642C
:10046000C4F5E064210AC1F10403CA40447804FAE7
:1004700003F184781440214309010E4C0678A155FC
:10048000047804F01F050124AC4005786D11AD001F
:1004900005F1E025C5F8004109E0047804F01F05E6
:1004A0000124AC40044D0678761145F8264070BD15
:1004B0000CED00E000E400E080E100E002490143CF
:1004C000024A1160704700000000FA050CED00E0E0
:1004D0007047000029B1064AD2690243044BDA6131
:1004E00004E0034AD2698243014BDA61704700009D
:1004F0000010024029B1064A92690243044B9A61F6
:1005000004E0034A92698243014B9A6170470000FC
:100510000010024030B500210022002400232D4DA0
:100520006D6805F00C0121B1042905D0082923D1FB
:1005300005E0294D056022E0274D05601FE0254DAF
:100540006D6805F47012234D6D6805F48034022542
:1005500005EB92421CB9214D554305600BE01D4D42
:100560006D6805F400351DB11C4D5543056002E072
:10057000194D5543056002E0174D056000BF00BFEF
:10058000144D6D6805F0F0010909154D6B5C0568A7
:10059000DD4045600F4D6D6805F4E061090A104DBE
:1005A0006B5C4568DD4085600A4D6D6805F46051FF
:1005B000C90A0B4D6B5C4568DD40C560054D6D6833
:1005C00005F44041890B074D6B5CC568B5FBF3F53D
:1005D000056130BD0010024000127A0000093D00A4
:1005E000E8000020F80000202DE9F041002500245B
:1005F000002600BF4D4805882D04001D00880544D5
:10060000A0462F464A4A00203D46A5FB023C08FB77
:1006100002C107FB00181F464FEA186045490870E1
:100620004FEA184048704FEA18208870FF2008EA07
:100630000000C870380E40EA08200871380C40EA03
:1006400008404871380A40EA08608871CF713A481A
:10065000B5FBF0F439480088A04240D037490C80FF
:1006600040F2B27612E0FFF74BFE3046FFF750FE45
:1006700040B1B4F5B77F02D3A4F5B77404E0701CA1
:1006800086B206E0A4F26D14701C86B2B4F5B67F93
:10069000E9D800BF2A480680002618E0FFF730FEA0
:1006A00027490888FFF734FE30B1012E04D11D2CF4
:1006B00001D31D3C09E00CE02248805DA04203D834
:1006C0002048805D241A00E003E0701C86B21C2CD8
:1006D000E4D200BF701C1A498870601CC8701648AC
:1006E000B5FBF0F100FB11544FF46160B4FBF0F086
:1006F000134908714FF46160B4FBF0F100FB114045
:100700003C21B0FBF1F00E4948714FF46160B4FB3D
:10071000F0F100FB11403C21B0FBF1F201FB1200B3
:10072000074988710020BDE8F081000018280040CA
:1007300040420F003C000020805101004400002096
:1007400034000020A020000810B51148008800F0F7
:10075000010008B1FFF748FF0D48008800F00200D3
:1007600028B10B48008820F0020009490880084899
:10077000008840F6FA7108400549088001E0FFF75B
:10078000BFFD0348008800F020000028F7D010BD0E
:1007900004280040704710B500F002F810BD0000BA
:1007A0000CB50020019000903348006840F4803080
:1007B0003149086000BF3048006800F40030009004
:1007C0000198401C0190009818B90198B0F5A06FED
:1007D000F1D12948006800F4003010B101200090E8
:1007E00001E0002000900098012843D123480068D0
:1007F00040F01000214908600846006820F003001E
:1008000008600846006840F0020008601A48406826
:10081000194948600846406848600846406840F406
:10082000806048600846406820F47C1048600846B4
:10083000406840F4E81048600846006840F0807066
:10084000086000BF0C48006800F000700028F9D074
:100850000948406820F0030007494860084640689E
:1008600040F00200486000BF0348406800F00C0000
:100870000828F9D10CBD0000001002400020024001
:10088000042808D14FF0E021096941F004014FF03C
:10089000E022116107E04FF0E021096921F0040135
:1008A0004FF0E0221161704770B586B001A8FFF7E4
:1008B00031FE4FF4FA710298B0FBF1F4E4082146DE
:1008C000B1F1807F00D31DE021F07F40401E4FF04A
:1008D000E022506150170F22002807DA13071E0E7E
:1008E0000B4B00F00F052D1F5E5503E013071D0E87
:1008F000084B1D5400BF00204FF0E02290610720FC
:10090000106100BF6FF00400FFF7BAFF06B070BDC2
:1009100018ED00E000E400E002480088401C0149B6
:10092000088070473200002010B51348006840F07E
:1009300001001149086008464068104908400E4906
:100940004860084600680E4908400B4908600846A0
:10095000006820F4802008600846406820F4FE000B
:1009600048604FF41F008860FFF715FF4FF00060EC
:100970000449086010BD0000001002400000FFF8AC
:10098000FFFFF6FE08ED00E0F0B50C46154600222C
:100990000021068C4FF6FE773E400684028B018CC8
:1009A0004FF60C7632407E1C06EA03162E43324385
:1009B000104EB0420ED0104EB0420BD0B0F1804F6E
:1009C00008D00E4EB04205D00D4EB04202D00D4EB2
:1009D000B04206D14FF6FD76314044F00106314376
:1009E00005E04FF6F576314044F0010631430283CD
:1009F0000184F0BD002C014000340140000400409F
:100A000000080040000C0040F0B50C4615460022DE
:100A100000210026078C4FF6EF7C07EA0C070784BD
:100A2000028B018C4FF6FF7707EA041640F6FF476A
:100A30003A404FF6FF7707EA03373A434FF6FF771E
:100A400007EA05273A43114FB8420ED0104FB8427B
:100A50000BD0B0F1804F08D00E4FB84205D00E4FEA
:100A6000B84202D00D4FB84206D14FF6DF77394079
:100A700046F01007394305E04FF65F77394044F000
:100A80001007394302830184F0BD0000002C0140AF
:100A9000003401400004004000080040000C004009
:100AA000F0B50C461546002200210026078C4FF6B3
:100AB000FF6C07EA0C070784828B018C4FF6FF77E7
:100AC00007EA04264FF60C773A404FF6FF7707EA1D
:100AD00003172F433A43114FB8420ED0104FB8427C
:100AE0000BD0B0F1804F08D00E4FB84205D00E4F5A
:100AF000B84202D00D4FB84206D14FF6FF573940E9
:100B000046F48077394305E04FF2FF57394044F40B
:100B10008077394382830184F0BD0000002C0140BE
:100B2000003401400004004000080040000C004078
:100B3000F0B50C461546002200210026078C4EF623
:100B4000FF7C07EA0C070784828B018C4FF6FF7746
:100B500007EA043640F6FF473A404FF6FF7707EAC8
:100B600005273A434FF6FF7707EA03373A43114F19
:100B7000B8420ED0104FB8420BD0B0F1804F08D021
:100B80000E4FB84205D00E4FB84202D00D4FB842BA
:100B900006D14DF6FF77394046F48057394305E0DA
:100BA00047F6FF57394044F4805739438283018424
:100BB000F0BD0000002C0140003401400004004062
:100BC00000080040000C004010B502213D4800F034
:100BD00071FB40B102213B4800F050FB3A480078DD
:100BE000401C394908700421364800F063FB40B1CD
:100BF0000421344800F042FB34480078401C33495B
:100C0000087008212F4800F055FB40B108212D48FD
:100C100000F034FB2E480078401C2D49087010214C
:100C2000284800F047FB002846D01021254800F056
:100C300025FB2848007840B9012026490870214842
:100C400000F034FB2449088036E02248007801286F
:100C500032D100201F49087001202049087019482E
:100C600000F024FB1E4908801B4800880988884240
:100C700007DA1B48008818490988401A1949088072
:100C800013E0154800881649098888420ADD124891
:100C900000884FF6FF71081A114909880844114964
:100CA000088002E000200F4908800E4800880E49A5
:100CB00091FBF0F00D4908801F21024800F0DEFA98
:100CC00010BD0000002C0140860000208A0000209A
:100CD0008E00002096000020980000209200002046
:100CE0009A0000209C00002040420F009E0000203F
:100CF00030B585B005460C4601210220FFF7EAFB1E
:100D000001210520FFF7F6FB01210920FFF7F2FB87
:100D1000C020ADF8100028208DF8130004A9394830
:100D2000FFF75DFA0320ADF8100028208DF81300BE
:100D300004A93548FFF753FA40213248FFF7DAFAA1
:100D400080213048FFF7D6FA01212F48FFF7D2FA69
:100D500002212D48FFF7CEFAADF80850ADF8044057
:100D60000020ADF80A00ADF8060001A9274800F000
:100D70004DFB002026490880488001208880002003
:100D8000C8800881214800F0A7FA04202049088083
:100D900000204880012088800020C88008811B48EE
:100DA00000F09AFA08201A490880002048800120A3
:100DB00088800020C8800881144800F08DFA0C203B
:100DC0001349088000204880012088800020C880C6
:100DD00008810E4800F080FA1D208DF800000120E7
:100DE0008DF8010000208DF8020001208DF803002D
:100DF0006846FFF72BFB0121044800F042FA05B0DA
:100E000030BD000000080140000C0140000400401B
:100E10006807002010B50221534800F04BFA18B3C0
:100E200052480088401C514908805148007800F021
:100E300001005049087008460078012810D04A483F
:100E400000F02BFA4C4908804948007810B900207E
:100E50004A4908804648007840F00100444908703B
:100E60000321414800F00AFA04213F4800F022FA29
:100E700018B343480088401C414908803C4800782A
:100E800000F002003B49087008460078022810D0A4
:100E9000354800F005FA3B4908803548007810B91C
:100EA0000020364908803248007840F0020030497E
:100EB000087005212C4800F0E1F908212A4800F0CB
:100EC000F9F918B330480088401C2F490880284899
:100ED000007800F0040027490870084600780428CC
:100EE00010D0214800F0DFF9284908802048007818
:100EF00010B90020214908801D48007840F0040006
:100F00001B4908700921184800F0B8F9102116484B
:100F100000F0D0F918B31E480088401C1C49088016
:100F20001348007800F0080012490870084600785D
:100F3000082810D00C4800F0B9F9164908800C4870
:100F4000007810B900200D4908800948007840F069
:100F50000800074908701121034800F08FF91E218D
:100F6000014800F08BF910BD00040040A2000020F1
:100F7000B8000020B9000020B0000020320000209E
:100F8000A6000020B2000020AA000020B40000202B
:100F9000AE000020B600002010B50221A14800F0EC
:100FA00089F9002848D002219E4800F067F99E4840
:100FB000007840B901209C4908709A4800F06DF90A
:100FC0009A49088038E098480078012834D10020F8
:100FD0009549087096480078401C954908709148DA
:100FE00000F05BF99349088090480088098888429E
:100FF00007DA904800888D490988401A8E49088090
:1010000013E08A4800888B49098888420ADD8748AE
:1010100000884FF6FF71081A8649098808448649F6
:10102000088002E0002084490880834800888349C2
:1010300091FBF0F08249088004217A4800F03AF9E7
:10104000002848D00421774800F018F97D4800783E
:1010500040B901207B490870724800F021F97A49B3
:10106000088038E077480078012834D1002075499D
:10107000087076480078401C74490870694800F090
:101080000FF973490880704800880988884207DA98
:101090006F4800886C490988401A6E49088013E03F
:1010A000694800886A49098888420ADD66480088DC
:1010B0004FF6FF71081A6649098808446549088097
:1010C00002E0002063490880624800885B4991FB88
:1010D000F0F0614908800821524800F0EBF8002840
:1010E00048D008214F4800F0C9F85C48007840B962
:1010F00001205A4908704B4800F0D5F8584908803B
:1011000038E056480078012834D10020534908704F
:1011100054480078401C53490870424800F0C3F816
:10112000514908804E4800880988884207DA4E48AD
:1011300000884B490988401A4C49088013E0484808
:1011400000884949098888420ADD454800884FF6E9
:10115000FF71081A4449098808444449088002E09C
:1011600000204249088041480088344991FBF0F052
:101170003F4908803F48007800F08000C0BB012153
:10118000284800F097F8D0B13A48007800F04000C5
:10119000A8B13848007800F03F003F280AD1354810
:1011A000007840F08000334908704FF6FF703249F4
:1011B000088004E02F480078401C2E490870102158
:1011C000184800F077F898B12A48007800F04000FD
:1011D00078B12848007840F080002649087011480E
:1011E00000F064F82449088000210E4800F0D3F88C
:1011F00012E000201F4908701F490880002109489B
:1012000000F0D6F81B48007840F0400019490870FB
:101210000221044800F0BFF81F21024800F02EF818
:1012200010BD000000080040CA000020CE000020D1
:10123000BA000020D0000020DA00002040420F0059
:10124000E2000020CB000020D2000020BE000020E1
:10125000D4000020DC000020E4000020CC000020AE
:10126000D6000020C2000020D8000020DE000020B0
:10127000E6000020C6000020C8000020CA43028209
:10128000704721B1028842F00102028004E0028826
:101290004FF6FE731A40028070470146888E7047F1
:1012A0000146088F70470146888F70470146B1F8A4
:1012B0004000704730B50246002000230024158A04
:1012C00005EA0103958905EA010413B10CB1012077
:1012D00000E0002030BD000070B505460C462448F3
:1012E00085420ED0234885420BD0B5F1804F08D0FF
:1012F0002148854205D02148854202D020488542B8
:1013000000D100E000BF208850B92389A2886188FD
:101310002846FFF739FBE188284600F04BF825E026
:10132000208804280AD12389A28861882846FFF7EB
:101330006BFBE188284600F046F817E02088082873
:101340000AD12389A28861882846FFF7A9FBE18892
:10135000284600F045F809E02389A28861882846DC
:10136000FFF7E6FBE188284600F043F870BD000077
:10137000002C0140003401400004004000080040FF
:10138000000C00401AB183890B43838102E08389FA
:101390008B43838170470A460021018C4DF6FF7311
:1013A00019404FF6FF7303EA023319430184704773
:1013B00081847047028B4FF6F3731A400283028BCD
:1013C0000A4302837047028B4FF2FF331A400283B5
:1013D000028B4FF6FF7303EA01231A43028370471F
:1013E000828B4FF6F3731A408283828B0A43828387
:1013F0007047828B4FF2FF331A408283828B4FF605
:10140000FF7303EA01231A43828370470022028894
:101410001D4B98420ED01D4B98420BD0B0F1804F1F
:1014200008D01B4B984205D01A4B984202D01A4B59
:10143000984204D14FF68F731A404B881A43174BCA
:10144000984207D0164B984204D04FF6FF431A40FB
:10145000CB881A4302808B8883850B8803850A4BCF
:1014600098420BD0094B984208D00E4B984205D0B9
:101470000D4B984202D00D4B984201D10B7A038656
:101480000123838270470000002C0140003401409A
:101490000004004000080040000C00400010004024
:1014A0000014004000400140004401400048014059
:1014B00010B56A48008800F0080048B16748001D70
:1014C0000088C4B24FF45871644800F01BFB00BFA1
:1014D0006248008800F08000F0B160480C3000885D
:1014E00000F08000C0B15E4801780078401C5C4A82
:1014F00010705C48405C5949091D0880104600780E
:1015000059490978884207D154480C30008820F0A6
:10151000800052490C3108805048008800F02000BB
:1015200000286ED04D49091D0988C8B24F49504A5C
:1015300012788854097824297DD14D490978491CAD
:101540004B4A117011460978891E484A515C0D2991
:1015500071D147490978491E515C0A297BD111464E
:1015600049786C2974D111468978642970D1114663
:10157000C97866296CD1114609792C2968D11146A0
:101580004979312964D1114689793A2960D138499C
:101590000978091F515C3039364A1180344909787D
:1015A000491F324A515C303901EB8101314A1288BE
:1015B00002EB41012F4A11802D490978C91F2B4A9E
:1015C000515C303901EBC10202EB0111294A12884A
:1015D00002EB8101274A1180254909780F2911D191
:1015E000234909780839214A515C303901EB41021D
:1015F000C2EBC1111F4A128802EBC1011D4A1180C2
:1016000022E029E01A49097810291DD118490978E2
:101610000839164A515C303901EB4102C2EBC11165
:10162000144A128802EBC1021149097809390F4B9B
:10163000595C303901E00EE00AE040F27123594371
:1016400002EB01110B4A11800021094A117002E0DE
:101650000021074A117000BF10BD0000004C00407F
:101660007C000020410500207D0000204006002075
:101670007E0000208000002010B56D48008800F03A
:10168000080040B16A488088C4B24FF45871684875
:1016900000F038FA00BF6648008800F08000D0B142
:1016A0006348808900F08000A8B162480178007822
:1016B000401C604A10706048405C5D49888010465C
:1016C00000785E490978884205D15948808920F020
:1016D0008000574988815648008800F02000002883
:1016E0007ED0534A9288D1B2554A564B1B78D1547A
:1016F0001278FC2A24D1534A1278521C514B1A708A
:101700001A461278042A1AD14D4A12784C4B5B784B
:101710001A444B4B9B781A44D0B2494AD278824241
:101720000AD1474A5278484B1A70454A9278474B3B
:101730001A700122464B1A700022424B1A7074E054
:101740003F4A1278FD2A23D13E4A1278521C3D4B63
:101750001A701A461278032A67D1394A1278384B20
:101760005B781A44D0B2364A927882420CD1344A1D
:101770005278384B1A801A4612883C2A01DB3C22E8
:101780001A800222324B1A7000222E4B1A704CE043
:101790002B4A1278FE2A48D12A4A1278521C294B29
:1017A0001A701A4612780A2A3FD1254A1278244B19
:1017B0005B781A44224B9B781A44214BDB781A44FD
:1017C0001F4B1B791A441E4B5B791A441C4B9B79A7
:1017D0001A441B4BDB791A44194B1B7A1A4400E05C
:1017E00024E0D0B2164A527A82421BD1144A52786F
:1017F000194B1A70124A92785A70114AD2789A701C
:101800000F4A1279DA700E4A52791A710C4A92799B
:101810005A710B4AD2799A71094A127ADA71032203
:101820000B4B1A700022074B1A7000BF10BD00004E
:101830000050004082000020540600208400002058
:1018400053070020830000204C0000204D000020A2
:101850004E000020500000205200002010B53048FB
:10186000008800F0080048B12D48001D0088C4B26F
:101870004FF458712A4800F045F900BF2848008805
:1018800000F08000F0B126480C30008800F08000A5
:10189000C0B1244801780078401C224A10702248C8
:1018A000405C1F49091D0880104600781F490978CF
:1018B000884207D11A480C30008820F0800018496F
:1018C0000C3108801648008800F0200030B3144A1C
:1018D000121D1288D1B2164A164B1B78D154154AE4
:1018E0001278521C134B1A701A4612780A2A14D115
:1018F00000221A7000200EE00D4A125C0E4B1B5C99
:101900009A4203D000220D4B1A7002E001220B4BC9
:101910001A70421CD0B20A28EEDB00BF10BD0000D6
:10192000003801405A0000207C01002065000020A2
:101930007B020020660000205B0000206700002082
:1019400010B51F48008800F0080048B11C48001D71
:101950000088C4B24FF45871194800F0D3F800BFA2
:101960001748008800F08000F0B115480C3000885E
:1019700000F08000C0B1134801780078401C114A83
:1019800010701148405C0E49091D0880104600780F
:101990000E490978884207D109480C30008820F0A8
:1019A000800007490C3108800548008800F02000BD
:1019B00020B10349091D0988C8B200BF10BD00004D
:1019C0000044004068000020DF0200206900002081
:1019D00010B54548008800F0080048B14248001D95
:1019E0000088C4B24FF458713F4800F08BF800BF34
:1019F0003D48008800F08000F0B13B480C30008882
:101A000000F08000C0B1394801780078401C374AA6
:101A100010703748405C3449091D08801046007832
:101A200034490978884207D12F480C30008820F0CB
:101A300080002D490C3108802B48008800F02000E0
:101A4000002850D0284A121D1288D1B22A4A294BA8
:101A50001B78D154274A1278521C264B1A70264AFA
:101A600012783F2A3BD11A461278042A3ADB224ADE
:101A70009278812A2FD1204AD278542A2BD11A4623
:101A80001278062A0AD11C4A12791C4B1A801A466F
:101A90001288FAB90022174B1A7023E0154A1278FF
:101AA000072A1FDB154A1288521E144B1A801A4649
:101AB00012887AB900220F4B1A70002006E00E4BF4
:101AC000821D9B5C0E4CA354421CD0B20A4A127970
:101AD0008242F4DC06E00022064B1A7002E000228B
:101AE000044B1A7000BF10BD004800406A0000207F
:101AF000DE0300206B000020DD0400206C000020CD
:101B00004C01002001F40072B2F5007F00D100BF4B
:101B1000CA430280704721B1828942F40052828117
:101B200004E082894DF6FF731A4082817047F0B558
:101B30000346002400260025002040F66A17B9421B
:101B400000D100BF1846C1F3421401F01F0601275F
:101B500007FA06F5012C01D10C3004E0022C01D16A
:101B6000103000E014301AB107682F43076002E01C
:101B70000768AF430760F0BD2DE9F04786B0054622
:101B80000E460024A24600BFA1460027B08900B13E
:101B900000BF2F462C8A4CF6FF700440F0880443A7
:101BA0002C82AC894EF6F3100440B088318908438A
:101BB000718908430443AC81AC8A4FF6FF4004406E
:101BC000B0890443AC8201A8FEF7A4FC1F488742F9
:101BD00002D1DDF810A001E0DDF80CA0A88900F426
:101BE000004040B10AEBCA0000EB0A10316849001E
:101BF000B0FBF1F807E00AEBCA0000EB0A1031680D
:101C00008900B0FBF1F86420B8FBF0F00401200972
:101C1000642101FB1089A88900F4004040B1322002
:101C200000EBC900B0FBF1F000F00700044308E04E
:101C3000322000EB09106421B0FBF1F000F00F003E
:101C400004432C8106B0BDE8F08700000038014055
:101C500000BFFEE710B586B00446012144F204003F
:101C6000FEF748FC4FF40070ADF8140003208DF827
:101C7000160018208DF8170005A91D48FEF7AFFAC9
:101C80004FF48060ADF8140004208DF8170005A90A
:101C90001748FEF7A4FA25208DF8000001208DF8E2
:101CA000010000208DF8020001208DF80300684635
:101CB000FEF7CCFB01940020ADF80800ADF80A0057
:101CC000ADF80C00ADF810000C20ADF80E0001A925
:101CD0000848FFF751FF012240F225510548FFF760
:101CE00026FF01210348FFF716FF06B010BD0000D4
:101CF00000080140003801400FB4054B10B503A99E
:101D0000044A029800F018F810BC5DF814FB0000BB
:101D10008D1E00084800002002E008C8121F08C1FC
:101D2000002AFAD170477047002001E001C1121F5C
:101D3000002AFBD1704700002DE9FF4F89B09B4678
:101D40000446002506E025280BD05A460B999047FB
:101D5000641C6D1C20780028F5D10DB02846BDE824
:101D6000F08F0027B8460122474900E0074314F8E6
:101D7000013F203B02FA03F00842F7D120782E28D9
:101D800019D114F8010F47F004072A280ED06FF07C
:101D90002F022078A0F1300109290CD808EB880126
:101DA00002EB410100EB0108641CF2E70A98641C95
:101DB00050F8048B0A9020780028CED0642808D0F0
:101DC000692806D075281ED05A460B9990476D1C7D
:101DD00058E00A994FF00A0901C90A91002802DA6D
:101DE00040422D2102E0390504D52B218DF8201029
:101DF000012103E0F90704D02021F7E78A4608AE65
:101E00000DE00021FAE70A994FF00A0901C90A9189
:101E1000F7E74946FEF7A8F9303106F8011D00281A
:101E2000F7D1ADEB060000F12009780701D44FF09F
:101E30000108C84502DDA8EB090000E0002080464B
:101E4000002706E008A85A46C05D0B9990476D1C14
:101E50007F1C5745F6DB04E030205A460B9990472B
:101E60006D1CB8F10001A8F10108F5DC05E016F8D9
:101E7000010B5A460B9990476D1CB9F10001A9F16D
:101E80000109F4DC641C65E70928010000BF054A6C
:101E9000128802F04002002AF9D0C2B2014B1B1D89
:101EA0001A80704700380140002400BF00206149BB
:101EB0000880614908806149087001210803FEF724
:101EC0007DF94FF4A060FEF7F9FAFEF7EDFCFEF79E
:101ED00059FA47214FF6FF70FEF70AFF4FF4E13041
:101EE000FFF7B8FEFEF792FA012055490860554900
:101EF000C1F8900154490860091F08600020524948
:101F0000083108604B4908805049087050490870F2
:101F1000504908701E215048FFF7B0F900BF01E09A
:101F200000BF641CB4F1807FFAD301221E214A480D
:101F3000FFF728FA7DE04948007800F00F000F28ED
:101F400068D100221E214448FFF71CFA44A0FFF785
:101F5000D3FE4448018844480088FEF7F7F9414918
:101F6000088042480078012805D10846008810B151
:101F70003FA0FFF7C1FE3B4801883EA0FFF7BCFE33
:101F80003E48018838480088FEF7E0F93B49088060
:101F900036480078012805D10846008810B134A0E1
:101FA000FFF7AAFE3548018832A0FFF7A5FE3448A6
:101FB00001882D480088FEF7C9F9314908802B486F
:101FC0000078012805D10846008810B128A0FFF745
:101FD00093FE2B4801882BA0FFF78EFE00201F499F
:101FE00008701549088016480068C0432749C1F8A1
:101FF00090011E211848FFF741F9002401E000BFBD
:10200000641CB4F1807FFAD301221E211248FFF72D
:10201000B9F900BF0848008805280ADB00200F49ED
:102020000870054908801A480068C0430549C1F88E
:10203000900180E73000002032000020B90000202D
:102040009001224200002142948122422C00002073
:102050002D0000202E00002000040040B8000020C9
:1020600030202000B2000020B00000202A00002014
:102070002D0000002564202000000000B400002096
:10208000B600002025640D0A000000000000224276
:102090009001214200030306010406020500030526
:1020A0001F1C1F1E1F1E1F1F1E1F1E1FCC200008CF
:1020B00000000020FC000000181D0008C8210008D6
:1020C000FC000020840A0000281D00080000000019
:1020D0000000000000000000000000000000000000
:1020E00000000000000000000000000000000000F0
:1020F00000000000000000000000000000000000E0
:1021000000000000000000000000000000000000CF
:1021100000000000000000000000000000000000BF
:10212000000000000000007777772E7573722E6331
:102130006E00000000000000000000000000000031
:10214000000000000000000000000000000000008F
:10215000000000000000000000000000000000007F
:10216000000000000000000000000000000000006F
:10217000000000000000000000000000000000005F
:10218000000000000000000000000000000000004F
:10219000000000000000000000000000000000003F
:1021A000000000000000000000000000000000002F
:1021B000000000000000000001020304010203040B
:0821C0000607080902040608E5
:0400000508000131BD
:00000001FF
