:020000040800F2
:1000000070440020450100088521000847210008B0
:1000100081210008D11F0008F5250008000000001C
:100020000000000000000000000000007D22000829
:10003000D51F000800000000872100086923000880
:100040005F0100085F0100085F0100085F01000810
:100050005F0100085F010008D91F00085F01000868
:100060005F0100085F0100085F0100085F010008F0
:100070005F0100085F0100085F0100085F010008E0
:100080005F0100085F0100085F0100085F010008D0
:100090005F0100085F0100085F0100085F010008C0
:1000A0005F0100085F0100085F010008E923000804
:1000B0005F0100085F0100082D2400085F010008AF
:1000C0005F0100085F0100085F0100085F01000890
:1000D0005F0100085F0100085F0100085F01000880
:1000E0005F0100085F0100085F0100085F01000870
:1000F0005F0100085F0100085F0100085F01000860
:100100005F0100085F0100085F0100085F0100084F
:100110005F0100085F0100085F0100085F0100083F
:100120005F0100085F0100085F0100085F0100082F
:10013000DFF80CD000F0FAFB00480047C12F0008A0
:10014000704400200648804706480047FEE7FEE767
:10015000FEE7FEE7FEE7FEE7FEE7FEE7FEE7FEE777
:100160008923000831010008F0B480EA0102D40FAD
:100170004200B2EB410F02D20246084611464A0045
:1001800042D0C30DDDB2C1F3C752AD1A202D35DA0E
:10019000C1F3160141F4000204B15242C5F1200638
:1001A00002FA06F12A411044B3EBD05F23D0C4B168
:1001B000012DA0EBC35009DCF0BC4FF0004202EA75
:1001C000C352DBB200F5000000F0DDBA400000F1E0
:1001D000807000EBC350A0F1807040EAD1704900FC
:1001E00009E0490841EAC071A0EBC35000F50000E6
:1001F000400800EBC350F0BC00F0BCBA61420122E1
:1002000002EB4101001BF6E7F0BC704781F00041B2
:10021000AAE780F00040A7E780EA010210B502F0EB
:100220000043400022D04A001FD0010E01EB1261B2
:10023000C0F35600C2F3560240F4000042F400023C
:10024000A0FB022000047F39140400D0401C50EAB7
:10025000124001D44000491EC2B20C0604EBD0107B
:10026000401C4008802A02D003E0002010BD20F08E
:100270000100002900DA0020184310BD30B480EAE4
:10028000010202F0004530F0004221F0004013D09E
:1002900090B1C30DD40DC2F31601C0F31600E41AD9
:1002A00041F4000140F400027D34914201D3641C0A
:1002B00000E04900002C02DA30BC002070474FF407
:1002C00000000023914201D3891A034340084FEAFA
:1002D0004101F7D151B1914202D14FF0004105E007
:1002E00002D24FF0010101E06FF0010103EBC450B5
:1002F000284430BC00F03EBA2DE9FE4F804681EA2A
:100300000300C00F0C46009021F0004123F000458F
:10031000B8EB0200A94105D24046214690461C4652
:100320000B46024623F00040104347D0270DC7F389
:100330000A00C3F30A510290401A019040286BDA78
:10034000C3F3130040F4801B0098924620B10023B1
:10035000D2EB030A63EB0B0B01985946C0F1400244
:10036000504600F0D6F906460D4650465946019AC9
:1003700000F0EEF910EB08006141002487EA115209
:1003800084EAE7731A4340D0009A62B3019A012AC3
:100390004FEA075215DC001B61EB02014FF00042EF
:1003A00002EA0752CDE90042001C41F580113246B5
:1003B0002B4600F054FA03B0BDE8F08F40462146CA
:1003C000F9E7001B61EB0201001C41F580130018E6
:1003D0005B412018A2F5001747EB030140EAD570F6
:1003E000B6196D4111E06D084FEA360645EAC07551
:1003F0004FEA0752001B61EB0201001C41F580111E
:1004000049084FEA30000019514132462B4603B0EB
:10041000BDE8F04F00F014BA00980122400000231C
:10042000D0EB020263EBE073009821464FEAE074E0
:10043000B8EB000061EB0401E9E783F000435BE700
:1004400081F0004158E72DE9FE4F81EA030404F0F2
:10045000004421F0004100944FF0000B23F00043D2
:1004600050EA01045ED052EA03045BD0C3F30A549D
:10047000C1F30A552C44A4F2F3340194A0FB0254B6
:10048000C1F3130141F48011C3F3130343F4801348
:1004900001FB024400FB034E840A970A44EA81549C
:1004A00047EA8357A4FB076802958D0A05FB078579
:1004B0004FEA932C04FB0C542705029D4FEA065883
:1004C00047EA1637B5EB08056EEB070C870E920E60
:1004D00047EA811742EA8312A7FB0201B6EB0B0140
:1004E00064EB00042B0D43EA0C335E1844EB1C5004
:1004F000DA465146E7FB0201C5F313044FEA0B331A
:1005000043EA14534FEA0432019C43EA0603A4F180
:100510000C040294009CCDE900B400F0A0F903B0F3
:10052000BDE8F08F00200146F9E72DE9F04D81EAA2
:10053000030404F0004B21F0004514464FF0000A7C
:1005400023F0004150EA050220D054EA01021DD0F8
:10055000C5F30A570246C5F31303C1F31300C1F3F1
:100560000A5640F4801543F48013A7EB0608101BCD
:10057000D64608F2FD3873EB050002D308F10108F6
:1005800001E092185B41B8F1000F03DA0020014648
:10059000BDE8F08D00204FF48011064684460EE041
:1005A000171B73EB050705D3121B63EB050306430B
:1005B0004CEA010C49084FEA300092185B4150EABE
:1005C0000107EDD152EA030012D082EA040083EA67
:1005D0000501084305D0101BAB4106D201220023C0
:1005E00006E000224FF0004302E06FF001025310DA
:1005F0001AEB06004CEB085110EB0A0041EB0B0123
:10060000BDE8F04D00F01CB9002801DBC0F100404E
:10061000002901DBC1F10041814201D20120704774
:100620000020704796230022114600F0ACB800F07D
:10063000004230F000400AD0C10D01F56071C0F3F6
:10064000160042EA0151C2084007114370470020DA
:100650000146704730B5041E71F1000404DB4FF011
:100660000044404264EB0101141E73F1000405DBF9
:100670001C464FF00043524263EB0403994208BF0B
:10068000904230BD30B50B460146002020220124A7
:1006900009E021FA02F59D4205D303FA02F5491B50
:1006A00004FA02F52844151EA2F10102F1DC30BD66
:1006B0002DE9F05F0546002092469B468846064697
:1006C000814640241BE0284641464746224600F02A
:1006D0002FF853465A46C01A914110D31146184676
:1006E000224600F016F82D1A67EB01084F46224605
:1006F0000120002100F00DF817EB00094E41201EEB
:10070000A4F10104DFDC484631462A464346BDE8F1
:10071000F09F202A04DB203A00FA02F10020704703
:100720009140C2F1200320FA03F31943904070472F
:10073000202A04DB203A21FA02F00021704721FA36
:1007400002F3D040C2F1200291400843194670479D
:10075000202A06DBCB17203A41FA02F043EAE07385
:1007600006E041FA02F3D040C2F120029140084372
:10077000194670470029A8BF7047401C490008BFB0
:1007800020F00100704710B4B0FA80FC00FA0CF0C1
:1007900050EA010404BF10BC704749B1CCF12004F9
:1007A00021FA04F411FA0CF118BF01212143084386
:1007B000A3EB0C01CB1D4FEA00614FEA102042BFB2
:1007C000002010BC704700EBC35010440029A4BFA8
:1007D00010BC7047401C490008BF20F0010010BC4D
:1007E0007047F0B4002802DCF0BC00207047C0F372
:1007F000C751C0F3160040F40000CA0701D1400001
:10080000491E3F2202EB6105002211464FF400060B
:1008100026FA01F31344D418844201D8001B1A4667
:100820004000491C1729F3DD5100814202D24FF0EC
:10083000FF3100E0002102EBC550F0BCFFF79ABF8A
:1008400010B5141E73F1000408DA401C41F10001D8
:1008500092185B411A4301D120F0010010BD2DE92F
:10086000F04D92469B4611B1B1FA81F202E0B0FA26
:1008700080F220329046FFF74CFF04460F4640EAD4
:100880000A0041EA0B0153465A46084313D0114669
:1008900053EA010019D0C8F140025046FFF748FF63
:1008A00005460E46504659464246FFF732FF08437A
:1008B00005D0012004E020463946BDE8F08D002037
:1008C000054346EAE0762C4337430A986305E40A79
:1008D000A0EB08000022FD0A44EA47540A3002D582
:1008E00000200146E9E7010510196941DDE90845E5
:1008F00000196941BDE8F04DA2E7C1F30A52C1F306
:10090000130140F2FF3341F480119A4202DA0020D1
:100910000146704740F233439A42A2F2334202DC6E
:100920005242FFF705BFFFF7F4BE0000064C074D2B
:1009300006E0E06840F0010394E8070098471034AF
:10094000AC42F6D3FFF7F8FB8C850108AC850108B3
:1009500070B58D1810F8014B14F0030201D110F896
:10096000012B231106D110F8013B03E010F8016BB5
:1009700001F8016B521EF9D1ABB110F8012B04F054
:100980000C048A1A0C2C03D0A2EB84129B1C08E0E6
:1009900010F8014BA2EB0422F8E712F8014B01F822
:1009A000014B5B1EF9D5A942D4D3002070BD0000D5
:1009B000F0B5F1B1002300BF02EB430C32F813E0B5
:1009C000BCF802C02EF0030E2CF0030C50F80E50B1
:1009D00050F80C6000EB0E0400EB0C0740F80E60C2
:1009E00040F80C507E68656802338B4266607D601B
:1009F000E2D3F0BD2DE9F04104889846164607463B
:100A0000012A0D4609D1CCB3281D214602680139BF
:100A100082F0004240F8082BF8D1FF2C0CDDB4F531
:100A2000806F10DBB4F5805F22D0B4F5006F11D079
:100A3000B4F5806F17D021E03F2C10DC102C12D0C1
:100A4000202C07D01AE0B4F5807F03D0B4F5007FE6
:100A50000ED013E03846294600F0FCF90EE0402C99
:100A600006D0802C0AD13846294600F08BF805E0E4
:100A70007A6828462146012300F03CFEB8F1000FB9
:100A800004D0B989BA682846FFF792FF012E1DD11C
:100A90002046FFF7C7FD01464FF07E50FFF7EEFB03
:100AA000002C08BFBDE8F081064600BFD5E900175D
:100AB0003046FFF7B1FB286087F000413046FFF772
:100AC000ABFB6860013C05F10805EFD1BDE8F081A2
:100AD00000224260FF294FF0FF0201800EDDB1F5D8
:100AE000806F16DB29D0B1F5805F2BD0B1F5006F98
:100AF00046D148F2AC53C0F6000336E03F2913DC80
:100B0000102924D020293BD148F2CC53C0F6000351
:100B10002BE0B1F5807F1FD0B1F5007F30D148F2D6
:100B2000EC53C0F6000320E040291AD0802927D1D9
:100B300048F28C53C0F6000317E048F27C53C0F62D
:100B4000000312E048F2DC53C0F600030DE048F267
:100B50009C53C0F6000308E048F2BC53C0F6000303
:100B600003E048F2FC53C0F60003191D03F108022C
:100B70000C331B88126809688381C0E901120022C6
:100B800050B270472DE9F04F9BB00388039101EB01
:100B900083011591426800210190B1EBD30F4FEA18
:100BA0005300029000F0458115980299DB0800EB94
:100BB0008100139003984FF0000A00EB810012901F
:100BC000149200BF1193159DDDF80C9005EB0A01FE
:100BD00012981A9109EB0A08139B59F80AC0D8F821
:100BE000044000EB0A07064603EB0A001890CDF814
:100BF0002CC00494D8F8084055F80A501094D8F83E
:100C00000C400F940C95D1E901B4C968059156F8D0
:100C10000A101791796806970891B9680A91F968DE
:100C20000E9153F80A101691416807918168C068C7
:100C300009910D9002EB0A00199060462946FFF7D2
:100C400093FA049E49F80A0030465946FFF78CFA99
:100C5000109DC8F8040028462146A146FFF784FAF3
:100C60000F9C059FC8F8080020463946FFF77CFA1C
:100C7000C8F80C00DDE90B01FFF7C8FA0C9030460C
:100C80005946FFF7C3FA0B9028464946FFF7BEFACC
:100C9000109020463946FFF7B9FA0F90DDE916109B
:100CA000FFF762FA1299DDF82080DDF81C9041F818
:100CB0000A0040464946FFF757FA069CDDF828B07F
:100CC000099F606058463946FFF74EFA0E9D0D9E0B
:100CD000A06028463146FFF747FAE060DDE91601DB
:100CE000FFF794FA069048464146FFF78FFA0890BE
:100CF00038465946FFF78AFA179030462946FFF7DB
:100D000085FA149951F80A70199916900C9E4D683D
:100D100030463946FFF780FA0B9C83462046294629
:100D2000FFF77AFA814620463946FFF775FA0446FE
:100D300030462946FFF770FA804658464946FFF785
:100D400013FA159941F80A0020464146FFF75EFA6A
:100D50001A99069C486020462946FFF75DFA089ECE
:100D6000804630463946FFF757FA814630462946D5
:100D7000FFF752FA054620463946FFF74DFA074677
:100D800040464946FFF742FA139941F80A003846AF
:100D90002946FFF7E9F91899109E48601998D0E99B
:100DA000024530462146FFF737FA0F9F8046384606
:100DB0002946FFF731FA834638462146FFF72CFAD9
:100DC000814630462946FFF727FA064640465946EF
:100DD000FFF7CAF91A9F3146B8604846FFF716FA7E
:100DE000179EF86030462946FFF716FA169F804690
:100DF00038462146FFF710FA814638462946FFF764
:100E00000BFA054630462146FFF706FA04464046EF
:100E10004946FFF7FBF9189E2946B0602046FFF7C8
:100E2000A3F9119B149A013B0AF1100AF0607FF4B8
:100E3000C9AEDDE902400223214600F05BFC0198C7
:100E400021464268159802231BB0BDE8F04F00F020
:100E500051BC00002DE9F04FADB0028889464FEA41
:100E6000520A01EB8A014FEA8A032C92229301EB8A
:100E70008A0303EB8A08CDF814800290406851F889
:100E80002A400690900803910190D9E900568B46BC
:100E9000284621461F46FFF767F926902846214637
:100EA000FFF7B4F97C680497054627903046214641
:100EB000FFF75AF9249030462146FFF7A7F9DBF8EF
:100EC00004100646239125902846FFF74DF9D8F8DF
:100ED00004402146FFF79AF959F82A802B903046B2
:100EE0004146FFF793F957F82AB05946FFF73CF906
:100EF0002A90269F41463846FFF788F95946FFF762
:100F000085F92990249D239E28463146FFF77EF9D6
:100F10002146FFF77BF9289027983146FFF776F9AD
:100F20002146FFF721F9279025984146FFF71CF944
:100F30005946FFF76BF9259038464146FFF714F9FB
:100F40005946FFF711F9C9F8000028463146FFF766
:100F50000BF92146FFF708F9DDF888C0CDF88C9031
:100F6000C9F804002B982A9949F82A0003984FEAF7
:100F7000CA0341602999002540F82A10049828994D
:100F800000244160279940F82A100598259941606E
:100F90002C996FF0010000EB9100400827900AEBBC
:100FA0004A006FF00701870001EB0A1601EB800091
:100FB0002A962C906FF0030000EBCA0100EB8A0028
:100FC00000262691259000BF069988191C90239829
:100FD000169682194E19214415951F961494219145
:100FE000C11917972B911893C118CDF888C0249276
:100FF000D2E902458E6800EB0C0B2091CF682046A9
:101000003146FFF7B1F8824620463146FFF7FEF839
:1010100006461A9028463946FFF7A6F82890284633
:101020003946FFF7F3F8CDF8A4B0DBE90294804627
:1010300030462146FFF798F8DDF8ACB0DBE90257FF
:101040003946FFF7E3F81B9040464946FFF7DEF8C4
:101050002946FFF789F8199050464946FFF7D6F818
:101060002946FFF7D3F81E9028982146FFF7CEF8BF
:101070003946FFF7CBF81D901A982146FFF7C6F8BE
:101080003946FFF771F81A9040464946FFF76CF869
:101090002946FFF7BBF8834650464946FFF764F8F8
:1010A0002946FFF761F8249CA0602998C168289818
:1010B000FFF75AF82B99C968FFF756F82799E060AF
:1010C000002900F07F81DDF88CA02A980AEB000946
:1010D000CDF84C902C980AEB000611962C90014606
:1010E00025985AF801500AEB00070A9757F8044C64
:1010F000269829460AEB00082046FFF735F8249089
:1011000020462946FFF782F83C687668CDF848B05B
:101110000746109020463146FFF726F809902046F2
:101120003146FFF773F8D8F80020D9F80410CDF84D
:10113000A0800792089106460F9010464546FFF79B
:1011400065F8044638462146FFF70EF858F8049C27
:101150000C9030464946FFF759F8DDF8A8B05546DF
:101160005AF80BA05146FEF7FFFF0B902498494612
:10117000FFF74CF85146FFF749F80E90DDF8248050
:10118000079E40463146FFF741F8089F3946FFF772
:101190003DF80D9010992046FFF738F81090504612
:1011A0004946FFF733F80F99FFF730F80F904046A4
:1011B0003146FEF7D9FF3946FEF7D6FF0A9C20607C
:1011C000289850F8041C2498FEF7CEFF55F80B1011
:1011D000AB46FEF7C9FF44F8040C1C981B9ED0E9EF
:1011E000024530462146FFF717F8199F80463846DA
:1011F0002946FFF711F8824638462146FFF70CF8DA
:10120000814630462946FFF707F8064640465146D4
:10121000FEF7AAFF299F3146B8604846FEF7F6FF61
:10122000F8600B9F29463846FEF7F6FF0C9E804675
:1012300030462146FEF7F0FF814630462946FEF74C
:10124000EBFF054638462146FEF7E6FF04464046DA
:101250004946FEF7DBFF289E294630602046FEF710
:1012600083FF46F8040C1F981E9ED0E904543046B4
:101270002946FEF7D1FF1D9F804638462146FEF7DE
:10128000CBFF824638462946FEF7C6FF81463046E8
:101290002146FEF7C1FF064640465146FEF764FF71
:1012A000209F3146B8604846FEF7B0FFF8600D9FBA
:1012B000284687F00041FEF7AFFF0E9E804630467D
:1012C0002146FEF7A9FF814630462946FEF7A4FFD6
:1012D000054638462146FEF79FFF044640464946EC
:1012E000FEF794FF1199486020462946FEF78EFFCD
:1012F0002C99DDF868A04BF801002198D0E906454B
:1013000050462146FEF788FF129E80463046294609
:10131000FEF782FF074630462146FEF77DFF8146F5
:1013200050462946FEF778FF064640463946FEF706
:101330001BFF2B9F3146B8604846FEF767FFF860F9
:101340000F9F29463846FEF767FF109E80463046BD
:101350002146FEF761FF814630462946FEF75CFFD5
:10136000054638462146FEF757FF044640464946A3
:10137000FEF74CFF1399486020462946FEF7F4FE1D
:101380002A994BF801002798013827900846A1F1C7
:101390000800DDF888C0189B179F149C159D169EA9
:1013A0002A902C980CF1080C08382C9026980833B9
:1013B000083826902598083708381834103508362C
:1013C000259001E61C981B9FD0E90245384621462E
:1013D000FEF722FF199E814630462946FEF71CFF84
:1013E000824630462146FEF717FF04463846294616
:1013F000FEF712FF054648465146FEF7B5FE299E08
:101400002946B0602046FEF701FFF0601F981E9E3F
:10141000D0E9044530462146FEF7FEFE1D9F814679
:1014200038462946FEF7F8FE824638462146FEF742
:10143000F3FE044630462946FEF7EEFE05464846D2
:101440005146FEF791FE209E2946B0602046FEF7E9
:10145000DDFEF06021981A9FD0E906453846214606
:10146000FEF7DAFE814658462946FEF7D5FE0646C7
:1014700058462146FEF7D0FE044638462946FEF778
:10148000CBFE054648463146FEF76EFE2B9E2946AA
:10149000B0602046FEF7BAFE019DF0602398069AE0
:1014A0002946042300F026F9029C03986268294625
:1014B000042300F01FF9626804982946042300F011
:1014C00019F962680598294604232DB0BDE8F04F4C
:1014D00000F010B92DE9F04381B00C460021904690
:1014E000B1EB920F054650D04FEA9809D5E90007B5
:1014F0000146FEF791FE064638463946FEF78CFE59
:1015000001463046FEF730FE01F0B6FD2060D5E919
:1015100002060146FEF780FE074630463146FEF7DA
:101520007BFE01463846FEF71FFE01F0A5FD606018
:10153000D5E904060146FEF76FFE07463046314600
:10154000FEF76AFE01463846FEF70EFE01F094FDF6
:10155000A060D5E9060605F120070146FEF75CFE0E
:10156000054630463146FEF757FE01462846FEF74F
:10157000FBFD04F1100601F07FFDE060B9F1010907
:101580003D463446B2D134463D4618F0030715D0E7
:10159000D5E900060146FEF73FFE8046304631465B
:1015A000FEF73AFE01464046FEF7DEFD01F064FD1F
:1015B00044F8040B013F05F10805E9D101B0BDE88D
:1015C000F08300002DE9F04F89B082465AF8049B61
:1015D0004E1E4FF0000B8846BBEB960F1746059347
:1015E00064D0019001203346CDE90387B10860F350
:1015F00001034FF0000B042702960093DAF808006D
:101600000891DAE900860690DAF80C004146079066
:101610004846FEF7F9FF00284C464846414618BFA9
:101620004446FEF7F1FF00282046314618BFA7F1D7
:10163000030BFEF7E9FF002825462046314618BF78
:101640003546FEF7E1FF002818BFA7F1020B069E02
:1016500028463146FEF7D8FF00282C46284631465A
:1016600018BF3446FEF7D0FF002818BFA7F1010BC2
:10167000079D20462946FEF7C7FF0028A1462046C1
:10168000294618BFA946FEF7BFFF0899002818BFD2
:10169000BB46013907F104070AF1100AAED1DDE9B2
:1016A0000010049FDDE9026800EB810A16F00300D8
:1016B00017D046424D4600BF5AF8044B48462146D3
:1016C000FEF7A2FF00284846214618BF2546FEF730
:1016D0009BFF002818BF08EB060B0136A946EBD389
:1016E00000E04D4605983D60C0F800B009B0BDE887
:1016F000F08F00002DE9F04FB5B0CDE90232009037
:1017000004300B4601901891DC084FEAC409A9EB9C
:10171000D300C000349004EB44000201209204EB9B
:101720008402D2001F922201DDF80480DD006701EF
:101730001B924FEAC00B00220594CDE919531E9766
:10174000CDE91C9B08EB070B58F8044C5BF8046CC4
:10175000204631463392FEF707FD82462046314649
:10176000FEF754FD08EB0901319151F8046C1F9903
:101770002E90414451F8047C329130463946FEF7B0
:10178000F3FC814630463946FEF740FD1B992C900C
:1017900008EB0102209952F8046C414451F8047C92
:1017A0002A91304639462992FEF7DEFC054630463E
:1017B0003946FEF72BFD1D992D904144309151F88B
:1017C000046C34993046414451F8047C2F913946D9
:1017D000FEF7CAFC044630463946FEF717FD27904F
:1017E00050462946FEF712FD259050462946FEF741
:1017F000BBFC054648462146FEF708FD26904846B4
:101800002146FEF7B1FC044628462146FEF7ACFC13
:1018100048F8040C28462146FEF7F8FC1E99D8F833
:10182000005058F801604BF8040C28463146FEF78A
:101830009BFC044628463146FEF7E8FC1C992B9099
:1018400058F801501F99284658F801603146FEF7B4
:101850008BFC834628463146FEF7D8FCDDF86C90B9
:10186000209958F8095058F80160249028463146CC
:10187000FEF77AFC824628463146FEF7C7FC1D99E2
:10188000289058F801503499284658F8016031469C
:10189000FEF76AFC074628463146FEF7B7FC239060
:1018A00020465146FEF7B2FC054620465146FEF75B
:1018B0005BFC044658463946FEF7A8FC06465846E7
:1018C0003946FEF751FC074620463946FEF74CFCE8
:1018D000C8F8000020463946FEF798FC1E99259C62
:1018E00048F8010020463146FEF73EFC299941F8B0
:1018F000040C20463146FEF789FC2A99269C41F8C3
:10190000040C28462146FEF781FC48F809002046D1
:101910002946FEF729FC20992C9C279D48F80100B8
:1019200020462946FEF772FC40F2F349C3F63579AA
:101930004946FEF771FC824620462946FEF714FC14
:101940004946FEF769FC249C239F054620463946FC
:10195000FEF75CFC4946FEF75FFC0646204639462A
:10196000FEF702FC4946FEF757FC2E9C0746204630
:101970005146FEF74BFC834620465146FEF7F4FBEA
:101980002D9C824620462946FEF740FC2E9020469C
:101990002946FEF7E9FB2B9C2C9020463146FEF7AA
:1019A00035FC2D9020463146FEF7DEFB289D04468F
:1019B00028463946FEF72AFC064628463946FEF7F1
:1019C000D3FB074650463946FEF7CEFB3199DDF88A
:1019D000709041F8040C50463946FEF717FC2F99D9
:1019E00041F8040C58463146FEF7BEFB329941F8E7
:1019F000040C5846DDF874B03146FEF707FC309908
:101A00002C9D41F8040C20462946FEF7FFFB48F8C0
:101A1000090028462146FEF7A7FB34992D9D2E9CF0
:101A200048F8010028462146FEF7F0FB1F9948F8C8
:101A3000010020462946FEF797FB339A1A9BDDE901
:101A400018151E9F1A4448F80B008A42A844FFF458
:101A500079AE402BC0F0B9820298009E80B204900B
:101A600005980024C0EBC000C0000125099000BF0C
:101A70000498039B044453F834004FEA0418179069
:101A800053F8080004EB4402169053F83200610149
:101A9000159058584FEAC20C149004EB84004FEA9A
:101AA000C00E53F830001201139098584FEAC40941
:101AB0001290C4EBC4000894C40053F8300006969A
:101AC000119009F1040018580795109008F10400CE
:101AD00018580F900CF1040018580E90081D185853
:101AE0000D900EF1040018580C90101D18580B9012
:101AF000201D185833460A90D8192E9534932F90EC
:101B00008468D3E90260214628903046FEF72CFB1A
:101B1000804630462146FEF779FB34991C9A1144E1
:101B200032918C6834991F9A01EB0209D9F8085058
:101B3000CDE92B0920462946FEF716FB82462046B2
:101B40002946FEF763FB34991B9A29901144309182
:101B50008C683499209A204611448D683191294629
:101B6000FEF702FB074620462946FEF74FFB349955
:101B7000099A8B443499DBF8084011448D683391FD
:101B80002A9020462946CDF8B4B0FEF7EDFA064675
:101B900020462946FEF73AFB269040463946FEF796
:101BA00035FB219040463946FEF7DEFA05465046A1
:101BB0003146FEF72BFB239050463146FEF7D4FA10
:101BC000064628463146FEF7CFFA34998860284603
:101BD0003146FEF71BFB2F99289CCD6822902046AA
:101BE0002946FEF7C1FA064620462946FEF70EFBB7
:101BF0003299D9F80C40CF68289038462146FEF734
:101C0000B3FA054638462146FEF700FB3099259089
:101C1000CC6831992046CF683946FEF7A5FA81464F
:101C200020463946FEF7F2FA3399DBF80C40CF68CC
:101C3000279020463946FEF797FA824620463946D5
:101C4000FEF7E4FA249030464946FEF7DFFA804674
:101C500030464946FEF788FA064628465146FEF7C2
:101C6000D5FA044628465146FEF77EFA219F0546DE
:101C700038462146FEF778FA814638462146FEF777
:101C8000C5FA219030462946FEF76EFA3499C860AD
:101C900030462946FEF7BAFA239C054640462146BF
:101CA000FEF7B4FA834620464146FEF75DFA149EDD
:101CB000DDF88880239030464146FEF7ADFADDF826
:101CC00034A0044650462946FEF7A6FA0746304699
:101CD0002946FEF7A1FA054650464146FEF79CFA12
:101CE000064620463946FEF73FFA2F9C3146A06053
:101CF0002846FEF78BFA169EE06030464946FEF70E
:101D00008BFA0F9F044638465946FEF785FA05467A
:101D100030465946FEF780FA064638464946FEF7F1
:101D20007BFA074628462146FEF71EFA309C3946C4
:101D3000A0603046FEF76AFAE060129E219C3046B1
:101D40002146FEF769FA0B9F239D804638462946B7
:101D5000FEF762FA814630462946FEF75DFA0646EE
:101D600038462146FEF758FA074648464146FEF7F0
:101D7000FBF9319C3946A0603046FEF747FAE06037
:101D8000299C269D20462946FEF740FA40F2F3465C
:101D9000C3F635763146FEF73FFA8046204629469F
:101DA000FEF7E2F93146FEF737FA259C249D81467D
:101DB00020462946FEF72AFA3146FEF72DFA074655
:101DC00020462946FEF7D0F93146FEF725FA2B9C2E
:101DD000064620464146FEF719FA8246204641460D
:101DE000FEF7C2F92A9D044628464946FEF70EFA38
:101DF000299028464946FEF7B7F9289D814628468E
:101E00003946FEF703FA2A9028463946FEF7ACF920
:101E1000279D074628463146FEF7F8F980462846B2
:101E20003146FEF7A1F9064620463146FEF79CF9F9
:101E3000834620463146FEF7E9F92B90504641464D
:101E4000FEF792F9309050464146FEF7DFF93190A7
:101E500038464946FEF7DAF9824648463946FEF7E3
:101E600083F92A9D299C804628462146FEF7CEF913
:101E70002F9020462946FEF777F9179C8146204689
:101E80005946FEF7C9F9109E054630465146FEF701
:101E9000C3F9074620465146FEF7BEF904463046D0
:101EA0005946DDF874B0FEF7B7F9064628463946BC
:101EB000FEF75AF9329D3146A8602046FEF7A6F992
:101EC000119E2B9CE86030462146FEF7A5F90A9F3B
:101ED000824638464146FEF79FF905463046414660
:101EE000FEF79AF9064638462146FEF795F9074669
:101EF00050462946FEF738F9339C3946A0603046F3
:101F0000FEF784F9E060139E309C30462146FEF7D0
:101F100083F90C9FDDF8BCA0804638465146FEF799
:101F20007BF9054630465146FEF776F906463846B7
:101F30002146FEF771F9074640462946FEF714F997
:101F40002C9C3946A0603046FEF760F9E060159E93
:101F5000319C30462146FEF75FF90E9F8046384699
:101F60004946FEF759F9054630464946FEF754F909
:101F7000064638462146FEF74FF9074640462946B1
:101F8000FEF7F2F82D9C3946A0603046FEF73EF988
:101F90002E9D1A9A349B1899E06019981E9F15443B
:101FA0008D420344FFF4A8AD079D0598069E0135B8
:101FB000089C854206F10806FFF45AAD0298059B7D
:101FC000C0003F2A02903FF69FAB35B0BDE8F08FCE
:101FD00000BFFEE77047000010B5012000F014F8C4
:101FE00040B10548006880F02000034908600120E6
:101FF00000F004F810BD00000C0C0140014908601D
:102000007047000014040140014600200022074BE5
:102010001B6803EA0102054B14331B680B4013B124
:102020000AB1012000E000207047000000040140D8
:102030002DE9F0410246002500260020002300245F
:10204000002791F803C00CF00F0591F803C00CF0C5
:10205000100CBCF1000F03D091F802C04CEA05054A
:1020600091F800C0BCF1000F31D0146800202BE0C3
:102070004FF0010C0CFA00F3B1F800C00CEA0306B3
:102080009E4220D183004FF00F0C0CFA03F7BC43A3
:1020900005FA03FC4CEA040491F803C0BCF1280FD4
:1020A00006D14FF0010C0CFA00FCC2F814C00AE093
:1020B00091F803C0BCF1480F05D14FF0010C0CFAA8
:1020C00000FCC2F810C0401C0828D1D31460B1F83D
:1020D00000C0BCF1FF0F34DD546800202EE000F199
:1020E000080C4FF0010808FA0CF3B1F800C00CEA34
:1020F00003069E4221D183004FF00F0C0CFA03F728
:10210000BC4305FA03FC4CEA040491F803C0BCF19B
:10211000280F05D100F1080C08FA0CF8C2F8148059
:1021200091F803C0BCF1480F07D100F1080C4FF043
:10213000010808FA0CF8C2F81080401C0828CED319
:102140005460BDE8F08100BFFEE7000000200FE012
:10215000014600EBD1725210074B53F82220074B77
:1021600043F820200022411C43F82120811C88B222
:10217000B0F5006FECDB704700000020301000204D
:1021800000BFFEE77047704729B1064A92690243D3
:10219000044B9A6104E0034A92698243014B9A61BD
:1021A000704700000010024030B5002100220024DA
:1021B00000232D4D6D6805F00C0121B1042905D0D7
:1021C000082923D105E0294D056022E0274D05604F
:1021D0001FE0254D6D6805F47012234D6D6805F400
:1021E0008034022505EB92421CB9214D5543056010
:1021F0000BE01D4D6D6805F400351DB11C4D5543B8
:10220000056002E0194D5543056002E0174D056079
:1022100000BF00BF144D6D6805F0F0010909154DB0
:102220006B5C0568DD4045600F4D6D6805F4E0614D
:10223000090A104D6B5C4568DD4085600A4D6D688C
:1022400005F46051C90A0B4D6B5C4568DD40C56003
:10225000054D6D6805F44041890B074D6B5CC56801
:10226000B5FBF3F5056130BD0010024000127A00A5
:1022700000093D001110002021100020704710B50A
:1022800000F002F810BD00000CB500200190009095
:102290003348006840F480303149086000BF30485E
:1022A000006800F4003000900198401C01900098F4
:1022B00018B90198B0F5A06FF1D12948006800F471
:1022C000003010B10120009001E000200090009843
:1022D000012843D12348006840F0100021490860DC
:1022E0000846006820F0030008600846006840F0D7
:1022F000020008601A48406819494860084640686A
:1023000048600846406840F480604860084640687D
:1023100020F47C1048600846406840F4E8104860AB
:102320000846006840F08070086000BF0C480068F4
:1023300000F000700028F9D00948406820F0030040
:10234000074948600846406840F00200486000BF06
:102350000348406800F00C000828F9D10CBD0000CB
:10236000001002400020024010B500F001F810BD3E
:102370000448006820B103480068401E0149086015
:10238000704700000810002010B51348006840F0A6
:1023900001001149086008464068104908400E498C
:1023A0004860084600680E4908400B490860084626
:1023B000006820F4802008600846406820F4FE0091
:1023C00048604FF41F008860FFF759FF4FF000602E
:1023D0000449086010BD0000001002400000FFF832
:1023E000FFFFF6FE08ED00E010B502210B4800F0FB
:1023F00065F8012810D10221084800F04DF807487F
:1024000000F04DF806490880044800F04BF80549F3
:10241000088001200449087010BD0000002C014014
:102420000C1000200E1000201010002010B502210A
:10243000174800F03AF8012829D10221144800F089
:102440002BF81448007810BB1248407850B9114856
:10245000007838B900210E4800F041F801200D49FC
:10246000487014E00B484078012810D109480078E2
:1024700068B9074800F016F806498860044800F07B
:102480000EF804494860012008700020487010BD13
:102490000008004040400020CA43028270470146C5
:1024A000888E70470146088F704702460020138AC5
:1024B0000B400BB1012000E00020704730B5024610
:1024C000002000230024158A05EA0103958905EA06
:1024D000010413B10CB1012000E0002030BD818463
:1024E000704721B1828942F40052828104E08289DE
:1024F0004DF6FF731A408281704702460020B1F505
:10250000007F00D100BF13880B400BB1012000E019
:10251000002070472DE9F04786B005460E4600249E
:10252000A24600BFA1460027B08900B100BF2F46D8
:102530002C8A4CF6FF700440F08804432C82AC894E
:102540004EF6F3100440B08831890843718908437E
:102550000443AC81AC8A4FF6FF400440B089044389
:10256000AC8201A8FFF720FE1F48874202D1DDF8A8
:1025700010A001E0DDF80CA0A88900F4004040B1F3
:102580000AEBCA0000EB0A1031684900B0FBF1F811
:1025900007E00AEBCA0000EB0A1031688900B0FBC3
:1025A000F1F86420B8FBF0F004012009642101FB7C
:1025B0001089A88900F4004040B1322000EBC90026
:1025C000B0FBF1F000F00700044308E0322000EB1C
:1025D00009106421B0FBF1F000F00F0004432C81DE
:1025E00006B0BDE8F087000000380140C1F30802E2
:1025F0008280704700BFFEE70FB4054B10B503A9FA
:10260000044A029800F0E0F810BC5DF814FB0000EA
:102610009D2F00082810002002E008C8121F08C1E2
:10262000002AFAD170477047002001E001C1121F53
:10263000002AFBD170470000014908607047000084
:102640002C1000202DE9FF5F82B00021DDE904306D
:10265000020DDDF840B0034318D044F61050A2F24A
:10266000FF3242431514119801281FD0A5EB0B002F
:10267000401C5FEA000A4FF000064E4FDFF8389129
:10268000B046504615D5CAF1000413E01198012454
:102690004AA3012801D16FEA0B010298119AC0E9FF
:1026A0000031C0E9024206B0BDE8F09FCBF1000066
:1026B000DFE704460021404A491842EB0450CDE9C7
:1026C000001012E0E00707D032463B46404649463C
:1026D000FDF7B9FE8046894632463B46104619460C
:1026E000FDF7B1FE06460F466410002CEAD1DDE985
:1026F0000401DDE90023BAF1000F06DAFDF7A3FEBD
:1027000042464B46FDF79FFE05E0FDF70EFF4246B1
:102710004B46FDF70AFF04460E460022284BFDF704
:1027200099FF03D84FF0FF30014607E00022254B08
:1027300020463146FDF7E0FDFEF7DFF8102409E002
:10274000002C0ADB0A220023FDF7B2FF039B303284
:102750001A55641E50EA0102F2D1641C039AC4F1B6
:1027600011031444119A012A03D0012208430DD108
:102770000AE0084304D000204FF0110B119072E7DB
:10278000A3EB0B056D1E0DE05B4504DD4FF0000271
:1027900005F1010504E003DA4FF00002A5F101059F
:1027A000002AECD002981199C0E90231C0E9004535
:1027B00079E70000000014400000F03F3000000006
:1027C0000000F0430000E03F2DE9FF4F95B09B462D
:1027D0008946064600250FE2252877D100242746A2
:1027E000F84A0121059400E0044316F8013F203B1C
:1027F00001FA03F01042F7D130782A2811D06FF097
:102800002F033078A0F13002092A16D8059A44F037
:10281000020402EB820203EB42021044761C059094
:10282000EFE759F8042B0592002A03DA504244F4EA
:102830000054059044F00204761C30782E2816D1FE
:1028400016F8010F44F004042A280DD06FF02F026F
:102850003078A0F13003092B09D807EB870302EB8E
:102860004303C718761CF3E759F8047B761C3078CD
:102870006C280FD006DC4C2817D068280DD06A28A9
:1028800014D104E0742810D07A280FD10DE044F45C
:1028900000140AE044F4801401E044F44014727817
:1028A000824202D104F58014761C761C30786628AA
:1028B0000BD013DC582877D009DC002875D04528C8
:1028C000F6D04628F4D047281AD19DE118E06328B5
:1028D00035D0642879D0652812D195E1702873D05D
:1028E00008DC6728F1D069286FD06E280DD06F28DA
:1028F00006D1B5E073282CD0752875D0782874D00F
:102900005A46179990476D1C75E1C4F3025002288E
:1029100009D003280DD0D9F8001004280DD00D607F
:1029200009F1040967E1D9F80010EA17C1E900527A
:10293000F6E7D9F800100D80F2E70D70F0E719F80E
:10294000041B8DF8001000208DF80100EA460120DC
:1029500003E059F804AB4FF0FF3061074FF000017E
:1029600002D40DE008F101018846B9420FDA804532
:10297000F8DB1AF808100029F4D108E008F1010189
:1029800088468142FADB1AF808100029F6D105982A
:102990005B46A0EB080721463846179A00F094FAE8
:1029A000284400EB080507E04DE029E10DE01AF8A6
:1029B000010B5A4617999047B8F10108F7D25B46C8
:1029C00021463846179A13E142E00A220092C4F3E6
:1029D00002524FF0000A022A08D059F804CB032A09
:1029E0004FEAEC710AD00DE029E02AE009F1070175
:1029F00021F00702F2E802C1914609E00FFA8CFCCF
:102A00004FEAEC71042A03D14FFA8CFC4FEAEC71C7
:102A1000002907DA0A460021DCF1000C61EB020113
:102A20002D2202E0220504D52B228DF8042001225C
:102A300003E0E20701D02022F7E7904659E00A219F
:102A400002E010220DE010214FF0000A00910BE08F
:102A500010224FF0000A44F004040827009203E01B
:102A600008224FF0000A0092C4F30252022A05D055
:102A700059F804CB0021032A08D009E009F1070125
:102A800021F00702F2E802C1914605E01FFA8CFC32
:102A9000042A01D10CF0FF0C4FF00008220728D5C2
:102AA000702806D0009B83F0100353EA0A0305D078
:102AB0000EE040228DF80420012208E05CEA0102C9
:102AC00006D030228DF804208DF8050002229046B1
:102AD000009B83F0080353EA0A030AD15CEA01026F
:102AE00001D1620705D530228DF804204FF001088E
:102AF0007F1E582804D034A003900EA802900DE049
:102B000036A0F9E753466046009AFDF7D1FD8446AA
:102B10000398825C0298401E029002705CEA0100F9
:102B2000F0D1029806A9081A00F1200A600702D520
:102B300024F4803400E00127574502DDA7EB0A00AA
:102B400000E0002000EB0A01009005984144401A83
:102B50000590E00306D45B462146179A059800F0DD
:102B6000B3F90544002706E001A85A46C05D17994D
:102B700090476D1C7F1C4745F6DBE0030CD55B4698
:102B80002146179A059800F09FF9054404E030208B
:102B90005A46179990476D1C0099481E00900029CD
:102BA000F5DC08E0029802995A460078491C029127
:102BB000179990476D1CBAF10001AAF1010AF1DCE6
:102BC00065E10000092801003031323334353637F1
:102BD0003839616263646566000000003031323369
:102BE0003435363738394142434445460000000009
:102BF00000F058F90544761C307800287FF4ECADDD
:102C000019B02846BDE8F08F620700D4062709F105
:102C1000070222F0070CFCE80223E14603F000481B
:102C20005FEA080C02D00FF2702C0DE05FEA045C42
:102C300002D50FF2682C07E05FEAC47C02D00FF2E5
:102C4000602C01E0AFF2700C4FF0FF3823F000432E
:102C5000CDF850C065280CD006DC452809D04628A0
:102C60001DD047283DD13DE0662818D067287ED189
:102C700038E00021112F01DB112000E0781CCDE9A4
:102C8000000106A90EA8FFF7DDFCDDE90F010E9A91
:102C900003910021009207F1010A04914DE04FF0E9
:102CA00000400097CDE9011006A90EA8FFF7CAFC65
:102CB000DDE90F0203920E9B11990022DDF80CA0B2
:102CC0000093049211B9791C00EB010AB7EB0A00DA
:102CD00004D4C0F1FF3007F1010A0490AAEB070009
:102CE000019044E0012F00DA01270021112F01DDBE
:102CF000112000E03846CDE9000106A90EA8FFF733
:102D0000A1FCDDE90F010E9A0391002104910092CC
:102D1000BA4621070CD40399514500DA8A46BAF124
:102D2000010F05DD009AAAF10101515C302908D09C
:102D3000B84202DA10F1040F06DA0121CDE90110E0
:102D400015E0AAF10101E9E7002805DC0499014436
:102D50000491AAEB000102E0411C514500DD8A46C6
:102D60000499401A401C01904FF000400290200747
:102D700004D40198504501DBCDF8048000208DF883
:102D80004F0002980DF14F07B0F1004F25D02B20D6
:102D90000E9002984FF0020800280CDA4042029090
:102DA0002D200E9007E00A210298FDF76BFC3031D0
:102DB000029007F8011DB8F10001A8F10108F2DC4A
:102DC00002980028EFD1791E0E980870307800F034
:102DD000200040F0450007F8020D12A8C01B00F1CA
:102DE00007081498007800B1012000EB0A0101984F
:102DF00001EBE07105984144401A401E0590E00344
:102E000006D45B462146179A059800F05DF8054404
:102E10001498007818B15A46179990476D1CE00332
:102E200024D55B462146179A059800F04DF80544D5
:102E30001CE00498002807DBDDE90301884203DD7C
:102E40000098405C179901E0179930205A46904746
:102E5000049805F10105401C04900198401E019062
:102E600004D12E205A46179990476D1CBAF10001E3
:102E7000AAF1010ADDDC05E017F8010B5A461799A3
:102E800090476D1CB8F10001A8F10108F4DC5B4625
:102E90002146179A0598ABE62D0000002B00000094
:102EA000200000002DE9F041044600251E4617468B
:102EB000880404D405E039462020B0476D1C641E08
:102EC000F9D52846BDE8F0812DE9F04104460025FA
:102ED0001E469046C80301D5302700E0202788040D
:102EE00004D505E041463846B0476D1C641EF9D54F
:102EF0002846BDE8F081000010B586B004460121E7
:102F00000420FFF741F901218803FFF73DF918205C
:102F10008DF817004FF40070ADF8140003208DF801
:102F2000160005A91348FFF783F804208DF8170051
:102F30000002ADF8140003208DF8160005A90D4815
:102F4000FFF776F801940020ADF810000C20ADF8E2
:102F50000E000020ADF80C00ADF80A00ADF8080036
:102F600001A90548FFF7D6FA01210348FFF7B9FA8E
:102F700006B010BD000801400038014070B504469D
:102F80000D4629462046FFF731FB00BF8021204631
:102F9000FFF7B3FA0028F9D070BD000070B5044601
:102FA0000D46E1B20548FFF7E9FF00BF8021034865
:102FB000FFF7A3FA0028F9D0204670BD0038014081
:102FC0004FF4E130FFF798FF4FF480612348FDF79D
:102FD0007FFDFFF7BBF80123002221491F48FDF7C1
:102FE00009FD4FF480621F491D48FEF773FA1E4B1E
:102FF0001E4A4FF480611B48FEF7E4FA002428E0E3
:1030000084B9184951F824004FF08941FDF736F989
:103010000746FDF70CFB05462A460B4614A0FFF7B2
:10302000EBFA14E00F4951F824004FF08941FDF705
:1030300025F980464FF08041FDF7EEF80546FDF793
:10304000F6FA064632460B4609A0FFF7D5FA601C91
:1030500084B2B4F5007FD3DD00BFFEE7304000202E
:10306000301000203030002004100020001000201C
:10307000256C662C0000000070B50546FDF7B1FB1D
:10308000044620F00040C0F1FF40C00F08D025F0FA
:103090000040C0F1FF40C00F04BF0120FFF7CCFA91
:1030A000204670BD08000010100000021800001239
:1030B000200000042800001430000006380000162C
:1030C00040000008480000185000000A5800001A8C
:1030D0006000000C6800001C7000000E7800001EEC
:1030E00080000008880040109000400298004012C4
:1030F000A0004004A8004014B0004006B8004016EC
:10310000C0004008C8004018D000400AD800401A4B
:10311000E000400CE800401CF000400EF800401EAB
:1031200000010008080180101001800218018012BF
:1031300020018004280180143001800638018016A7
:1031400040018008480180185001800A5801801A07
:103150006001800C6801801C7001800E7801801E67
:10316000800140088801C0109001C0029801C0127F
:10317000A001C004A801C014B001C006B801C01667
:10318000C001C008C801C018D001C00AD801C01AC7
:10319000E001C00CE801C01CF001C00EF801C01E27
:1031A00000020008080200111002000318020013B8
:1031B000200200052802001530020007380200171F
:1031C00040020009480200195002000B5802001B7F
:1031D0006002000D6802001D7002000F7802001FDF
:1031E0008002800888024011900240039802401338
:1031F000A0024005A8024015B0024007B8024017DF
:10320000C0024009C8024019D002400BD802401B3E
:10321000E002400DE802401DF002400FF802401F9E
:103220000003400808038011100380031803801373
:10323000200380052803801530038007380380179A
:1032400040038009480380195003800B5803801BFA
:103250006003800D6803801D7003800F7803801F5A
:103260008003C0088803C0119003C0039803C013F3
:10327000A003C005A803C015B003C007B803C0175A
:10328000C003C009C803C019D003C00BD803C01BBA
:10329000E003C00DE803C01DF003C00FF803C01F1A
:1032A000000400100804081010040011180408128B
:1032B00020040810280408143004080638040816EE
:1032C00040040808480408185004080A5804081A5A
:1032D0006004080C6804081C7004080E7804081EBA
:1032E00080040018880448109004001998044812BB
:1032F000A0040818A8044814B0044806B8044816E6
:10330000C0044808C8044818D004480AD804481A19
:10331000E004480CE804481CF004480EF804481E79
:103320000005401008058810100540111805881286
:1033300020054810280588143005880638058816A9
:1033400040058808480588185005880A5805881AD5
:103350006005880C6805881C7005880E7805881E35
:10336000800540188805C810900540199805C812B6
:10337000A0054818A805C814B005C806B805C816A1
:10338000C005C808C805C818D005C80AD805C81A95
:10339000E005C80CE805C81CF005C80EF805C81EF5
:1033A0000006801008060811100680111806081380
:1033B0002006881028060815300608073806081762
:1033C00040060809480608195006080B5806081B4D
:1033D0006006080D6806081D7006080F7806081FAD
:1033E00080068018880648119006801998064813B0
:1033F000A0068818A8064815B0064807B80648175A
:10340000C0064809C8064819D006480BD806481B0C
:10341000E006480DE806481DF006480FF806481F6C
:103420000007C010080788111007C011180788137B
:103430002007C8102807881530078807380788171D
:1034400040078809480788195007880B5807881BC8
:103450006007880D6807881D7007880F7807881F28
:103460008007C0188807C8119007C0199807C813AB
:10347000A007C818A807C815B007C807B807C81715
:10348000C007C809C807C819D007C80BD807C81B88
:10349000E007C80DE807C81DF007C80FF807C81FE8
:1034A0000808101010084008180810122008001111
:1034B0002808101430088011380810164808101811
:1034C0005008100A5808101A6008100C6808101CE0
:1034D0007008100E7808101E8008000A8808501026
:1034E0009008000B98085012A008080AA808501469
:1034F000B008080BB8085016C008100AC8085018C1
:10350000D008500AD808501AE008500CE808501C9F
:10351000F008500EF808501E080990101009800994
:1035200018099012200900192809901430098019EF
:10353000380990164009000B480990185009900A64
:103540005809901A6009900C6809901C7009900E37
:103550007809901E8009400A8809D0109009400B14
:103560009809D012A009480AA809D014B009480B3C
:10357000B809D016C009500AC809D018D009D00A15
:10358000D809D01AE009D00CE809D01CF009D00EF7
:10359000F809D01E080A1011180A1013200A401149
:1035A000280A1015300AC011380A1017480A1019D5
:1035B000500A100B580A101B600A100D680A101DE3
:1035C000700A100F780A101F880A5011900A800B99
:1035D000980A5013A00A5011A80A5015B00A880B77
:1035E000B80A5017C00A800BC80A5019D00A500BED
:1035F000D80A501BE00A500DE80A501DF00A500F7F
:10360000F80A501F080B9011180B9013200B40194B
:10361000280B9015300BC019380B9017480B9019D8
:10362000500B900B580B901B600B900D680B901D6E
:10363000700B900F780B901F880BD011900BC00B64
:10364000980BD013A00B5019A80BD015B00BC80BBA
:10365000B80BD017C80BD019D80BD01BE00BD00D6E
:10366000E80BD01DF00BD00FF80BD01F000C001290
:10367000080C1810100C0013180C1812200C08124B
:10368000280C1814300C0813380C1816400C1012A3
:10369000480C1818500C1013580C181A600C1812FB
:1036A000680C181C700C180E780C181E800C001A70
:1036B000880C5810900C001B980C5812A00C081A7B
:1036C000A80C5814B00C081BB80C5816C00C101AD3
:1036D000C80C5818D00C101BD80C581AE00C181A2B
:1036E000E80C581CF00C580EF80C581E000D401237
:1036F000080D9810100D4013180D9812200D481247
:10370000280D9814300D4813380D9816400D50129E
:10371000480D9818500D5013580D981A600D5812F6
:10372000680D981C700D980E780D981E800D401A2B
:10373000880DD810900D401B980DD812A00D481A76
:10374000A80DD814B00D481BB80DD816C00D501ACE
:10375000C80DD818D00D501BD80DD81AE00D581A26
:10376000E80DD81CF00DD80EF80DD81E000E8012F2
:10377000080E1811100E8013180E1813200E881240
:10378000280E1815300E8813380E1817400E901298
:10379000480E1819500E9013580E181B600E9812F0
:1037A000680E181D700E180F780E181F800E801AE4
:1037B000880E5811900E801B980E5813A00E881A70
:1037C000A80E5815B00E881BB80E5817C00E901AC8
:1037D000C80E5819D00E901BD80E581BE00E981A20
:1037E000E80E581DF00E580FF80E581F000FC012AB
:1037F000080F9811100FC013180F9813200FC8123C
:10380000280F9815300FC813380F9817400FD01293
:10381000480F9819500FD013580F981B600FD812EB
:10382000680F981D700F980F780F981F800FC01A9F
:10383000880FD811900FC01B980FD813A00FC81A6B
:10384000A80FD815B00FC81BB80FD817C00FD01AC3
:10385000C80FD819D00FD01BD80FD81BE00FD81A1B
:10386000E80FD81DF00FD81BF80FD81F0810201034
:10387000101040101810201228102014301088103A
:103880003810201640100011481020185010401118
:103890005810201A601008126810201C701088122E
:1038A0007810201E8010001288100812901040120C
:1038B00098106012A0102012A8106014B0106012AE
:1038C000B8106016C0100013C8106018D010401354
:1038D000D810601AE0101812E810601CF01098124E
:1038E000F810601E08112012101140111811A012BA
:1038F000201108182811A014301188183811A016AA
:103900004811A0185811A01A6011081A6811A01CBB
:103910007011881A7811A01E8011101288111812C7
:10392000901150129811E012A0111818A811E0146B
:10393000B0119818B811E016C0111013C811E01892
:10394000D0115013D811E01AE011181AE811E01C38
:10395000F011981AF811E01E001200180812081849
:1039600010124018181220132012201828122015A7
:10397000301260183812201740120019481220190E
:10398000501240195812201B601220196812201D75
:103990007012C8127812201F8012001A8812081A9A
:1039A0009012401A98126013A012201AA8126015E3
:1039B000B012601AB8126017C012001BC81260194A
:1039C000D012401BD812601BE012201BE812601DB1
:1039D000F012601BF812601F00131018081318185B
:1039E000101350181813A013201348182813A015EB
:1039F0003013C8183813A017401310194813A01912
:103A0000501350195813A01B6013481A6813A01DB7
:103A10007013C81A7813A01F8013101A8813181A6D
:103A20009013501A9813E013A0135818A813E01518
:103A3000B013D818B813E017C013101BC813E0193F
:103A4000D013501BD813E01BE013581AE813E01DE5
:103A5000F013D81AF813E01F0814201410140015DE
:103A600018142015301408153814281640140015A1
:103A700048142818501410155814281A60142015CA
:103A80006814281C701418157814281E8014001C43
:103A90008814201C9014001D9814201DA014081CCC
:103AA000A814281CB014081DB8146816C014101CE3
:103AB000C8146818D014101DD814681AE014181C03
:103AC000E814681CF014181DF814681E0815201559
:103AD0001015401518156015201528182815281CD4
:103AE000301548153815A8164815A8185815A81ADD
:103AF0006015281A6815A81C7015A81A7815A81E34
:103B00008015401C8815601C9015401D9815601D7F
:103B1000A015481CA815681CB015481DB815E81656
:103B2000C015501CC815E818D015501DD815E81A36
:103B3000E015581CE815E81CF015581DF815E81E8E
:103B40000016001C0816081C1016401C1816481CED
:103B50002016201C2816281C3016601C3816281722
:103B60004016001D481628195016401D5816281BCF
:103B70006016201D6816281D7016601D7816281FF7
:103B80008016801C8816A01C9016801D9816A01DFB
:103B9000A016881CA816A81CB016881DB816681791
:103BA000C016901CC8166819D016901DD816681B30
:103BB000E016981CE816681DF016981DF816681F88
:103BC0000017101C0817181C1017501C1817581C29
:103BD000201768182817681C3017E8183817A81716
:103BE0004017101D4817A8195017501D5817A81B2B
:103BF0006017681A6817A81D7017E81A7817A81FA9
:103C00008017C01C8817E01C9017C01D9817E01D76
:103C1000A017C81CA817E81CB017C81DB817E817CC
:103C2000C017D01CC817E819D017D01DD817E81B2B
:103C3000E017D81CE817E81DF017D81DF817E81F83
:103C400018186018301848183818601C5818301A9E
:103C50006818301C7018181A7818301E8018001A4E
:103C60008818081A9018001B98186019A018201AB4
:103C7000A818281AB018201BB818601DC018101AF0
:103C8000C818181AD018101BD818701AE018301A53
:103C9000E818701CF018581AF818701E0819201926
:103CA0001819601A2819081D301988193819881D23
:103CB0004819201B5819B01A6019081B6819B01C44
:103CC0007019881B7819B01E8019401A8819481A73
:103CD0009019401B9819601BA019601AA819181D8B
:103CE000B019601BB819981DC019501AC819581A74
:103CF000D019501BD819F01AE019181BE819F01C3C
:103D0000F019981BF819F01E381A701C581A301B3D
:103D1000681A301D701A181B781A301F901AC01AB2
:103D2000981AC81AB01AE01AB81AE81AC01A801BF2
:103D3000C81A881BD01AC01BD81A701BE01AA01B07
:103D4000E81A701DF01AE01BF81A701F281B481D96
:103D5000381BC81D481B601B581BB01B681BB01DBF
:103D6000701BC81B781BB01F901BC01B981BC81B67
:103D7000A81B581DB01BE01BB81BD81DD81BF01B7F
:103D8000E81BF01DF81BF01F081C201C181C301C21
:103D9000381C681C481C601C581C701C781C381E81
:103DA000801C001E881C201E901C001F981C201FB9
:103DB000A01C081EA81C281EB01C081FB81C281F09
:103DC000C01C101EC81C301ED01C101FD81C301F59
:103DD000E01C181EE81C381EF01C181FF81C781E6A
:103DE000081D201D181D301D381DA81D481D601DF3
:103DF000581D701D681D281F781DB81E801D401E8F
:103E0000881D601E901D401F981D601FA01D481E2C
:103E1000A81D681EB01D481FB81D681FC01D501E7C
:103E2000C81D701ED01D501FD81D701FE01D581ECC
:103E3000E81D781EF01D581FF81DF81E081E201ED4
:103E4000181E301E481E601E581E701E781E381F19
:103E5000881EA01E901E801F981EA01FB01E881FC7
:103E6000B81EA81FC01E801FC81E881FD01E901F0E
:103E7000D81EB01FE01EA01FE81EA81FF01E981F2E
:103E8000F81E781F081F201F181F301F481F601FB3
:103E9000581F701F781FB81F881FA01F901FC01FBA
:103EA000981FE01FB01FC81FB81FE81FC81FE01FE2
:103EB000D81FF01F08000002100040001800400248
:103EC00020008000280080023000C0003800C002BE
:103ED000400000014800000350004001580040032A
:103EE00060008001680080037000C0017800C0039A
:103EF0008000000288000802900000039800480239
:103F0000A0000802A8008802B000C800B800C802DB
:103F1000C0000801C8000803D0004801D8004803C9
:103F2000E0008801E8008803F000C801F800C80339
:103F30000801100210014001180150022001000385
:103F400028019002300148013801D00248011003D5
:103F50005801500360019001680190037001D00185
:103F60007801D003800140028801180290014003CB
:103F700098015802A0014802A8019802B001480324
:103F8000B801D802C0015002C8011803D001500383
:103F9000D8015803E0015802E8019803F0015803E2
:103FA000F801D80308022002100240021802600241
:103FB0002802A002300260023802E0024002000340
:103FC00048022003500240035802600360022003AD
:103FD0006802A003700260037802E0038802A00276
:103FE000900280039802A003B0028803B802E8029E
:103FF000C0028003C8022803D0029003D8026803DD
:10400000E002A003E802A803F0029803F802E80324
:1040100008032003100340031803600328038803E8
:1040200030036003380398034803600358037003A8
:104030006803B0037803F0038803A0039003C00370
:104040009803E003B003C803B803E803C803E00320
:10405000D803F0030800400018004800100040009A
:104060002800500020004000380058003000480070
:1040700058006800480060006800700008000010E8
:10408000100000201800003020000002280000125C
:1040900030000022380000324000000448000014C4
:1040A000500000245800003460000006680000162C
:1040B0007000002678000036800000088800001894
:1040C0009000002898000038A000000AA800001AFC
:1040D000B000002AB800003AC000000CC800001C64
:1040E000D000002CD800003CE000000EE800001ECC
:1040F000F000002EF800003E00010004080140100E
:1041000010014020180140302001400228014012D7
:10411000300140223801403240014004480140143F
:1041200050014024580140346001400668014016A7
:10413000700140267801403680014008880140180F
:104140009001402898014038A001400AA801401A77
:10415000B001402AB801403AC001400CC801401CDF
:10416000D001402CD801403CE001400EE801401E47
:10417000F001402EF801403E0002000808028010C5
:104180001002802018028030200280022802801253
:1041900030028022380280324002800448028014BB
:1041A0005002802458028034600280066802801623
:1041B000700280267802803680028008880280188B
:1041C0009002802898028038A002800AA802801AF3
:1041D000B002802AB802803AC002800CC802801C5B
:1041E000D002802CD802803CE002800EE802801EC3
:1041F000F002802EF802803E0003000C0803C0107D
:104200001003C0201803C0302003800C2803C01204
:104210003003C0223803C0324003C0044803C01436
:104220005003C0245803C0346003C0066803C0169E
:104230007003C0267803C0368003C0088803C01806
:104240009003C0289803C038A003C00AA803C01A6E
:10425000B003C02AB803C03AC003C00CC803C01CD6
:10426000D003C02CD803C03CE003C00EE803C01E3E
:10427000F003C02EF803C03E080400111004002112
:10428000180400312004000C28040013300400231B
:10429000380400334004000548040015500400258C
:1042A00058040035600400076804001770040027F4
:1042B000780400378004000988040019900400295C
:1042C00098040039A004000BA804001BB004002BC4
:1042D000B804003BC004000DC804001DD004002D2C
:1042E000D804003DE004000FE804001FF004002F94
:1042F000F804003F08054011100540211805403121
:104300002005000D280540133005402338054033B3
:1043100048054015500540255805403560054007C3
:10432000680540177005402778054037800540092B
:10433000880540199005402998054039A005400B93
:10434000A805401BB005402BB805403BC005400DFB
:10435000C805401DD005402DD805403DE005400F63
:10436000E805401FF005402FF805403F00064008D3
:104370000806801110068021180680312006C0082A
:104380002806801330068023380680334006400913
:10439000480680155006802558068035600680073F
:1043A00068068017700680277806803780068009A7
:1043B000880680199006802998068039A006800B0F
:1043C000A806801BB006802BB806803BC006800D77
:1043D000C806801DD006802DD806803DE006800FDF
:1043E000E806801FF006802FF806803F0007400C8B
:1043F0000807C0111007C0211807C0312007C00CE2
:104400002807C0133007C0233807C0334007400DCA
:104410004807C0155007C0255807C0356007C007BA
:104420006807C0177007C0277807C0378007C00922
:104430008807C0199007C0299807C039A007C00B8A
:10444000A807C01BB007C02BB807C03BC007C00DF2
:10445000C807C01DD007C02DD807C03DE007C00F5A
:10446000E807C01FF007C02FF807C03F0008001082
:1044700008080810100808201808083020088010C4
:1044800028080812300808223808083240080011AD
:104490004808081450080824580808346008801197
:1044A000680808167008082678080836800808107A
:1044B000880808189008082898080838A008080AEA
:1044C000A808081AB008082AB808083AC008080C52
:1044D000C808081CD008082CD808083CE008080EBA
:1044E000E808081EF008082EF808083E0009001425
:1044F000080948101009482018094830200980147C
:104500002809481230094822380948324009001564
:10451000480948145009482458094834600980154E
:104520006809481670094826780948368009081431
:10453000880948189009482898094838A009480A65
:10454000A809481AB009482AB809483AC009480CCD
:10455000C809481CD009482CD809483CE009480E35
:10456000E809481EF009482EF809483E000A0018DC
:10457000080A8810100A8820180A8830200A801833
:10458000280A8812300A8822380A8832400A00191C
:10459000480A8814500A8824580A8834600A801906
:1045A000680A8816700A8826780A8836800A0818E9
:1045B000880A8818900A8828980A8838A00A8818D3
:1045C000A80A881AB00A882AB80A883AC00A880C49
:1045D000C80A881CD00A882CD80A883CE00A880EB1
:1045E000E80A881EF00A882EF80A883E000B001C94
:1045F000080BC810100BC820180BC830200B801CEB
:10460000280BC812300BC822380BC832400B001DD3
:10461000480BC814500BC824580BC834600B801DBD
:10462000680BC816700BC826780BC836800B081CA0
:10463000880BC818900BC828980BC838A00B881C8A
:10464000A80BC81AB00BC82AB80BC83AC00BC80CC4
:10465000C80BC81CD00BC82CD80BC83CE00BC80E2C
:10466000E80BC81EF00BC82EF80BC83E000C40101B
:10467000080C0811100C0821180C0831200CC0106F
:10468000280C0813300C0823380C0833400C401158
:10469000480C0815500C0825580C0835600CC01142
:1046A000680C0817700C0827780C0837800C481025
:1046B000880C0819900C0829980C0839A00CC8100F
:1046C000A80C081BB00C082BB80C083BC00C080D3C
:1046D000C80C081DD00C082DD80C083DE00C080FA4
:1046E000E80C081FF00C082FF80C083F000D4014D0
:1046F000080D4811100D4821180D4831200DC01427
:10470000280D4813300D4823380D4833400D40150F
:10471000480D4815500D4825580D4835600DC015F9
:10472000680D4817700D4827780D4837800D4814DC
:10473000880D4819900D4829980D4839A00DC814C6
:10474000A80D481BB00D482BB80D483BC00D4815AF
:10475000C80D481DD00D482DD80D483DE00D480F1F
:10476000E80D481FF00D482FF80D483F000E401887
:10477000080E8811100E8821180E8831200EC018DE
:10478000280E8813300E8823380E8833400E4019C7
:10479000480E8815500E8825580E8835600EC019B1
:1047A000680E8817700E8827780E8837800E481894
:1047B000880E8819900E8829980E8839A00EC8187E
:1047C000A80E881BB00E882BB80E883BC00E481967
:1047D000C80E881DD00E882DD80E883DE00E880F9B
:1047E000E80E881FF00E882FF80E883F000F401C3F
:1047F000080FC811100FC821180FC831200FC01C96
:10480000280FC813300FC823380FC833400F401D7E
:10481000480FC815500FC825580FC835600FC01D68
:10482000680FC817700FC827780FC837800F481C4B
:10483000880FC819900FC829980FC839A00FC81C35
:10484000A80FC81BB00FC82BB80FC83BC00F481D1E
:10485000C80FC81DD00FC82DD80FC83DE00FC81D08
:10486000E80FC81FF00FC82FF80FC83F0010002036
:104870000810101010101020181010302010802078
:104880002810101230101022381010324010002161
:10489000481010145010102458101034601080214B
:1048A000681010167010102678101036801008202E
:1048B000881010189010102898101038A010882018
:1048C000A810101AB010102AB810103AC010082101
:1048D000C810101CD010102CD810103CE0108821EB
:1048E000E810101EF010102EF810103E00110024D9
:1048F000081110241011502018115030201180245C
:104900002811501230115022381150324011002518
:104910004811501450115024581150346011802502
:1049200068115016701150267811503680110824E5
:10493000881150189011502898115038A0118824CF
:10494000A811501AB011502AB811503AC0110825B8
:10495000C811501CD011502CD811503CE0118825A2
:10496000E811501EF011502EF811503E0012002890
:10497000081210281012902018129030201280284F
:1049800028129012301290223812903240120029D0
:1049900048129014501290245812903460128029BA
:1049A000681290167012902678129036801208289D
:1049B000881290189012902898129038A012882887
:1049C000A812901AB012902AB812903AC012082970
:1049D000C812901CD012902CD812903CE01288295A
:1049E000E812901EF012902EF812903E0013002C48
:1049F0000813102C1013D0201813D0302013802C43
:104A00002813902C3013D0223813D0324013002DAD
:104A10004813D0145013D0245813D0346013802D71
:104A20006813D0167013D0267813D0368013082C54
:104A30008813D0189013D0289813D038A013882C3E
:104A4000A813D01AB013D02AB813D03AC013082D27
:104A5000C813D01CD013D02CD813D03CE013882D11
:104A6000E813D01EF013D02EF813D03E00144020CF
:104A70000814502010141021181410312014C020D4
:104A80002814D0203014102338141033401440213F
:104A90004814101550141025581410356014C021F6
:104AA00068141017701410277814103780144820D9
:104AB000881410199014102998141039A014C820C3
:104AC000A814101BB014102BB814103BC0144821AC
:104AD000C814101DD014102DD814103DE014C82196
:104AE000E814101FF014102FF814103F0015402484
:104AF0000815502410155021181550312015C024C8
:104B00002815D02430155023381550334015402532
:104B10004815501550155025581550356015C025AD
:104B20006815501770155027781550378015482490
:104B3000881550199015502998155039A015C8247A
:104B4000A815501BB015502BB815503BC015482563
:104B5000C815501DD015502DD815503DE015C8254D
:104B6000E815501FF015502FF815503F001640283B
:104B70000816502810169021181690312016C028BB
:104B80002816D02830169023381690334016402926
:104B90004816502950169025581690356016C02991
:104BA0006816901770169027781690378016482848
:104BB000881690199016902998169039A016C82832
:104BC000A816901BB016902BB816903BC01648291B
:104BD000C816901DD016902DD816903DE016C82905
:104BE000E816901FF016902FF816903F0017402CF3
:104BF0000817502C1017D0211817D0312017C02CAF
:104C00002817D02C3017D0233817D0334017402D19
:104C10004817502D5017D0255817D0356017C02D84
:104C20006817D0177017D0277817D0378017482CFF
:104C30008817D0199017D0299817D039A017C82CE9
:104C4000A817D01BB017D02BB817D03BC017482DD2
:104C5000C817D01DD017D02DD817D03DE017C82DBC
:104C6000E817D01FF017D02FF817D03F00180030EA
:104C70000818103010181820181818302018803014
:104C8000281890303018182238181832401800317F
:104C900048181031501818245818183460188031EA
:104CA000681890317018182678181836801808304F
:104CB000881818309018182898181838A0188830B4
:104CC000A818181AB018182AB818183AC0180831B5
:104CD000C818181CD018182CD818183CE01888319F
:104CE000E818181EF018182EF818183E001900348D
:104CF0000819103410195820181958302019803408
:104D00002819903430195822381958324019003572
:104D100048191035501958245819583460198035DD
:104D20006819903570195826781958368019083442
:104D3000881918349019582898195838A0198834A7
:104D4000A819581AB019582AB819583AC01908356C
:104D5000C819581CD019582CD819583CE019883556
:104D6000E819581EF019582EF819583E001A003844
:104D7000081A1038101A9820181A9830201A8038FB
:104D8000281A9038301A9822381A9832401A003966
:104D9000481A1039501A9824581A9834601A8039D1
:104DA000681A9039701A9826781A9836801A083836
:104DB000881A1838901A9828981A9838A01A88389B
:104DC000A81A9838B01A982AB81A983AC01A083906
:104DD000C81A981CD01A982CD81A983CE01A88390E
:104DE000E81A981EF01A982EF81A983E001B003CFC
:104DF000081B103C101BD820181BD830201B803CEF
:104E0000281B903C301BD822381BD832401B003D59
:104E1000481B103D501BD824581BD834601B803DC4
:104E2000681B903D701BD826781BD836801B083C29
:104E3000881B183C901BD828981BD838A01B883C8E
:104E4000A81B983CB01BD82AB81BD83AC01B083DF9
:104E5000C81BD81CD01BD82CD81BD83CE01B883DC5
:104E6000E81BD81EF01BD82EF81BD83E001C403083
:104E7000081C5030101C1821181C1831201CC03080
:104E8000281CD030301C1823381C1833401C4031EB
:104E9000481C5031501C1825581C1835601CC03156
:104EA000681CD031701C1827781C1837801C4830BB
:104EB000881C5830901C1829981C1839A01CC83020
:104EC000A81CD830B01C182BB81C183BC01C48318B
:104ED000C81C181DD01C182DD81C183DE01CC8314A
:104EE000E81C181FF01C182FF81C183F001D403438
:104EF000081D5034101D5821181D5831201DC03474
:104F0000281DD034301D5823381D5833401D4035DE
:104F1000481D5035501D5825581D5835601DC03549
:104F2000681DD035701D5827781D5837801D4834AE
:104F3000881D5834901D5829981D5839A01DC83413
:104F4000A81DD834B01D582BB81D583BC01D48357E
:104F5000C81D5835D01D582DD81D583DE01DC835E9
:104F6000E81D581FF01D582FF81D583F001E4038EF
:104F7000081E5038101E9821181E9831201EC03867
:104F8000281ED038301E9823381E9833401E4039D2
:104F9000481E5039501E9825581E9835601EC0393D
:104FA000681ED039701E9827781E9837801E4838A2
:104FB000881E5838901E9829981E9839A01EC83807
:104FC000A81ED838B01E982BB81E983BC01E483972
:104FD000C81E5839D01E982DD81E983DE01EC839DD
:104FE000E81E981FF01E982FF81E983F001F403CA7
:104FF000081F503C101FD821181FD831201FC03C5B
:10500000281FD03C301FD823381FD833401F403DC5
:10501000481F503D501FD825581FD835601FC03D30
:10502000681FD03D701FD827781FD837801F483C95
:10503000881F583C901FD829981FD839A01FC83CFA
:10504000A81FD83CB01FD82BB81FD83BC01F483D65
:10505000C81F583DD01FD82DD81FD83DE01FC83DD0
:10506000E81FD83DF01FD82FF81FD83F0820802018
:1050700010202020182020302820802830202022B6
:1050800038202032402000214820C02050202024F9
:1050900058202034602010246820C028702020264A
:1050A00078202036882080309020202898202038B2
:1050B000A0200830A8208038B020202AB820203A2C
:1050C000C0200821C820C030D020202CD820203C6F
:1050D000E0200831E820C038F020202EF820203EC3
:1050E0000021002408218021102110241821603083
:1050F000202120242821802930216022382160327B
:10510000402100254821C0215021602458216034CD
:10511000602150246821C0297021602678216036E2
:1051200080210824882180319021602898216038CE
:10513000A0210834A8218039B021602AB821603A22
:10514000C0210825C821C031D021602CD821603C65
:10515000E0210835E821C039F021602EF821603EB9
:105160000022003008228030102208301822A0309F
:1051700020221030282288283022A0223822A03273
:10518000402240304822C0305022A0245822A0346F
:10519000602250306822C8287022A0267822A036CB
:1051A00080222030882288309022A0289822A0389F
:1051B000A0221830A8228838B022A02AB822A03A0B
:1051C000C0226030C822C830D022A02CD822A03CF7
:1051D000E0221831E822C838F022A02EF822A03EA2
:1051E0000023003108238031102308311823E030D8
:1051F0002023103128238829302318313823E03226
:10520000402340314823C0315023E0245823E03468
:10521000602350316823C8297023E0267823E036C4
:1052200080231824882388319023E0289823E038AD
:10523000A0231834A8238839B023E02AB823E03A01
:10524000C0231825C823C831D023E02CD823E03C44
:10525000E0231835E823C839F023E02EF823E03E98
:105260000824802410242024182420312824802C71
:105270003024103138242033402400254824C02411
:105280005024202558242035602410256824C02C63
:1052900070242027782420378824803490242029E3
:1052A00098242039A0244830A824803CB024202B06
:1052B000B824203BC0240825C824C034D024202D85
:1052C000D824203DE0244831E824C03CF024202F9D
:1052D000F824203F08258025102520251825603139
:1052E0002825802D30255031382560334825C025AC
:1052F00050256025582560356825C02D702560270C
:105300007825603788258035902560299825603973
:10531000A0254834A825803DB025602BB825603BEA
:10532000C825C035D025602DD825603DE0254835FD
:10533000E825C03DF025602FF825603F00260034A9
:1053400008268034102608341826A0312026103470
:105350002826882C302618343826A033402640349E
:105360004826C034502648345826A035602650348C
:105370006826C82C7026A0277826A03780262034DF
:10538000882688349026A0299826A039A02658304F
:10539000A826883CB026A02BB826A03BC0266034A7
:1053A000C826C834D026A02DD826A03DE0265831E6
:1053B000E826C83CF026A02FF826A03F002700359D
:1053C00008278035102708351827E03120271035A9
:1053D0002827882D302718353827E03340274035D7
:1053E0004827C035502748355827E03560275035C5
:1053F0006827C82D7027E0277827E03780272035D9
:10540000882788359027E0299827E039A027583445
:10541000A827883DB027E02BB827E03BC0276035A0
:10542000C827C835D027E02DD827E03DE0275835DC
:10543000E827C83DF027E02FF827E03F082820287C
:1054400010288028182828302828902830288828D4
:10545000382828324028002C4828202C5028802C1E
:10546000582828346028082C6828D0287028882CD0
:10547000782828368828903098282838A02828307E
:10548000A8289038B028282AB828283AC028102CF4
:10549000C828D030D028282CD828283CE028182C20
:1054A000E828D038F028282EF828283E0029002C9B
:1054B0000829082C1029102C182968302029202CA4
:1054C000282990293029D030382968324029402CA9
:1054D0004829602C5029C02C582968346029482C50
:1054E0006829D0297029C82C782968368029802C11
:1054F000882990319029282C98296838A0292834A7
:10550000A8299039B029682AB829683AC029502CAE
:10551000C829D031D029682CD829683CE029582CDA
:10552000E829D039F029682EF829683E002A003889
:10553000082A2038102A8038182AA830202A08384B
:10554000282A2838302A8838382AA832402A003CAD
:10555000482A203C502A803C582AA834602A083C1B
:10556000682A283C702A883C782AA836802A103875
:10557000882A9830902A9038982AA838A02A183873
:10558000A82A9838B02A9838B82AA83AC02A103CD5
:10559000C82AD830D02AA82CD82AA83CE02A183CFF
:1055A000E82AD838F02AA82EF82AA83E002B40383E
:1055B000082B6038102BC038182BE830202B4838C7
:1055C000282B6838302BC838382BE832402B403C29
:1055D000482B603C502BC03C582BE834602B483C97
:1055E000682B683C702BC83C782BE836802B5038F1
:1055F000882B9831902BD038982BE838A02B58382E
:10560000A82B9839B02BD838B82BE83AC02B503C8F
:10561000C82BD831D02BE82CD82BE83CE02B583CB9
:10562000E82BD839F02BE82EF82BE83E082C202C5C
:10563000102C802C182C2831282C902C302C9031B8
:10564000382C2833402C002D482C202D502C802D18
:10565000582C2835602C082D682CD02C702C882DC7
:10566000782C2837882C9034982C2839A02C683036
:10567000A82C903CB02C6838B82C283BC02C102D9E
:10568000C82CD034D02C282DD82C283DE02C182D17
:10569000E82CD03CF02C282FF82C283F082D202D6A
:1056A000102D802D182D6831282D902D302DD031C2
:1056B000382D6833482D602D502DC02D582D68355C
:1056C000682DD02D702DC82D782D6837882D9035F8
:1056D000982D6839A02D6834A82D903DB02D683CD8
:1056E000B82D683BC82DD035D82D683DE02D6835E4
:1056F000E82DD03DF02D682FF82D683F002E0039A1
:10570000082E2039102E8039182EA831202E083965
:10571000282E2839302E8839382EA833402E003DC7
:10572000482E203D502E803D582EA835602E083D35
:10573000682E283D702E883D782EA837802E10398F
:10574000882E9834902E9039982EA839A02E18398A
:10575000A82E983CB02E9839B82EA83BC02E103DEC
:10576000C82ED834D02E903DD82EA83DE02E183D1E
:10577000E82ED83CF02EA82FF82EA83F002F403955
:10578000082F6039102FC039182FE831202F4839E1
:10579000282F6839302FC839382FE833402F403D43
:1057A000482F603D502FC03D582FE835602F483DB1
:1057B000682F683D702FC83D782FE837802F50390B
:1057C000882F9835902FD039982FE839A02F583945
:1057D000A82F983DB02FD839B82FE83BC02F503DA7
:1057E000C82FD835D02FD03DD82FE83DE02F583DD9
:1057F000E82FD83DF02FD83DF82FE83F1830303053
:1058000038303032403000314830083150301031BB
:1058100058303034603020316830283170301834DE
:10582000783030368830A03098303038A830A03802
:10583000B0308838B830303AC0308031C830E030CD
:10584000D0309031D830303CE0308831E830E0382A
:10585000F0308839F830303E0031003408310834F7
:1058600010311034183118342031203428312834C4
:1058700030313034383170324031003548310835FC
:105880005031103558317034603120356831283549
:105890007031583478317036803180348831A0319D
:1058A0009031903498317038A0318834A831A039C3
:1058B000B031883CB831703AC0318035C831E03100
:1058C000D0319035D831703CE0318835E831E0395D
:1058D000F031883DF831703E0032003808328038AF
:1058E0001032083818328838203210382832903870
:1058F000303218383832B032403240384832C0384E
:10590000503248385832B034603250386832D0386B
:10591000703258387832B036803220388832A03829
:10592000903228389832B038A0323038A832A838AF
:10593000B0329838B832B03AC0326038C832E03845
:10594000D0326838D832B03CE0327038E832E838CB
:10595000F0329839F832B03E0033003908338039DC
:1059600010330839183388392033103928339039E7
:105970003033183938339839403340394833C039D7
:10598000503348395833F034603350396833D039A4
:10599000703358397833F036803320398833A03962
:1059A000903328399833F038A0339834A833A83985
:1059B000B033983CB833F03AC0336039C833E0397B
:1059C000D0336839D833F03CE0339835E833E839E0
:1059D000F033983DF833F03E183430343834183909
:1059E000403400354834083550341035583430359B
:1059F00060342035683428357034183578343037C1
:105A00008834A03498343039A834A03CB034C83835
:105A1000B834303BC0348035C834E034D0349035AD
:105A2000D834303DE0348835E834E03CF034C839CF
:105A3000F834303F183530353835583958357035E9
:105A4000783570378835A03598357039A835A03D40
:105A5000B035C83CB835703BC835E035D835703DF9
:105A6000E835E03DF035C83DF835703F0036003C84
:105A70000836803C1036083C1836883C2036103CEE
:105A80002836903C3036183C3836983C4036403CFE
:105A90004836C03C5036483C5836C83C6036503CCE
:105AA0006836D03C7036583C7836B0378036203C6B
:105AB0008836A03C9036283C9836B039A036303C29
:105AC000A836A83CB036D838B836B03BC036603CB3
:105AD000C836E03CD036683CD836B03DE036703C45
