:0300000002000EED
:0C000E00787FE4F6D8FD75810A020055E9
:07000300020801F4010A00EC
:10012E0020A0107F0A7E001200F020A01930A0FD42
:10013E007F002220A1107F0A7E001200F020A1066F
:09014E0030A1FD7F01227FFF2298
:10009A0075A882758911758CF8758A30D28C12010F
:1000AA002EEFFD7C00F46011ED7005750A018009E0
:1000BA00ED64014C7003750A02E50A6401700A7F57
:1000CA00D07E07120157E4F50AE50A64027012E5C8
:1000DA00094508700CF5087509FA7FD07E071201E8
:0600EA005775A00380B869
:03000B000201747B
:10017400C0E0758CF8758A30E50945086008E50922
:09018400150970021508D0E032E3
:04018D007F1DDFFEF5
:01019100224B
:10015700AD07AC06ED1DAE0470011C4E600E75A018
:0D0167000F12018D75A0F312018D80E822AA
:1000F000D3EF9400EE940040347901E9D394007476
:1001000080948040217D8EEDD39400748094804053
:10011000127C02ECD394007480948040031C80F322
:0D0120001D80E41980D5EF1F70C61E80C33E
:01012D0022AF
:10001A0002009AE493A3F8E493A34003F68001F262
:10002A0008DFF48029E493A3F85407240CC8C333E7
:10003A00C4540F4420C8834004F456800146F6DFB6
:10004A00E4800B0102040810204080900003E47E43
:10005A00019360BCA3FF543F30E509541FFEE493AB
:10006A00A360010ECF54C025E060A840B8E493A372
:10007A00FAE493A3F8E493A3C8C582C8CAC583CA9D
:10008A00F0A3C8C582C8CAC583CADFE9DEE780BE55
:01000A0000F5
:00000001FF
