:020000040800F2
:100000001004002045010008D10300086703000820
:10001000CD030008EF0100081D07000800000000E4
:10002000000000000000000000000000890400083B
:10003000F3010008000000004504000875050008F1
:100040005F0100085F0100085F0100085F01000810
:100050005F0100085F010008F50100085F0100086A
:100060005F0100085F0100085F0100085F010008F0
:100070005F0100085F0100085F0100085F010008E0
:100080005F0100085F0100088D0100085F010008A2
:100090005F0100085F0100085F0100085F010008C0
:1000A0005F0100085F0100085F0100085F010008B0
:1000B0005F0100085F0100085F0100085F010008A0
:1000C0005F0100085F0100085F0100085F01000890
:1000D0005F0100085F0100085F0100085F01000880
:1000E0005F0100085F0100085F0100085F01000870
:1000F0005F0100085F0100085F0100085F01000860
:100100005F0100085F0100085F0100085F0100084F
:100110005F0100085F010008F50500085F010008A5
:100120005F0100085F0100085F0100085F0100082F
:10013000DFF80CD000F018F800480047E907000885
:10014000100400200648804706480047FEE7FEE707
:10015000FEE7FEE7FEE7FEE7FEE7FEE7FEE7FEE777
:100160009505000831010008064C074D06E0E068DF
:1001700040F0010394E8070098471034AC42F6D3EE
:10018000FFF7DAFF180800083808000810B54FF428
:100190000871074800F019F848B1054800F011F857
:1001A000044908804FF40871014800F005F810BDBB
:1001B000002401400400002000220A12D3430360FF
:1001C00070470146C86C80B2704770B50246002087
:1001D000002300240B125568CEB205EA0604156808
:1001E0001D4015B10CB1012000E0002070BD00BF22
:1001F000FEE7704710B5012000F014F840B1054843
:10020000006880F0200003490860012000F004F835
:1002100010BD00000C0C014001490860704700004F
:1002200014040140014600200022074B1B6803EA2A
:100230000102054B14331B680B4013B10AB10120B6
:1002400000E0002070470000000401402DE9F0416B
:10025000024600250026002000230024002791F8F4
:1002600003C00CF00F0591F803C00CF0100CBCF1AA
:10027000000F03D091F802C04CEA050591F800C0C8
:10028000BCF1000F31D0146800202BE04FF0010CBE
:100290000CFA00F3B1F800C00CEA03069E4220D12C
:1002A00083004FF00F0C0CFA03F7BC4305FA03FC74
:1002B0004CEA040491F803C0BCF1280F06D14FF0BA
:1002C000010C0CFA00FCC2F814C00AE091F803C05B
:1002D000BCF1480F05D14FF0010C0CFA00FCC2F83C
:1002E00010C0401C0828D1D31460B1F800C0BCF184
:1002F000FF0F34DD546800202EE000F1080C4FF0B1
:10030000010808FA0CF3B1F800C00CEA03069E429B
:1003100021D183004FF00F0C0CFA03F7BC4305FA10
:1003200003FC4CEA040491F803C0BCF1280F05D18A
:1003300000F1080C08FA0CF8C2F8148091F803C018
:10034000BCF1480F07D100F1080C4FF0010808FA82
:100350000CF8C2F81080401C0828CED35460BDE8C9
:10036000F0810161704700BFFEE7000008B5012180
:10037000082000F079F82020ADF8000010208DF85A
:10038000030003208DF8020069460F48FFF75EFF67
:100390000120ADF8000069460B48FFF757FF022027
:1003A000ADF8000069460848FFF750FF20210648D5
:1003B000FFF7D7FF01210448FFF7D3FF02210248CE
:1003C000FFF7CFFF08BD0000000C014000BFFEE7B3
:1003D0007047000070B5002100230F22C47804B3D9
:1003E000154C246804F4E064C4F5E064210AC1F10A
:1003F0000403CA40447804FA03F18478144021438A
:1004000009010E4C0678A155047804F01F0501245B
:10041000AC4005786D11AD0005F1E025C5F800414F
:1004200009E0047804F01F050124AC40044D06786F
:10043000761145F8264070BD0CED00E000E400E0C8
:1004400080E100E07047000029B1064AD26902430A
:10045000044BDA6104E0034AD2698243014BDA615A
:10046000704700000010024029B1064A9269024319
:10047000044B9A6104E0034A92698243014B9A61FA
:100480007047000000100240704710B500F002F8FD
:1004900010BD00000CB500200190009033480068AA
:1004A00040F480303149086000BF3048006800F4F3
:1004B000003000900198401C0190009818B90198F4
:1004C000B0F5A06FF1D12948006800F4003010B1F8
:1004D0000120009001E0002000900098012843D105
:1004E0002348006840F01000214908600846006871
:1004F00020F0030008600846006840F00200086031
:100500001A484068194948600846406848600846EB
:10051000406840F4806048600846406820F47C10E1
:1005200048600846406840F4E810486008460068A3
:1005300040F08070086000BF0C48006800F0007058
:100540000028F9D00948406820F0030007494860B6
:100550000846406840F00200486000BF0348406819
:1005600000F00C000828F9D10CBD0000001002407A
:100570000020024010B500F001F810BD04480068EA
:1005800020B103480068401E014908607047000020
:100590000000002010B51348006840F00100114928
:1005A000086008464068104908400E4948600846FF
:1005B00000680E4908400B4908600846006820F4AE
:1005C000802008600846406820F4FE0048604FF430
:1005D0001F008860FFF759FF4FF000600449086072
:1005E00010BD0000001002400000FFF8FFFFF6FE03
:1005F00008ED00E010B50121074800F023F80128BC
:1006000008D10121044800F00EF804480068401C9D
:100610000249086010BD00000010004008000020E2
:10062000CA4302827047CA430282704721B10288DE
:1006300042F00102028004E002884FF6FE731A4085
:100640000280704730B50246002000230024158A3E
:1006500005EA0103958905EA010413B10CB10120F3
:1006600000E0002030BD1AB183890B43838102E092
:1006700083898B4383817047002202881D4B9842F7
:100680000ED01D4B98420BD0B0F1804F08D01B4BC1
:10069000984205D01A4B984202D01A4B984204D186
:1006A0004FF68F731A404B881A43174B984207D066
:1006B000164B984204D04FF6FF431A40CB881A439A
:1006C00002808B8883850B8803850A4B98420BD068
:1006D000094B984208D00E4B984205D00D4B9842DA
:1006E00002D00D4B984201D10B7A038601238382FD
:1006F00070470000002C014000340140000400401D
:1007000000080040000C00400010004000140040B1
:1007100000400140004401400048014000BFFEE7A6
:1007200002E008C8121F08C1002AFAD170477047BA
:10073000002001E001C1121F002AFBD17047000018
:100740000EB501211020FFF77FFE0020ADF8060056
:100750004720ADF800000020ADF8020040F2E7307D
:10076000ADF8040000208DF8080069460848FFF73E
:1007700083FF01210648FFF753FF01221146044879
:10078000FFF771FF01210248FFF750FF0EBD000087
:100790000010004008B54FF4C06101F007020D4B96
:1007A00018684FF6FF0318400B4B034343EA02203F
:1007B000084B186000BF36208DF8000001208DF82E
:1007C00003008DF801008DF802006846FFF702FE75
:1007D00008BD00000CED00E00000FA0510B5FFF7C1
:1007E000D9FFFFF7ADFF10BDFFF7F8FFFFF7BEFD24
:1007F0000DE007480068B0F57A7F08D10020044971
:1008000008600448006880F0010002490860F0E7D1
:10081000080000200C0C01403808000800000020EF
:100820000C00000020070008440800080C0000200D
:100830000404000030070008000000000000000071
:0408400000000000B4
:0400000508000131BD
:00000001FF
