:020000040800F2
:1000000020040020450100087103000807030008D0
:100010006D0300088D0100083F0800080000000083
:10002000000000000000000000000000F1040008D3
:100030009101000800000000F9030008DD05000838
:100040005F0100085F0100085F0100085F01000810
:100050005F0100085F010008950100085F010008CA
:100060005F0100085F0100085F0100085F010008F0
:100070005F0100085F0100085F0100085F010008E0
:100080005F0100085F0100085F0100085F010008D0
:100090005F0100085F0100085F0100085F010008C0
:1000A0005F0100085F0100085F0100085F010008B0
:1000B0005F0100085F0100085F0100085F010008A0
:1000C0005F0100085F0100085F0100085F01000890
:1000D0005F0100085D0600085F0100085F0100087D
:1000E0005F0100085F0100085F0100085F01000870
:1000F0005F0100085F0100085F0100085F01000860
:100100005F0100085F0100085F0100085F0100084F
:100110005F0100085F0100085F0100085F0100083F
:100120005F0100085F0100085F0100085F0100082F
:10013000DFF80CD000F018F800480047810A0008EA
:10014000200400200648804706480047FEE7FEE7F7
:10015000FEE7FEE7FEE7FEE7FEE7FEE7FEE7FEE777
:10016000FD05000831010008064C074D06E0E06877
:1001700040F0010394E8070098471034AC42F6D3EE
:10018000FFF7DAFF840B0008A40B000800BFFEE7AE
:100190007047000010B5012000F014F840B1054888
:1001A000006880F0200003490860012000F004F896
:1001B00010BD00000C0C01400149086070470000B0
:1001C00014040140014600200022074B1B6803EA8B
:1001D0000102054B14331B680B4013B10AB1012017
:1001E00000E0002070470000000401402DE9F041CC
:1001F000024600250026002000230024002791F855
:1002000003C00CF00F0591F803C00CF0100CBCF10A
:10021000000F03D091F802C04CEA050591F800C028
:10022000BCF1000F31D0146800202BE04FF0010C1E
:100230000CFA00F3B1F800C00CEA03069E4220D18C
:1002400083004FF00F0C0CFA03F7BC4305FA03FCD4
:100250004CEA040491F803C0BCF1280F06D14FF01A
:10026000010C0CFA00FCC2F814C00AE091F803C0BB
:10027000BCF1480F05D14FF0010C0CFA00FCC2F89C
:1002800010C0401C0828D1D31460B1F800C0BCF1E4
:10029000FF0F34DD546800202EE000F1080C4FF011
:1002A000010808FA0CF3B1F800C00CEA03069E42FC
:1002B00021D183004FF00F0C0CFA03F7BC4305FA71
:1002C00003FC4CEA040491F803C0BCF1280F05D1EB
:1002D00000F1080C08FA0CF8C2F8148091F803C079
:1002E000BCF1480F07D100F1080C4FF0010808FAE3
:1002F0000CF8C2F81080401C0828CED35460BDE82A
:10030000F0810161704700BFFEE7000008B50121E0
:10031000082000F073F82020ADF8000010208DF8C0
:10032000030003208DF8020069460F48FFF75EFFC7
:100330000120ADF8000069460B48FFF757FF022087
:10034000ADF8000069460848FFF750FF2021064835
:10035000FFF7D7FF01210448FFF7D3FF022102482E
:10036000FFF7CFFF08BD0000000C014000BFFEE713
:100370007047000070B5002100230F22C47804B339
:10038000154C246804F4E064C4F5E064210AC1F16A
:100390000403CA40447804FA03F1847814402143EA
:1003A00009010E4C0678A155047804F01F050124BC
:1003B000AC4005786D11AD0005F1E025C5F80041B0
:1003C00009E0047804F01F050124AC40044D0678D0
:1003D000761145F8264070BD0CED00E000E400E029
:1003E00080E100E002490143024A116070470000C9
:1003F0000000FA050CED00E07047000029B1064A44
:1004000092690243044B9A6104E0034A9269824371
:10041000014B9A61704700000010024030B5002186
:100420000022002400232D4D6D6805F00C0121B140
:10043000042905D0082923D105E0294D056022E0D3
:10044000274D05601FE0254D6D6805F47012234DA2
:100450006D6805F48034022505EB92421CB9214DEC
:10046000554305600BE01D4D6D6805F400351DB169
:100470001C4D5543056002E0194D5543056002E0EF
:10048000174D056000BF00BF144D6D6805F0F00109
:100490000909154D6B5C0568DD4045600F4D6D68C1
:1004A00005F4E061090A104D6B5C4568DD4085602C
:1004B0000A4D6D6805F46051C90A0B4D6B5C4568C7
:1004C000DD40C560054D6D6805F44041890B074D61
:1004D0006B5CC568B5FBF3F5056130BD00100240EB
:1004E00000127A0000093D000400002014000020E2
:1004F000704710B500F002F810BD00000CB50020E8
:10050000019000903348006840F480303149086021
:1005100000BF3048006800F4003000900198401C93
:100520000190009818B90198B0F5A06FF1D1294851
:10053000006800F4003010B10120009001E00020BC
:1005400000900098012843D12348006840F0100033
:10055000214908600846006820F00300086008464A
:10056000006840F0020008601A4840681949486075
:100570000846406848600846406840F4806048602B
:100580000846406820F47C1048600846406840F403
:10059000E81048600846006840F08070086000BFBE
:1005A0000C48006800F000700028F9D00948406845
:1005B00020F00300074948600846406840F0020008
:1005C000486000BF0348406800F00C000828F9D1DB
:1005D0000CBD0000001002400020024010B500F0E9
:1005E00001F810BD0448006820B103480068401EAF
:1005F00001490860704700000000002010B5134852
:10060000006840F001001149086008464068104940
:1006100008400E494860084600680E4908400B49EA
:1006200008600846006820F480200860084640689A
:1006300020F4FE0048604FF41F008860FFF759FF68
:100640004FF000600449086010BD00000010024037
:100650000000FFF8FFFFF6FE08ED00E010B540F2E5
:100660002551074800F027F840B1054800F0DEF8B2
:10067000C4B2601CC1B2024800F06EF910BD0000A7
:100680000038014021B1828942F40052828104E0A5
:1006900082894DF6FF731A4082817047024600201E
:1006A000B1F5007F00D100BF13880B400BB10120D2
:1006B00000E00020704770B50246002400230025AA
:1006C000002040F66A16B14200D100BFC1F34215C6
:1006D00001F01F03012606FA03F3012D02D19689CA
:1006E000334006E0022D02D1168A334001E0968A9B
:1006F00033400C12012606FA04F41688344013B174
:100700000CB1012000E0002070BDF0B503460024CC
:1007100000260025002040F66A17B94200D100BF2C
:100720001846C1F3421401F01F06012707FA06F527
:10073000012C01D10C3004E0022C01D1103000E07A
:1007400014301AB107682F43076002E00768AF430F
:100750000760F0BD2DE9F04786B005460E4600243F
:10076000A24600BFA1460027B08900B100BF2F46B6
:100770002C8A4CF6FF700440F08804432C82AC892C
:100780004EF6F3100440B08831890843718908435C
:100790000443AC81AC8A4FF6FF400440B089044367
:1007A000AC8201A8FFF73AFE1F48874202D1DDF86C
:1007B00010A001E0DDF80CA0A88900F4004040B1D1
:1007C0000AEBCA0000EB0A1031684900B0FBF1F8EF
:1007D00007E00AEBCA0000EB0A1031688900B0FBA1
:1007E000F1F86420B8FBF0F004012009642101FB5A
:1007F0001089A88900F4004040B1322000EBC90004
:10080000B0FBF1F000F00700044308E0322000EBF9
:1008100009106421B0FBF1F000F00F0004432C81BB
:1008200006B0BDE8F0870000003801400146888826
:10083000C0F308007047C1F308028280704700BF10
:10084000FEE700000FB4054B10B503A9044A029857
:1008500000F017F810BC5DF814FB0000590A0008FE
:100860001C00002002E008C8121F08C1002AFAD1AB
:1008700070477047002001E001C1121F002AFBD120
:1008800070472DE9F84F994692468846054600275D
:1008900006E025280AD051464A4690476D1C7F1C29
:1008A00028780028F5D13846BDE8F88F002315F8E0
:1008B000011F18462E2915D115F8011F04232A29D6
:1008C0000DD06FF02F022978A1F13004092C09D83E
:1008D00000EB800002EB400008446D1CF3E758F881
:1008E000040B6D1C2A78002ADDD0632A07D0732AF6
:1008F0000FD0104651464A4690477F1C2AE018F810
:10090000042B8DF8002000218DF801106E46012186
:1009100003E058F8046B4FF0FF315A074FF0000422
:1009200001D409E0641C84420BDA8C42FADB325DAC
:10093000002AF7D105E0641C8C42FCDB305D002806
:10094000F9D1274404E016F8010B51464A46904776
:10095000641EF8D26D1CA3E770B504460D46294607
:100960002046FFF768FF00BF80212046FFF796FE74
:100970000028F9D070BD000000B585B00121042029
:10098000FFF73CFD01218803FFF738FD18208DF8A3
:1009900013004FF40070ADF8100003208DF8120022
:1009A00004A91948FFF722FC04208DF81300000267
:1009B000ADF8100003208DF8120004A91248FFF7CB
:1009C00015FC4FF4E13000900020ADF80C000C2035
:1009D000ADF80A000020ADF80800ADF80600ADF84B
:1009E000040069460948FFF7B5FE00F011F801223E
:1009F00040F225510548FFF788FE01210348FFF723
:100A000041FE05B000BD0000000801400038014073
:100A100008B54FF4A060FFF7E5FC25208DF8000035
:100A200001208DF801008DF802008DF80300684662
:100A3000FFF7A0FC08BD000010B5044600BF202150
:100A40000448FFF72BFE0028F9D00248FFF7EEFE1E
:100A500010BD00000038014070B504460D46E1B2FB
:100A60000548FFF779FF00BF80210348FFF716FE16
:100A70000028F9D0204670BD00380140FFF7DCBFE8
:100A8000FFF744FCFFF778FF002240F2255134487D
:100A9000FFF73BFE33A0FFF7D5FE5FE03348FFF7DB
:100AA000EDFFC4B2214632A0FFF7CCFEA4F1310025
:100AB000082851D2DFE800F0040D18222B353F47FB
:100AC00020202F4908600120091F086002200860CB
:100AD00043E020202A49091F08600120091D086001
:100AE0000220091F086038E020202549091F0860FE
:100AF000012008600220091D08602EE02020204906
:100B00000860012008600220091F086025E02020FD
:100B10001B4908600120091F08600220091D0860A8
:100B20001BE020201649091F08600120091D0860EC
:100B30000220086011E020201149086001200860AF
:100B40000220086009E020200D49091F08600120EB
:100B500008600220086000E000BF00BF9EE70000C0
:100B600000380140B0B2B8E76E70000018000020F5
:100B7000BDD3CAD5B5BDD7D6B7FB256300000000ED
:100B8000140C0140A40B000800000020200000000D
:100B900064080008C40B00082000002000040000C6
:100BA00074080008000000000000000001020304B7
:100BB00001020304060708090204060800000000F9
:040BC0000000000031
:0400000508000131BD
:00000001FF
