:020000040800F2
:10000000380900209D0100087F04000877040008DB
:100010007B04000865030008E909000800000000EF
:100020000000000000000000000000003906000889
:1000300069030008000000000D05000829070008FA
:10004000B7010008B7010008B7010008B7010008B0
:10005000B7010008B7010008B7010008B7010008A0
:10006000B7010008B7010008B7010008B701000890
:10007000B7010008B7010008B7010008B701000880
:10008000B7010008B701000839030008B7010008EC
:10009000B7010008B7010008B70100086B030008AA
:1000A000B7010008B7010008B7010008B701000850
:1000B000B7010008B7010008B7010008B701000840
:1000C000B7010008B7010008B7010008B701000830
:1000D000B701000811080008B7010008B7010008BF
:1000E000B7010008B7010008B7010008B701000810
:1000F000B7010008B7010008B7010008B701000800
:10010000B7010008B7010008B7010008B7010008EF
:10011000B7010008B7010008CD070008B7010008C3
:10012000B7010008B7010008B7010008B7010008CF
:10013000B7010008B7010008B7010008B7010008BF
:10014000B7010008B7010008B7010008B7010008AF
:10015000B7010008B7010008B7010008B70100089F
:10016000B7010008B7010008B7010008B70100088F
:10017000B7010008B7010008B7010008B70100087F
:10018000B7010008B7010008DFF80CD000F07AF8DA
:1001900000480047FD100008380900200648804745
:1001A00006480047FEE7FEE7FEE7FEE7FEE7FEE75C
:1001B000FEE7FEE7FEE7FEE76507000889010008A5
:1001C00040EA01039B0703D009E008C9121F08C0D9
:1001D000042AFAD203E011F8013B00F8013B521E59
:1001E000F9D270472DE9F05F0546002092469B4604
:1001F00088460646814640241BE02846414647463D
:10020000224600F02FF853465A46C01A914110D3A7
:1002100011461846224600F016F82D1A67EB010821
:100220004F4622460120002100F00DF817EB00098F
:100230004E41201EA4F10104DFDC484631462A4627
:100240004346BDE8F09F202A04DB203A00FA02F181
:10025000002070479140C2F1200320FA03F31943B4
:1002600090407047202A04DB203A21FA02F0002156
:10027000704721FA02F3D040C2F1200291400843B6
:1002800019467047064C074D06E0E06840F0010350
:1002900094E8070098471034AC42F6D3FFF778FF94
:1002A000641200088412000870B58C1810F8015B05
:1002B00015F0070301D110F8013B2A1106D110F8FF
:1002C000012B03E010F8016B01F8016B5B1EF9D103
:1002D0002B0705D40023521E0DD401F8013BFAE789
:1002E00010F8013BCB1A921C03E013F8015B01F8F4
:1002F000015B521EF9D5A142D8D3002070BD002267
:100300000A12D343036070470146C86C80B270473D
:1003100070B502460020002300240B125568012608
:100320008E4005EA060415681D4015B10CB1012088
:1003300000E0002070BD000010B540F20521074824
:10034000FFF7E6FF48B10548FFF7DEFF04490880E4
:1003500040F205210148FFF7D2FF10BD0020014007
:100360001802002000BFFEE7704710B5402000F0E3
:100370000BF810B1402000F001F810BD01490860F1
:1003800070470000143C014001460020034A1268F7
:100390000A400AB1012000E000207047143C0140EF
:1003A000F0B50A4600210023002400BF3DE00125EE
:1003B00005FA01F3156805EA03049C4234D1056887
:1003C0004F000326BE40B543056015794E00B54089
:1003D0000668354305601579012D02D01579022D87
:1003E00016D185684F000326BE40B5438560557918
:1003F0004E00B540866835438560456801268E40CD
:10040000B5434560456896798E40B6B23543456040
:10041000C5684F000326BE40B543C560D5794E0080
:10042000B540C6683543C560491C1029BFD3F0BD2F
:10043000F0B5002300244D07ED0E02FA05F3CE10AF
:1004400000F1200555F826504E07F70E0F26BE4046
:10045000B543CF1000F1200646F82750CE1000F12A
:10046000200555F8265045EA0304CE1000F120057A
:1004700045F82640F0BD00BFFEE700BFFEE770472D
:1004800070B5002100230F22C4781CB3174C2468D8
:1004900004F4E064C4F5E064C4F30721C1F104048A
:1004A000E3B20A4144789C40E1B28478144021438D
:1004B0000C07210E0E4C05786155047804F01F05D9
:1004C0000124AC4005786D11AD0005F1E025C5F8BB
:1004D000004109E0047804F01F050124AC40054DFB
:1004E0000678761145F8264070BD00000CED00E05E
:1004F00000E400E080E100E002490143024A1160AB
:10050000704700000000FA050CED00E070470000A5
:1005100029B1064A12680243044B1A6004E0034AF8
:1005200012688243014B1A60704700003038024065
:1005300029B1064A12680243044B1A6004E0034AD8
:1005400012688243014B1A60704700004438024031
:10055000F0B5002100220024022500260223324F9C
:100560003F6807F00C0121B1042905D0082937D1D3
:1005700005E02E4F076036E02D4F076033E02A4F2D
:100580003F1F3F68C7F38056274F3F1F3F6807F064
:100590003F036EB1264FB7FBF3F7DFF88CC0ACF129
:1005A000040CDCF800C0CCF3881C07FB0CF40CE056
:1005B0001E4FB7FBF3F7DFF870C0ACF1040CDCF8AA
:1005C00000C0CCF3881C07FB0CF4174F3F1F3F689B
:1005D000C7F301477F1C7D00B4FBF5F7076002E01D
:1005E000124F076000BF00BF0F4F3F6807F0F001D8
:1005F0000909104F7A5C0768D74047600A4F3F6887
:1006000007F4E051890A0B4F7A5C4768D74087604E
:10061000054F3F6807F46041490B064F7A5C476815
:10062000D740C760F0BD0000083802400024F40045
:1006300000127A001A020020704700000CB500205A
:10064000019000903448006840F4803032490860DE
:1006500000BF3148006800F4003000900198401C51
:100660000190009818B90198B0F5A04FF1D12A482F
:10067000006800F4003010B10120009001E000207B
:1006800000900098012846D123484030006840F08F
:1006900080502149403108602048006840F44040C3
:1006A0001E4908601C48083000681B490831086072
:1006B0000846006840F4004008600846006840F4BE
:1006C000A05008601648091F0860081F006840F025
:1006D0008070091F086000BF0F48006800F00070BC
:1006E0000028F9D040F205700E4908600A48083029
:1006F000006820F0030008490831086008460068D7
:1007000040F00200086000BF03480830006800F0B5
:100710000C000828F8D10CBD0038024000700040E1
:1007200008544007003C024010B500F003F800F008
:100730000DF810BD0448006820B103480068401E51
:100740000149086070470000080200200448006862
:1007500020B103480068401E01490860704700004E
:100760000C02002010B51548006840F470001349D1
:1007700008601348006840F001001149086000203B
:100780000F49083108600E4800680E4908400C49BE
:1007900008600D48091D0860081F006820F48020CB
:1007A000091F0860002006490C310860FFF746FF6A
:1007B0004FF0006001498039086010BD88ED00E00D
:1007C00000380240FFFFF6FE1030002410B5012172
:1007D000044800F00CF8012803D10121014800F081
:1007E00003F810BD00100040CA430282704730B5C4
:1007F0000246002000230024158A05EA010395899A
:1008000005EA010413B10CB1012000E0002030BD65
:1008100010B540F22661084800F02DF850B10748A5
:100820000078401C0549087040F22661024800F03B
:1008300007F800BF10BD00000010014010020020AA
:1008400010B50022002340F66A14A14200D100BF77
:100850000A1201249440A3B2DC43048010BD21B1EC
:10086000828942F40052828104E082894DF6FF734E
:100870001A408281704770B502460024002300258B
:10088000002040F66A16B14200D100BFC1F3421504
:1008900001F01F03012606FA03F3012D02D1968908
:1008A000334006E0022D02D1168A334001E0968AD9
:1008B00033400C12012606FA04F41688344013B1B2
:1008C0000CB1012000E0002070BDF0B5034600240B
:1008D00000260025002040F66A17B94200D100BF6B
:1008E0001846C1F3421401F01F06012707FA06F566
:1008F000012C01D10C3004E0022C01D1103000E0B9
:1009000014301AB107682F43076002E00768AF434D
:100910000760F0BD2DE9FF4705460E460024A146BD
:1009200000BFA046B08900B100BF2C8A24F4405417
:10093000F08804432C82AC8941F20C608443B08877
:1009400031890843718908430443AC81AC8A24F49B
:100950004074B0890443AC826846FFF7F9FD204833
:10096000854202D01F48854202D1DDF80C9001E09B
:10097000DDF80890A88900F4004040B109EBC900F7
:1009800000EB091031684900B0FBF1F707E009EB13
:10099000C90000EB091031688900B0FBF1F7642051
:1009A000B7FBF0F004012009642101FB1078A8894D
:1009B00000F4004040B1322000EBC800B0FBF1F081
:1009C00000F00700044308E0322000EB0810642127
:1009D000B0FBF1F000F00F0004432C81BDE8FF876D
:1009E000001001400014014000BFFEE70FB4054BAA
:1009F00010B503A9044A029800F018F810BC5DF87D
:100A000014FB0000911000081402002002E008C846
:100A1000121F08C1002AFAD170477047002001E078
:100A200001C1121F002AFBD1704700002DE9FF4FC2
:100A30008DB00F460546002606E025280BD0DDE9DF
:100A40000F1290476D1C761C28780028F5D111B044
:100A50003046BDE8F08F0024A246A1460122EC49B1
:100A600000E0044315F8013F203B02FA03F008427E
:100A7000F7D128782A2810D06FF02F022878A0F11B
:100A80003001092914D80AEB8A0102EB410144F034
:100A9000020400EB010A6D1CF0E701CF5FEA000AD7
:100AA00003D544F40054CAF1000A44F002046D1C5A
:100AB00028782E2817D115F8010F44F004042A28AD
:100AC0000ED06FF02F022878A0F1300109290AD842
:100AD00009EB890102EB410100EB01096D1CF2E712
:100AE00057F8049B6D1C28786C280FD006DC4C2826
:100AF00017D068280DD06A2814D104E0742810D0CB
:100B00007A280FD10DE044F400140AE044F4801474
:100B100001E044F440146978814202D104F5801464
:100B20006D1C6D1C2A786E2A1FD00CDC632A31D014
:100B300004DC002A8BD0582A11D1A3E0642A68D0A3
:100B4000692A0CD165E0732A2ED004DC6F2A73D099
:100B5000702A04D19BE0752A6FD0782A6ED0104697
:100B6000DDE90F129047761C50E1C4F302500228D1
:100B700006D0032809D0042801CF09D0066045E13A
:100B800001CFF117C0E9006140E101CF06803DE1EE
:100B900006703BE117F8040B8DF8000000208DF87B
:100BA0000100EB46012003E057F804BB4FF0FF3093
:100BB00061074FF0000102D40DE008F10101884601
:100BC00049450FDA8045F8DB1BF808100029F4D1FD
:100BD00008E008F1010188468142FADB1BF80810A1
:100BE0000029F6D1DDE90F23AAEB08008146214652
:100BF00000F036F9304400EB080604E0DDE90F129E
:100C00001BF8010B9047B8F10108F7D2214648467E
:100C1000F7E00A21C4F302534FF0000B0891022BB6
:100C200004D001CFC117032B09D00AE0FF1D27F024
:100C30000707F7E8020108E032E01FE020E000B219
:100C4000C117042B01D140B2C117031E71F100037B
:100C500007DA4FF0000CD0EB0C006CEB01012D23F8
:100C600002E0230504D52B238DF82430012303E073
:100C7000E30701D02023F7E7984658E00A2110E067
:100C800010210EE010204FF0000B08900CE0102116
:100C90004FF0000B44F004044FF00809089103E002
:100CA00008214FF0000B0891C4F30253022B04D02B
:100CB00001CF0021032B06D006E0FF1D27F0070718
:100CC000F7E8020103E080B2042B00D1C0B24FF07C
:100CD000000823072BD5702A07D0DDF820C08CF040
:100CE000100C5CEA0B0C05D00EE040238DF824308C
:100CF000012308E050EA010306D030238DF82430A8
:100D00008DF8252002239846DDF820C08CF0080CD1
:100D10005CEA0B0C0BD150EA010301D1630706D545
:100D200030238DF824304FF00108A9F10109582A29
:100D300004D038A20B9208AA0A920BE03AA2F9E773
:100D40005B46089AFFF74EFA0B9B9B5C0A9A521E71
:100D50000A92137050EA0102F2D10A98ADEB00003A
:100D600000F1200B600702D524F4803401E04FF03D
:100D70000109D94502DDA9EB0B0000E0002000EBE2
:100D80000B0141440890AAEB010AE00306D4DDE917
:100D90000F232146504600F063F806444FF0000947
:100DA00008E009A911F80900DDE90F12904709F1DF
:100DB0000109761CC145F4DBE0030CD5DDE90F2306
:100DC0002146504600F04CF8064404E0DDE90F12DD
:100DD00030209047761C0899481E08900029F5DCC1
:100DE00008E00A980A990078491C0A91DDE90F1277
:100DF0009047761CBBF10001ABF1010BF1DC214601
:100E00005046DDE90F2300F019F806446D1C1BE67F
:100E100009280100303132333435363738396162D0
:100E20006364656600000000303132333435363794
:100E30003839414243444546000000002DE9F04165
:100E4000044600251E461746880404D405E03946AA
:100E50002020B0476D1C641EF9D52846BDE8F081FE
:100E60002DE9F041044600251E469046C80301D5F1
:100E7000302700E02027880404D505E041463846A5
:100E8000B0476D1C641EF9D52846BDE8F08100000E
:100E900010B586B0044601210846FFF739FB012151
:100EA0001020FFF745FB02208DF81400000204908B
:100EB00002208DF8150000208DF8160001208DF815
:100EC000170004A91C48FFF76BFA02208DF81400E4
:100ED0004002049002208DF8150004A91648FFF77F
:100EE0005FFA072209211448FFF7A2FA07220A2114
:100EF0001148FFF79DFA00940020ADF80C000C207B
:100F0000ADF80A000020ADF80800ADF80600ADF815
:100F1000040069460948FFF7FDFC00F011F80122C2
:100F200040F226610548FFF7D0FC01210348FFF796
:100F300096FC06B010BD0000000002400010014009
:100F400008B54FF4C060FFF7D7FA25208DF80000F0
:100F500001208DF801008DF802008DF8030068462D
:100F6000FFF78EFA08BD2DE9FC5F05468A469146DB
:100F7000AE882889019028680090284600F036F84D
:100F800004464C4500DD4C46012C02DA0020BDE849
:100F9000FC9FD3464FF0000819E00198801B87B2F0
:100FA000A74200DD2746009A91190BEB08003A464C
:100FB000FFF706F908EB07001FFA80F8E01B84B280
:100FC000F01986B20198864200DB002600BF002C93
:100FD000E3DCAE804046DAE770B50446258920465A
:100FE00000F004F80646A81B80B270BD30B501467B
:100FF0008A88CB880C899D1AA8B2934202DAA51A76
:101000001D44A8B290FBF4F504FB1505A8B230BD51
:10101000016000238380C380028170472DE9FC5F5B
:1010200005468A469146EE882889019028680090F6
:101030002846FFF7D1FF04464C4500DD4C46012C05
:1010400002DA0020BDE8FC9FD3464FF0000819E00B
:101050000198801B87B2A74200DD27460BEB0801F1
:10106000009A90193A46FFF7ABF808EB07001FFA11
:1010700080F8E01B84B2F01986B20198864200DB4A
:10108000002600BF002CE3DCEE804046DAE70000DB
:1010900000BF054A128802F04002002AF9D0C2B20D
:1010A000014B9A80704700000010014010B50028E5
:1010B00021D0114B0022001F196803E0814203D8A0
:1010C0000A4649680029F9D152B11368841A9C4232
:1010D00004D1006818441060104602E0506000E03F
:1010E000186039B102680B1A934203D10B681A4495
:1010F00002604968416010BD2C0200204FF4E130CD
:10110000FFF7C6FE0C2000F077F8354908604FF471
:101110008072344932480068FFF77AFF0020324974
:1011200008600AE03048007830492F4A1268885435
:101130002D480068401C2C4908602B480068FF2897
:10114000F0D9FF22294926480068FFF767FFFF22F0
:10115000274923480068FFF706FF0020224908605E
:101160000BE02248204A1268815C22A0FFF73EFC77
:101170001D480068401C1C4908601B480068FF2887
:10118000EFD90020184908600BE01648164A12688B
:10119000815C18A0FFF72AFC13480068401C124924
:1011A000086011480068FF28EFD900200E49086048
:1011B0000BE00F480C4A1268815C0EA0FFF716FC8A
:1011C00009480068401C0849086007480068FF2873
:1011D000EFD903480068FFF769FF00BFFEE7000092
:1011E0000002002000010020040200200000002076
:1011F0003402002025642000F0B50B30154D20F09E
:1012000007010024144A0FE003688B420BD38B4282
:1012100005D95E1A43184768C3E9006700E04368D0
:10122000136002C004E0021D10680028ECD12046C3
:10123000002802D1286808B10020F0BD064A0748FE
:101240001060074A121A22F00702C0E900240120A8
:101250002860D7E7300200202C0200203C03002049
:10126000380500208412000800000020340200002D
:10127000A8020008981200083402002004070000A9
:101280001C0A000802FF0102FF01011E2D010203DA
:081290000404A506070809008B
:040000050800018965
:00000001FF
